:020000040000FA
:04000000A4EF24F055
:100800000052454C4F4A3A2020256425643A25641D
:1008100025643A2564256400416C61726D613A205B
:10082000256425643A256425643A256425640020FE
:1008300021214D6F646F20416C61726D6121212017
:100840000054656D702E203D2025332E3266202504
:10085000634300494E46004E414E00696E66006E8D
:07086000616E006C660000F0
:10086800000E00017B6F000E7A6F36C08CF037C027
:100878008DF038C08EF039C08FF08FBF48EF04F08C
:1008880046EF04F05EEF04F0000E7B6F010E7A6F06
:100898008CC001F08DC002F08EC003F08FC004F050
:1008A80018EC24F001C08CF002C08DF003C08EF06B
:1008B80004C08FF0000E0001936F000E926FD2C03B
:1008C8007EF0D3C07FF07A517B11D8A46EEF04F08C
:1008D80070EF04F077EF04F0D6A575EF04F077EF2A
:1008E80004F091EF04F07A517B11D8A47EEF04F064
:1008F80080EF04F086EF04F0000E616F2B0E606F3E
:100908008AEF04F0000E616F2D0E606F60C004F175
:10091800924B932B7E07D8A07F078CC001F08DC027
:1009280002F08EC003F08FC004F02DEC1DF001041E
:100938000210D8A4A2EF04F0A4EF04F0FBEF04F037
:10094800BF0E3B6EFF0E3C6E3A503D6E3E6A3B500A
:100958003D263C503E223E500AE11A0E3D5CD8A08E
:10096800B8EF04F0BBEF04F0010EBCEF04F0000E8A
:100978000001626F636B62516311D8B4C6EF04F073
:10098800C8EF04F0D6EF04F0040E9225016E010EB4
:100998009321026E530E036E080E046EB1EC22F022
:1009A800E2EF04F0040E9225016E010E9321026E0F
:1009B8005B0E036E080E046EB1EC22F00001FD0E12
:1009C8007E27FF0E7F2334C014F035C015F0040EC7
:1009D800166E010E176E7EC018F07FC019F0CEECAF
:1009E8001FF014C034F015C035F05FEF0AF08CC06A
:1009F80001F08DC002F08EC003F08FC004F02DEC22
:100A08001DF001500210D8A40CEF05F00EEF05F010
:100A18004EEF05F0BF0E3B6EFF0E3C6E3A503D6E3A
:100A28003E6A3B503D263C503E223E500AE11A0E9B
:100A38003D5CD8A022EF05F025EF05F0010E26EF6A
:100A480005F0000E0001646F656B64516511D8B440
:100A580030EF05F032EF05F040EF05F0040E922577
:100A6800016E010E9321026E570E036E080E046E7E
:100A7800B1EC22F0E2EF04F0040E9225016E010EB3
:100A88009321026E5F0E036E080E046EB1EC22F025
:100A9800E2EF04F0000E0001946F000E956F800ED7
:100AA800966F3F0E976F000E916F000E906F8CC07F
:100AB80001F08DC002F08EC003F08FC004F0000E6C
:100AC800056E000E066E000E076E000E086E45ECF1
:100AD80021F0D8B072EF05F074EF05F0F7EF05F0EC
:100AE80093EF05F094C00FF095C010F096C011F088
:100AF80097C012F0000E136E000E146E200E156EC5
:100B0800410E166EFCEC10F00FC094F010C095F07A
:100B180011C096F012C097F00001904B912B8CC039
:100B280028F08DC029F08EC02AF08FC02BF0000E5F
:100B3800136E000E146E200E156E410E166E94C0C4
:100B48000FF095C010F096C011F097C012F0FCECB1
:100B580010F00FC02CF010C02DF011C02EF012C0F4
:100B68002FF0ABEC1CF0D8B0BCEF05F0BEEF05F0F1
:100B780076EF05F0DEEF05F094C001F095C002F0C5
:100B880096C003F097C004F0000E056E000E066EC6
:100B9800200E076E410E086E11EC13F001C094F0A0
:100BA80002C095F003C096F004C097F000019007CA
:100BB800D8A091078CC028F08DC029F08EC02AF0EB
:100BC8008FC02BF094C02CF095C02DF096C02EF05D
:100BD80097C02FF0ABEC1CF0D8A0F5EF05F0F7EFBD
:100BE80005F0C0EF05F03AC007F0086A81EC22F082
:100BF80007500001816F81C080F0670E8119D8A469
:100C080008EF06F00AEF06F030EF06F0D451D511E0
:100C1800D8A411EF06F013EF06F017EF06F0000E58
:100C2800D56F010ED46FD5BF24EF06F0D55106E17C
:100C3800D405D8B022EF06F024EF06F02AEF06F02C
:100C4800000E7D6F060E7C6F39EF06F0D4C07CF085
:100C5800D5C07DF039EF06F0D5BF35EF06F037EF98
:100C680006F024EF06F02AEF06F0670E8119D8A4E3
:100C780040EF06F042EF06F071EF06F091AF50EF4B
:100C880006F0FC0E905DFF0E9159D8A04EEF06F0CD
:100C980050EF06F06FEF06F0FF0E3B6EFF0E3C6E56
:100CA8007CC03DF07DC03EF03B503D263C503E228E
:100CB80090513D5C3E50800A3F6E9151800A3F58EA
:100CC800D8A069EF06F06BEF06F06FEF06F0660E3E
:100CD800806F71EF06F0650E806F7CC072F07DC08A
:100CE80073F0670E8119D8A47CEF06F07EEF06F04A
:100CF8008EEF06F0660E8019D8A485EF06F087EF10
:100D080006F090EF06F091BF8EEF06F08CEF06F03C
:100D180090EF06F0724B732B660E8019D8A497EFEC
:100D280006F099EF06F0B9EF06F091BFA0EF06F0D4
:100D38009EEF06F0ACEF06F0000E946F000E956F74
:100D4800800E966F3F0E976F000E916F000E906F9A
:100D5800670E8119D8B4B3EF06F0B5EF06F0B9EF16
:100D680006F09051722791517323000E8B6F000E7D
:100D78008A6F8CC082F08DC083F08EC084F08FC0E3
:100D880085F094C074F095C075F096C076F097C061
:100D980077F04AEF07F082C001F083C002F084C008
:100DA80003F085C004F094C005F095C006F096C025
:100DB80007F097C008F011EC13F001C01AF002C058
:100DC8001BF003C01CF004C01DF050EC16F01AC054
:100DD80086F01BC087F01CC088F01DC089F086C053
:100DE80001F087C002F088C003F089C004F0A6ECC7
:100DF8001BF001C078F002C079F082C028F083C0EF
:100E080029F084C02AF085C02BF094C013F095C057
:100E180014F096C015F097C016F086C00FF087C082
:100E280010F088C011F089C012F0FCEC10F00FC06F
:100E38002CF010C02DF011C02EF012C02FF053EC82
:100E480023F028C082F029C083F02AC084F02BC088
:100E580085F094C001F095C002F096C003F097C0E9
:100E680004F0000E056E000E066E200E076E410E91
:100E7800086E11EC13F001C094F002C095F003C0A5
:100E880096F004C097F000018A4B8B2B72518A5D53
:100E98008B51800A3B6E7351800A3B58D8A057EF9C
:100EA80007F059EF07F0CFEF06F094C00FF095C0A8
:100EB80010F096C011F097C012F0000E136E000EDD
:100EC800146EA00E156E400E166EFCEC10F00FC0DE
:100ED80086F010C087F011C088F012C089F082C077
:100EE80028F083C029F084C02AF085C02BF086C082
:100EF8002CF087C02DF088C02EF089C02FF0ABEC05
:100F08001CF0D8B08AEF07F08CEF07F097EF07F0E6
:100F1800000E0001866F000E876F000E886F000EAE
:100F2800896FC0EF07F082C001F083C002F084C06F
:100F380003F085C004F086C005F087C006F088C0BD
:100F480007F089C008F045EC21F0D8A0AEEF07F013
:100F5800B0EF07F0C0EF07F0000178B1B6EF07F087
:100F6800B8EF07F0C0EF07F0000E866F000E876F2E
:100F7800000E886F000E896F8CC001F08DC002F0E2
:100F88008EC003F08FC004F086C005F087C006F05D
:100F980088C007F089C008F09CEC0EF001C082F010
:100FA80002C083F003C084F004C085F082C028F03A
:100FB80083C029F084C02AF085C02BF0000E136E80
:100FC800000E146E200E156E410E166E74C00FF0D2
:100FD80075C010F076C011F077C012F0FCEC10F07C
:100FE8000FC02CF010C02DF011C02EF012C02FF041
:100FF800ABEC1CF0D8A003EF08F005EF08F02EEFDB
:1010080008F00001904B912B74C00FF075C010F0E0
:1010180076C011F077C012F0000E136E000E146E39
:10102800200E156E410E166EFCEC10F00FC074F019
:1010380010C075F011C076F012C077F0660E00018E
:101048008019D8A42AEF08F02CEF08F02EEF08F04A
:10105800724B732B74C094F075C095F076C096F0FF
:1010680077C097F0650E00018019D8B43EEF08F0FC
:1010780040EF08F046EF08F090C070F091C071F0B2
:101088004AEF08F0000E716F000E706F000E6F6F60
:10109800000E6E6F000E6D6F000E6C6F000E8B6F82
:1010A800000E8A6F45EF09F082C001F083C002F09C
:1010B80084C003F085C004F094C005F095C006F024
:1010C80096C007F097C008F011EC13F001C01AF0B1
:1010D80002C01BF003C01CF004C01DF050EC16F059
:1010E8001AC086F01BC087F01CC088F01DC089F0AC
:1010F80086C001F087C002F088C003F089C004F000
:10110800A6EC1BF001C078F002C079F00001D6B956
:1011180090EF08F092EF08F0AFEF08F078517911EE
:10112800D8A499EF08F09BEF08F0AFEF08F0670E2E
:101138008119D8A4A2EF08F0A4EF08F0AFEF08F0E7
:1011480071BFABEF08F0A9EF08F0AFEF08F06C4BF8
:101158006D2BF9EF08F06E516F11D8A4B6EF08F0B7
:10116800B8EF08F0E2EF08F071BFBFEF08F0BDEF8D
:1011780008F0E2EF08F0040E9225D96E010E9321D3
:10118800DA6E2E0EDF6E924B932B7E07D8A07F0768
:10119800000E6F6F010E6E6FE2EF08F0040E9225DD
:1011A800D96E010E9321DA6E300EDF6E924B932BBF
:1011B8007E07D8A07F076C07D8A06D076C516D110A
:1011C800D8A4E9EF08F0EBEF08F0D2EF08F0040E2E
:1011D8009225D96E010E9321DA6E7851300FDF6EA9
:1011E800924B932B7E07D8A07F0782C028F083C03C
:1011F80029F084C02AF085C02BF094C013F095C064
:1012080014F096C015F097C016F086C00FF087C08E
:1012180010F088C011F089C012F0FCEC10F00FC07B
:101228002CF010C02DF011C02EF012C02FF053EC8E
:1012380023F028C082F029C083F02AC084F02BC094
:1012480085F094C001F095C002F096C003F097C0F5
:1012580004F0000E056E000E066E200E076E410E9D
:10126800086E11EC13F001C094F002C095F003C0B1
:1012780096F004C097F000017007D8A071078A4B58
:101288008B2B72518A5D8B51800A3B6E7351800A99
:101298003B58D8B052EF09F054EF09F062EF09F06B
:1012A80093BF60EF09F0935109E14B0E925DD8A00E
:1012B80060EF09F062EF09F058EF08F06E516F1116
:1012C800D8A469EF09F06BEF09F07CEF09F0D6A913
:1012D80070EF09F072EF09F07CEF09F0040E922527
:1012E800D96E010E9321DA6E2E0EDF6E924B932B80
:1012F800040E9225D96E010E9321DA6E000EDF6E70
:10130800650E8019D8A48BEF09F08DEF09F0E7EF8F
:1013180004F0000E8B6F4F0E8A6F040E8A25D96E6B
:10132800010E8B21DA6E000EDF6E000E7B6F000E51
:101338007A6F91BFA4EF09F0A2EF09F0ACEF09F0C2
:10134800000E7B6F010E7A6F906D911FD8B0912BB4
:10135800000E7D6F020E7C6FDDEF09F08A07D8A0C2
:101368008B07040E8A25D96E010E8B21DA6E90C088
:1013780001F091C002F0000E046E0A0E036EEDEC4F
:1013880020F00150300FDF6E90C006F091C007F0DA
:10139800000E096E0A0E086E31EC20F006C090F0BF
:1013A80007C091F000017C07D8A07D077E07D8A070
:1013B8007F0790519111D8A4E4EF09F0E6EF09F006
:1013C800B2EF09F07DBFF3EF09F07D5106E17C052E
:1013D800D8B0F1EF09F0F3EF09F0B2EF09F08A079E
:1013E800D8A08B077A517B11D8A4FDEF09F0FFEF45
:1013F80009F005EF0AF0000E676F2B0E666F09EF14
:101408000AF0000E676F2D0E666F040E8A25D96EDE
:10141800010E8B21DA6E66C0DFFF7E07D8A07F073A
:101428008A07D8A08B07BF0E3B6EFF0E3C6E3A5062
:101438003D6E3E6A3B503D263C503E223E500AE1FE
:101448001A0E3D5CD8A02BEF0AF02EEF0AF0010E21
:101458002FEF0AF0000E6A6F6B6B6A516B11D8A4FC
:1014680038EF0AF03AEF0AF040EF0AF0000E696F21
:10147800650E686F44EF0AF0000E696F450E686FDD
:10148800040E8A25D96E010E8B21DA6E68C0DFFF43
:101498007E07D8A07F07040E9225016E010E9321C6
:1014A800026E040E8A25036E010E8B21046EB1ECC8
:1014B80022F0E7EF04F0120045C0D9FF46C0DAFF7A
:1014C800DECFF6FFDECFF7FF070EF76403D0080084
:1014D800F55005D0F6CFE1FFF7CFE2FFE750250A38
:1014E800D8A479EF0AF07BEF0AF075EF0EF045C04B
:1014F800D9FF46C0DAFFDE2A000EDD22000E000109
:10150800D36F000ED26FD2C0D6F0D3C0D7F0D46953
:10151800D56945C0D9FF46C0DAFFDECFF6FFDECF7A
:10152800F7FF070EF76403D00800F55005D0F6CF93
:10153800E1FFF7CFE2FFE7502A0AD8A4A6EF0AF0A6
:10154800A8EF0AF0D2EF0AF045C0D9FF46C0DAFF8B
:10155800DE2A000EDD2247C0D9FF48C0DAFFDFCF00
:1015680049F0020EDE26DFCF4AF0000EDD2249C028
:10157800D9FF4AC0DAFFDECFD2F0DDCFD3F00001C9
:10158800D3BFCBEF0AF0C9EF0AF01FEF0BF0D681FB
:10159800D26DD31FD8B0D32B1FEF0BF045C0D9FFA6
:1015A80046C0DAFFDECF08F0DDCF09F05AEC18F0BC
:1015B80008C0D2F009C0D3F0E9EF0AF045C0D9FF5E
:1015C80046C0DAFFDE2A000EDD22D00E496EFF0E7D
:1015D8004A6E45C0D9FF46C0DAFFDECFF6FFDECF40
:1015E800F7FF070EF76403D00800F55005D0F6CFD3
:1015F800E1FFF7CFE2FFE7504B6E4C6A49504B26AC
:101608004A504C224C500AE10A0E4B5CD8A00FEF0E
:101618000BF012EF0BF0010E13EF0BF0000E0001B0
:10162800A26FA36BA251A311D8A41DEF0BF01FEF5B
:101638000BF0E2EF0AF045C0D9FF46C0DAFFDECF73
:10164800F6FFDECFF7FF070EF76403D00800F5506A
:1016580005D0F6CFE1FFF7CFE2FFE7502E0AD8A476
:1016680038EF0BF03AEF0BF0CBEF0BF0000E000168
:10167800D56F000ED46F45C0D9FF46C0DAFFDE2A09
:10168800000EDD2245C0D9FF46C0DAFFDECFF6FFE7
:10169800DECFF7FF070EF76403D00800F55005D03A
:1016A800F6CFE1FFF7CFE2FFE7502A0AD8A45FEFB1
:1016B8000BF061EF0BF07EEF0BF045C0D9FF46C091
:1016C800DAFFDE2A000EDD2247C0D9FF48C0DAFF64
:1016D800DFCF49F0020EDE26DFCF4AF0000EDD2212
:1016E80049C0D9FF4AC0DAFFDECFD4F0DDCFD5F04C
:1016F800CBEF0BF045C0D9FF46C0DAFFDECF08F0CC
:10170800DDCF09F05AEC18F008C0D4F009C0D5F0C4
:1017180095EF0BF045C0D9FF46C0DAFFDE2A000E70
:10172800DD22D00E496EFF0E4A6E45C0D9FF46C075
:10173800DAFFDECFF6FFDECFF7FF070EF76403D040
:101748000800F55005D0F6CFE1FFF7CFE2FFE750EC
:101758004B6E4C6A49504B264A504C224C500AE179
:101768000A0E4B5CD8A0BBEF0BF0BEEF0BF0010EDE
:10177800BFEF0BF0000E0001A46FA56BA451A511DB
:10178800D8A4C9EF0BF0CBEF0BF08EEF0BF045C0F0
:10179800D9FF46C0DAFFDECFF6FFDECFF7FF070E30
:1017A800F76403D00800F55005D0F6CFE1FFF7CF76
:1017B800E2FFE750496E4950076E086A81EC22F053
:1017C80007500001AC6FAC51D8B4EDEF0BF0EFEF60
:1017D8000BF041EF0CF045C0D9FF46C0DAFFDECF71
:1017E80049F0DDCF4AF0010E4926000E4A2249C0D1
:1017F800F6FF4AC0F7FFF86A070EF76403D008003F
:10180800F55005D0F6CFE1FFF7CFE2FFE7504B6E7A
:101818004B50076E086A81EC22F007500001AD6F4B
:10182800AD51D8B41AEF0CF01CEF0CF041EF0CF0EE
:1018380045C0D9FF46C0DAFFDECF49F0DDCF4AF018
:10184800020E4926000E4A2249C0F6FF4AC0F7FF99
:10185800F86A070EF76403D00800F55005D0F6CFF4
:10186800E1FFF7CFE2FFE7504B6E4B50076E086A77
:1018780081EC22F007500001AE6F45C0D9FF46C089
:10188800DAFFDECFF6FFDECFF7FF070EF76403D0EF
:101898000800F55005D0F6CFE1FFF7CFE2FFE7509B
:1018A800630AD8A45AEF0CF05CEF0CF084EF0CF04C
:1018B80045C0D9FF46C0DAFFDE2A000EDD2247C048
:1018C800D9FF48C0DAFFDFCF49F0020EDE26DFCFAE
:1018D8004AF0000EDD2249C0D9FF4AC0DAFFDF50C6
:1018E8000001AF6F43C00DF044C00EF0AFC00FF061
:1018F80092EC1EF00DC043F00EC044F09BEF0EF0CA
:1019080045C0D9FF46C0DAFFDECFF6FFDECFF7FFCE
:10191800070EF76403D00800F55005D0F6CFE1FFB5
:10192800F7CFE2FFE750640AD8B49DEF0CF09FEFC1
:101938000CF0BAEF0CF045C0D9FF46C0DAFFDECF95
:10194800F6FFDECFF7FF070EF76403D00800F55067
:1019580005D0F6CFE1FFF7CFE2FFE750690AD8A438
:10196800B8EF0CF0BAEF0CF0FBEF0CF045C0D9FF64
:1019780046C0DAFFDE2A000EDD2247C0D9FF48C084
:10198800DAFFDFCF49F0020EDE26DFCF4AF0000E85
:10199800DD2249C0D9FF4AC0DAFFDECF98F0DDCF9B
:1019A80099F00001000E99BFFF0E9A6F9B6F9C6F14
:1019B8009D6F9E6F9F6F43C01FF044C020F098C07A
:1019C80021F099C022F09AC023F09BC024F09CC05B
:1019D80025F09DC026F09EC027F09FC028F0DEECC1
:1019E80014F01FC043F020C044F09BEF0EF0660EC9
:1019F8000001AC19D8A403EF0DF005EF0DF04FEF7F
:101A08000DF045C0D9FF46C0DAFFDECFF6FFDECFC6
:101A1800F7FF070EF76403D00800F55005D0F6CF9E
:101A2800E1FFF7CFE2FFE7500001AF6F45C0D9FFF4
:101A380046C0DAFFDE2A000EDD2247C0D9FF48C0C3
:101A4800DAFFDFCF49F0040EDE26DFCF4AF0000EC2
:101A5800DD2249C0D9FF4AC0DAFFDECFA8F0DECFC9
:101A6800A9F0DECFAAF0DECFABF043C034F044C01B
:101A780035F0A8C036F0A9C037F0AAC038F0ABC01E
:101A880039F0AFC03AF034EC04F034C043F035C05C
:101A980044F09BEF0EF0AC0E016E000E026E630E6A
:101AA800036E080E046E000E066E020E056EFEEC46
:101AB8001EF001500210D8A464EF0DF066EF0DF08F
:101AC800F6EF0DF045C0D9FF46C0DAFFDECF49F08A
:101AD800DDCF4AF0010E4926000E4A2249C0F6FF22
:101AE8004AC0F7FFF86A070EF76403D00800F550FC
:101AF80005D0F6CFE1FFF7CFE2FFE7500001AF6F67
:101B0800BF0E496EFF0E4A6E45C0D9FF46C0DAFFC8
:101B1800DECFF6FFDECFF7FF070EF76403D008002D
:101B2800F55005D0F6CFE1FFF7CFE2FFE7504B6E57
:101B38004C6A49504B264A504C224C500AE11A0E26
:101B48004B5CD8A0AAEF0DF0ADEF0DF0010EAEEF93
:101B58000DF0000E0001A66FA76BA651A711D8B40F
:101B6800B8EF0DF0BAEF0DF0D4EF0DF047C0D9FF84
:101B780048C0DAFFDFCF49F0040EDE26DFCF4AF097
:101B8800000EDD2249C0D9FF4AC0DAFFDECFA8F037
:101B9800DECFA9F0DECFAAF0DECFABF0ECEF0DF090
:101BA80047C0D9FF48C0DAFFDFCF49F0040EDE2670
:101BB800DFCF4AF0000EDD2249C0D9FF4AC0DAFF64
:101BC800DECFA8F0DECFA9F0DECFAAF0DECFABF0F3
:101BD800020E45C0D9FF46C0DAFFDE26000EDD2220
:101BE80039EF0DF045C0D9FF46C0DAFFDECFF6FF6A
:101BF800DECFF7FF070EF76403D00800F55005D0D5
:101C0800F6CFE1FFF7CFE2FFE7506E0AD8A40FEF57
:101C18000EF011EF0EF03AEF0EF045C0D9FF46C0B6
:101C2800DAFFDE2A000EDD2247C0D9FF48C0DAFFFE
:101C3800DFCF49F0020EDE26DFCF4AF0000EDD22AC
:101C480049C0D9FF4AC0DAFFDECFA0F0DDCFA1F04E
:101C5800A0C0D9FFA1C0DAFFD0C0DEFFD1C0DDFF30
:101C6800000E446E000E436E9BEF0EF045C0D9FF88
:101C780046C0DAFFDECFF6FFDECFF7FF070EF764C8
:101C880003D00800F55005D0F6CFE1FFF7CFE2FF0B
:101C9800E750250AD8A453EF0EF055EF0EF06CEF7D
:101CA8000EF045C0D9FF46C0DAFFDE2A000EDD225D
:101CB800000E056E250E046E43C006F044C007F002
:101CC80069EC1FF0000E446E010E436E9BEF0EF0A0
:101CD80045C0D9FF46C0DAFFDE2A000EDD2234EF08
:101CE8000EF045C0D9FF46C0DAFFDECFF6FFDECFE3
:101CF800F7FF070EF76403D00800F55005D0F6CFBC
:101D0800E1FFF7CFE2FFE750496E4950046E056ADC
:101D180043C006F044C007F069EC1FF045C0D9FF86
:101D280046C0DAFFDE2A000EDD2266EF0EF0120052
:101D38000450800B0D6E045004240F6E03AEA7EF01
:101D48000EF0A9EF0EF0AAEF0EF00F800F50D8B4E6
:101D5800B0EF0EF0B2EF0EF0C7EF0EF00F28D8A4D8
:101D6800B8EF0EF0BAEF0EF0C2EF0EF0000E016EF3
:101D7800000E026E000E036E000E046E038E000E3F
:101D8800046ECFEF0EF0000E016E000E026E000E14
:101D9800036E000E046E0850800B0E6E0D500E1868
:101DA800D8B4D9EF0EF0DBEF0EF0DCEF0EF00D8CAF
:101DB800085008240E6E07AEE4EF0EF0E6EF0EF0C2
:101DC800E7EF0EF00E800E50D8B4EDEF0EF0EFEF07
:101DD8000EF004EF0FF00E28D8A4F5EF0EF0F7EF91
:101DE8000EF0FFEF0EF0000E056E000E066E000EF0
:101DF800076E000E086E078E000E086E0CEF0FF0CF
:101E0800000E056E000E066E000E076E000E086EC0
:101E18000F500E5CD8B013EF0FF015EF0FF03CEF3A
:101E28000FF00DAC1AEF0FF01CEF0FF01EEF0FF0D4
:101E3800800E0D1A0FC010F00EC00FF010C00EF07B
:101E480001C010F005C001F010C005F002C010F08C
:101E580006C002F010C006F003C010F007C003F07F
:101E680010C007F004C010F008C004F010C008F05B
:101E7800000E106E0F500EC009F00A6A095E000EBF
:101E88000A5A0ABE51EF0FF00A5009E11A0E095C0E
:101E9800D8A051EF0FF053EF0FF08AEF0FF0015079
:101EA800021003100410D8A45CEF0FF05FEF0FF0DE
:101EB800010E60EF0FF0000E106E000E016E000EA6
:101EC800026E000E036E000E046E0EC00FF093EF4C
:101ED8000FF010A072EF0FF074EF0FF07AEF0FF021
:101EE800D89010300109106E7CEF0FF0D8901032A6
:101EF80001A081EF0FF083EF0FF084EF0FF0108E49
:101F0800043404320332023201320F2A0E500F5CBD
:101F1800D8A091EF0FF093EF0FF06DEF0FF00DBC1D
:101F280098EF0FF09AEF0FF0DAEF0FF00F50D8A4F8
:101F3800A0EF0FF0A2EF0FF0ACEF0FF0000E016E64
:101F4800000E026E000E036E000E046EFBEF10F022
:101F58000550012606500222075003220850042289
:101F680004A0B9EF0FF0BBEF0FF067EF10F010A06F
:101F7800C0EF0FF0C2EF0FF0C8EF0FF0D89010309D
:101F88000109106ECAEF0FF0D890103201A0CFEF00
:101F98000FF0D1EF0FF0D2EF0FF0108E04340432AF
:101FA8000332023201320F2A67EF10F00550015C4C
:101FB80006500258075003580450800A096E08500A
:101FC800800A0958D8B0EBEF0FF0EDEF0FF018EFDB
:101FD80010F00150055C096E025006580A6E035055
:101FE80007580B6E045008580C6EFF0E0924016E3A
:101FF800FF0E0A20026EFF0E0B20036EFF0E0C2050
:10200800046E800E0D1A106C1050D8A40EEF10F04C
:1020180010EF10F020EF10F0010E0126000E022242
:102028000322042220EF10F00550015E0650025AE8
:102038000750035A0850045A0150021003100410A4
:10204800D8A429EF10F02BEF10F060EF10F010502B
:10205800D8A431EF10F033EF10F060EF10F0000E5D
:10206800016E000E026E000E036E000E046EFBEF92
:1020780010F0D890013602360336043610AE47EF1A
:1020880010F049EF10F04AEF10F0018010A04FEF68
:1020980010F051EF10F055EF10F0D880103657EFD0
:1020A80010F0D89010360F50D8B45DEF10F05FEFF5
:1020B80010F060EF10F00F0603AE65EF10F067EF59
:1020C80010F03DEF10F0000E0E6E10AE6EEF10F037
:1020D80070EF10F088EF10F010C009F07F0E0916AD
:1020E800D8B479EF10F07BEF10F07FEF10F0010E0D
:1020F8000E6E88EF10F001A084EF10F086EF10F05C
:1021080088EF10F07BEF10F00E50D8B48EEF10F07F
:1021180090EF10F0BBEF10F0010E0126000E022226
:102128000322042204A09BEF10F09DEF10F0BBEFF8
:1021380010F001C009F002C00AF003C00BF004C09F
:102148000CF00C340C320B320A32093209C001F09F
:102158000AC002F00BC003F00CC004F00F28D8B47A
:10216800B8EF10F0BAEF10F0BBEF10F00F2A0F28FD
:10217800D8B4C1EF10F0C3EF10F0CBEF10F00F5050
:10218800D8A4C9EF10F0CBEF10F0DDEF10F0000E7F
:10219800016E000E026E000E036E000E046E0F50EC
:1021A800D8A4D9EF10F0DBEF10F0DDEF10F0000E3F
:1021B8000D6E0FA0E2EF10F0E4EF10F0E7EF10F073
:1021C800038EE8EF10F0039ED8900F30046E0DAE2A
:1021D800F0EF10F0F2EF10F0F3EF10F0048E01C002
:1021E80001F002C002F003C003F004C004F01200C2
:1021F8001250800B1B6E12501224216E11AE07EF85
:1022080011F009EF11F00AEF11F021802150D8B434
:1022180010EF11F012EF11F025EF11F02128D8A4DA
:1022280018EF11F01AEF11F022EF11F0000E0F6EF7
:10223800000E106E000E116E000E126E118E2DEF34
:1022480011F0000E0F6E000E106E000E116E000ED3
:10225800126E1650800B1B1A16501624206E15AEDF
:1022680038EF11F03AEF11F03BEF11F020802050D9
:10227800D8B441EF11F043EF11F056EF11F02028D8
:10228800D8A449EF11F04BEF11F053EF11F0000E05
:10229800136E000E146E000E156E000E166E158E5F
:1022A8005EEF11F0000E136E000E146E000E156E28
:1022B800000E166E2050D8B464EF11F066EF11F0DE
:1022C8006EEF11F02150D8A46CEF11F06EEF11F001
:1022D80078EF11F0000E0F6E000E106E000E116EEA
:1022E800000E126E10EF13F015500F02F3CF26F008
:1022F800F4CF27F026501C6E1D6A1E6A1F6A2750ED
:10230800226E236A246A256A14501002F3CF26F03D
:10231800F4CF27F026501C26000E1D221E221F2255
:1023280027502226000E2322242225221350110290
:10233800F3CF26F0F4CF27F026501C26000E1D22DE
:102348001E221F2227502226000E23222422252265
:102358001EC01FF01DC01EF01CC01DF01C6A1350CB
:102368001002F3CF26F0F4CF27F026501C26275072
:102378001D22000E1E22000E1F2214500F02F3CF42
:1023880026F0F4CF27F026501C2627501D22000ED9
:102398001E22000E1F221EC01FF01DC01EF01CC0F2
:1023A8001DF01C6A13500F02F3CF26F0F4CF27F06C
:1023B80026501C2627501D22000E1E22000E1F220A
:1023C80015501002F3CF26F0F4CF27F0265022261E
:1023D80027502322000E2422000E25221450110219
:1023E800F3CF26F0F4CF27F02650222627502322B9
:1023F800000E2422000E252215501102F3CF26F0DC
:10240800F4CF27F02650176E2750186E196A1A6AEB
:1024180019C01AF018C019F017C018F0176A175029
:10242800222618502322195024221A5025221CC073
:1024380017F01DC018F01EC019F01FC01AF0190EB1
:102448002BEF12F0D8901A32193218321732E82EC0
:1024580026EF12F017502226185023221950242252
:102468001A5025221EC01FF01DC01EF01CC01DF0F2
:102478001C6A205021C017F0186A1726000E18226F
:10248800820E1724266EFF0E1820276E61EF12F0B9
:10249800D89022362336243625361FAE56EF12F052
:1024A80058EF12F059EF12F02280D8901C361D36E2
:1024B8001E361F362606D8A0270624AE66EF12F071
:1024C80068EF12F04CEF12F0000E206E1FAE6FEFA7
:1024D80012F071EF12F095EF12F0FF0E1C14176E48
:1024E800FF0E1D14186EFF0E1E14196E7F0E1F149A
:1024F8001A6E1750181019101A10D8B486EF12F067
:1025080088EF12F08CEF12F0010E206E95EF12F0AA
:1025180022A091EF12F093EF12F095EF12F088EFEE
:1025280012F02050D8B49BEF12F09DEF12F0C1EFDB
:1025380012F0010E2226000E23222422252225A095
:10254800A8EF12F0AAEF12F0C1EF12F022C017F0B4
:1025580023C018F024C019F025C01AF01A341A3212
:1025680019321832173217C022F018C023F019C0D8
:1025780024F01AC025F0264A272A27BECCEF12F0ED
:10258800275008E12628D8A0CCEF12F0CEEF12F0A1
:10259800D8EF12F0000E226E000E236E800E246E0D
:1025A8007F0E256E06EF13F027BEE5EF12F02750D9
:1025B80006E12604D8B0E3EF12F0E5EF12F0F1EFF0
:1025C80012F0000E226E000E236E000E246E000E16
:1025D800256E000E1B6E06EF13F026C021F0FF0ECD
:1025E8002216FF0E23167F0E2416000E251621A094
:1025F80000EF13F002EF13F003EF13F0248ED890DE
:102608002130256E1B50251222C00FF023C010F078
:1026180024C011F025C012F012000450800B116E76
:1026280004500424186E03AE1CEF13F01EEF13F0D1
:102638001FEF13F018801850D8B425EF13F027EFC8
:1026480013F03CEF13F01828D8A42DEF13F02FEF58
:1026580013F037EF13F0000E016E000E026E000E3D
:10266800036E000E046E038E000E046E44EF13F02A
:10267800000E016E000E026E000E036E000E046E58
:102688000850800B111A08500824196E07AE4FEF36
:1026980013F051EF13F052EF13F019801950D8B41A
:1026A80058EF13F05AEF13F06FEF13F01928D8A46E
:1026B80060EF13F062EF13F06AEF13F0000E056E8F
:1026C800000E066E000E076E000E086E078E000ED6
:1026D800086E77EF13F0000E056E000E066E000E02
:1026E800076E000E086E0550061007100810D8A4D3
:1026F80080EF13F082EF13F09AEF13F0000E016EE3
:10270800000E026E000E036E000E046E800E0312A1
:102718007F0E04121150041201C001F002C002F031
:1027280003C003F004C004F0DDEF14F01850D8A47F
:10273800A0EF13F0A2EF13F0ACEF13F0000E016E50
:10274800000E026E000E036E000E046EDDEF14F034
:10275800195018C009F00A6A095E000E0A5A7F0E5D
:102768000924126E000E0A20136E01C00DF002C07B
:102778000EF003C00FF004C010F0000E016E000E42
:10278800026E000E036E000E046E000E146E000E34
:10279800156E000E166E000E176E000E196E0DEFF8
:1027A80014F01950D8B4DBEF13F0DDEF13F0F4EFA9
:1027B80013F0D8900D360E360F361036D8900136F5
:1027C80002360336043617AEECEF13F0EEEF13F0D3
:1027D800EFEF13F00180D8901436153616361736F9
:1027E80005500D5C06500E5807500F5808501058E9
:1027F800D8A001EF14F003EF14F00CEF14F0178CCD
:1028080005500D5E06500E5A07500F5A0850105AC0
:10281800192A190E196413EF14F015EF14F0D5EFF7
:1028280013F00D500E100F101010D8B41EEF14F046
:1028380020EF14F038EF14F0148038EF14F0D8902B
:10284800013602360336043617AE2DEF14F02FEF9B
:1028580014F030EF14F00180D8901436153616367F
:1028680017361206D8A0130603AE3DEF14F03FEF5B
:1028780014F023EF14F0000E196E17AE46EF14F0A3
:1028880048EF14F06CEF14F0FF0E1414096EFF0EED
:1028980015140A6EFF0E16140B6E7F0E17140C6EAD
:1028A80009500A100B100C10D8B45DEF14F05FEF4C
:1028B80014F063EF14F0010E196E6CEF14F001A020
:1028C80068EF14F06AEF14F06CEF14F05FEF14F097
:1028D8001950D8B472EF14F074EF14F098EF14F0A4
:1028E800010E0126000E02220322042204A07FEF1B
:1028F80014F081EF14F098EF14F001C009F002C051
:102908000AF003C00BF004C00CF00C340C320B328C
:102918000A32093209C001F00AC002F00BC003F004
:102928000CC004F0124A132A13BEA3EF14F013507C
:1029380008E11228D8A0A3EF14F0A5EF14F0B0EF27
:1029480014F0000E136E1268000E016E000E026E77
:10295800000E036E000E046E13BEBDEF14F013508C
:1029680006E11204D8B0BBEF14F0BDEF14F0CBEFC2
:1029780014F0000E136E000E126E000E016E000EA3
:10298800026E000E036E000E046E000E116E12C071
:1029980018F018A0D2EF14F0D4EF14F0D7EF14F019
:1029A800038ED8EF14F0039ED8901830046E8EEF83
:1029B80013F0120021C039F022C03AF023C03BF0D6
:1029C80024C03CF025C03DF026C03EF027C03FF0B3
:1029D80028C040F040BEF3EF14F0F6EF14F0010EFB
:1029E800F7EF14F0000E376E386A37503810D8B445
:1029F80000EF15F002EF15F012EF15F0401E3F1E24
:102A08003E1E3D1E3C1E3B1E3A1E396C000E3A22ED
:102A18003B223C223D223E223F2240220001D5BFDC
:102A280018EF15F01AEF15F01BEF15F0D693D5BF78
:102A380028EF15F0D55106E1D405D8B026EF15F0EA
:102A480028EF15F02EEF15F0000E346E010E336EE0
:102A580032EF15F0D4C033F0D5C034F0D2C035F021
:102A6800D3C036F037503810D8A43DEF15F03FEFFB
:102A780015F046EF15F0D6A544EF15F046EF15F022
:102A880049EF15F03506D8A03606000E426E4F0EF7
:102A9800416E000E0101536FCEEF15F04106D8A02C
:102AA8004206040E4124D96E010E4220DA6E39C066
:102AB80001F03AC002F03BC003F03CC004F03DC056
:102AC80005F03EC006F03FC007F040C008F00A0E0F
:102AD800096E000E0A6E000E0B6E000E0C6E000ED4
:102AE8000D6E000E0E6E000E0F6E000E106EF4ECE2
:102AF8001AF001C029F002C02AF003C02BF004C06C
:102B08002CF005C02DF006C02EF007C02FF008C02D
:102B180030F029C013F02BC014F0DCEC23F0135074
:102B2800300FDF6E3306D8A034063506D8A0360637
:102B380039C001F03AC002F03BC003F03CC004F0D9
:102B48003DC005F03EC006F03FC007F040C008F0A9
:102B58000A0E096E000E0A6E000E0B6E000E0C6E49
:102B6800000E0D6E000E0E6E000E0F6E000E106E33
:102B780030EC1AF001C039F002C03AF003C03BF063
:102B880004C03CF005C03DF006C03EF007C03FF071
:102B980008C040F042BED9EF15F0425008E14104A8
:102BA800D8A0D9EF15F0DBEF15F00CEF16F039507F
:102BB8003A103B103C103D103E103F104010D8A476
:102BC800E8EF15F0EAEF15F052EF15F034BEF7EF25
:102BD80015F0345006E13304D8B0F5EF15F0F7EFEF
:102BE80015F052EF15F036BE02EF16F0365008E138
:102BF8003504D8A002EF16F004EF16F00CEF16F02B
:102C08000001D6B30AEF16F00CEF16F052EF15F0EC
:102C180037503810D8A413EF16F015EF16F01DEF43
:102C280016F00001D6A51BEF16F01DEF16F03BEFCE
:102C380016F04106D8A0420637503810D8A427EF1E
:102C480016F029EF16F02FEF16F0000E326E2B0E4D
:102C5800316E33EF16F0000E326E2D0E316E040E0B
:102C68004124D96E010E4220DA6E31C0DFFF1FC049
:102C780014F020C015F0040E4124166E010E4220F7
:102C8800176E35C018F036C019F0CEEC1FF014C01E
:102C98001FF015C020F01200C0C02AF0C1C02BF0F0
:102CA800C2C02CF0C3C02DF01AC02AF01BC02BF0F4
:102CB8001CC02CF01DC02DF0810E1E6EFF0E1F6E65
:102CC8002AC020F02BC021F02CC022F02DC023F008
:102CD800180E74EF16F0D8902332223221322032A7
:102CE800E82E6FEF16F020501E24286E000E1F20CD
:102CF800296E29BE89EF16F0295009E1170E285CC4
:102D0800D8A089EF16F08BEF16F095EF16F01AC0E1
:102D18001AF01BC01BF01CC01CF01DC01DF058EFA2
:102D280017F029BE9AEF16F09CEF16F00CEF17F08B
:102D380028C01EF0FF0E1F6EFF0E206E7F0E216E44
:102D4800000E226E1E66ABEF16F0B3EF16F02234BB
:102D58002232213220321F321E2EA6EF16F01FC05B
:102D680024F020C025F021C026F022C027F02450EE
:102D78002A141E6E25502B141F6E26502C14206EFC
:102D880027502D14216E1E501F1020102110D8A47A
:102D9800D0EF16F0D2EF16F0D4EF16F08BEF16F056
:102DA8002AC01EF02BC01FF02CC020F02DC021F02F
:102DB800200EE4EF16F0D890213220321F321E3256
:102DC800E82EDFEF16F01E501F1020102110D8B487
:102DD800F0EF16F0F2EF16F0FAEF16F024502A266C
:102DE80025502B2226502C2227502D22241C1E6EC3
:102DF800251C1F6E261C206E271C216E1E502A16AD
:102E08001F502B1620502C1621502D1650EF17F05E
:102E18002AC01EF02BC01FF02CC020F02DC021F0BE
:102E2800200E1CEF17F0D890213220321F321E32AC
:102E3800E82E17EF17F01E501F1020102110D8A4ED
:102E480028EF17F02AEF17F034EF17F0000E2A6E6C
:102E5800000E2B6E000E2C6E000E2D6E50EF17F02C
:102E6800D8902A341E6E2B341F6E2C34206E2D34CD
:102E7800216E1E501F1020102110D8B446EF17F0F5
:102E880048EF17F050EF17F0000E2A6E000E2B6E69
:102E9800800E2C6EBF0E2D6E2AC01AF02BC01BF0B0
:102EA8002CC01CF02DC01DF0120080B25EEF17F090
:102EB80060EF17F072EF17F0829C040E5C6E0C0E38
:102EC8005B6E340EE82EFED75B2EFCD75C2EFAD74D
:102ED800F29EF29493EC20F059EF18F0828C040ED5
:102EE8005C6E0C0E5B6E340EE82EFED75B2EFCD7A4
:102EF8005C2EFAD7C00EBBEC23F02F0E0001B06F8A
:102F0800080EB16F7EEC24F00B0E5C6E260E5B6E25
:102F18005E0EE82EFED75B2EFCD75C2EFAD7F28E1B
:102F2800F28C47EF18F080A69CEF17F09EEF17F091
:102F3800DEEF17F0E8C006F0E9C007F0000E096EF2
:102F48000A0E086E31EC20F006C0E2F007C0E3F08C
:102F5800E8C001F0E9C002F0000E046E0A0E036E2C
:102F6800EDEC20F001C0E0F002C0E1F0060E5C6E6E
:102F7800130E5B6EAE0EE82EFED75B2EFCD75C2ED2
:102F8800FAD7010E0001E825E86F000EE921E96F84
:102F9800E9BFD8EF17F0E95109E1180EE85DD8A0AC
:102FA800D8EF17F0DAEF17F0DEEF17F0000EE96F41
:102FB800000EE86F80AAE3EF17F0E5EF17F025EFB2
:102FC80018F0E6C006F0E7C007F0000E096E0A0E1A
:102FD800086E31EC20F006C0DEF007C0DFF0E6C076
:102FE80001F0E7C002F0000E046E0A0E036EEDEC6D
:102FF80020F001C0DCF002C0DDF0060E5C6E130E9E
:103008005B6EAE0EE82EFED75B2EFCD75C2EFAD791
:10301800010E0001E625E66F000EE721E76FE7BF26
:103028001FEF18F0E75109E13C0EE65DD8A01FEF4D
:1030380018F021EF18F025EF18F0000EE76F000EDA
:10304800E66FC00EBBEC23F0180E0001B06F080E3F
:10305800B16FE2C0B2F0E3C0B3F0E0C0B4F0E1C0D9
:10306800B5F0DEC0B6F0DFC0B7F0DCC0B8F0DDC048
:10307800B9F0DAC0BAF0DBC0BBF0D8C0BCF0D9C038
:10308800BDF07EEC24F080B24CEF18F04EEF18F053
:1030980097EF17F0000E0001DB6F000EDA6F000EDD
:1030A800D96F000ED86FF28EF28C1200000E166ED9
:1030B800000E156E000E0F6E000E0E6E66EF18F005
:1030C800084A092A010E146E08C0F6FF09C0F7FF66
:1030D800F86A070EF76403D00800F55005D0F6CF5C
:1030E800E1FFF7CFE2FFE750200AD8B47EEF18F0EF
:1030F80080EF18F0A7EF18F0F70E0A6EFF0E0B6EB0
:1031080008C0F6FF09C0F7FFF86A070EF76403D096
:103118000800F55005D0F6CFE1FFF7CFE2FFE75002
:103128000C6E0D6A0A500C260B500D220D5009E149
:10313800050E0C5CD8A0A3EF18F0A5EF18F0A7EFC8
:1031480018F0000E146E14C010F0116A105011100F
:10315800D8A4B1EF18F0B3EF18F064EF18F0BDEF92
:1031680018F0000E0F6E010E0E6E084A092A08EFBD
:1031780019F008C0F6FF09C0F7FFF86A070EF764F0
:1031880003D00800F55005D0F6CFE1FFF7CFE2FFF6
:10319800E7500A6E0B6A0B50000AD8B4D6EF18F045
:1031A80008EF19F00A502B0AD8B4B9EF18F0060A3C
:1031B800D8B4B5EF18F008EF19F015C001F016C033
:1031C80002F0000E046E0A0E036E91EC24F008C0A3
:1031D800F6FF09C0F7FFF86A070EF76403D0080086
:1031E800F55005D0F6CFE1FFF7CFE2FFE7500A6EC2
:1031F8000A50015E000E025A300E0124156E000EB0
:103208000220166EB9EF18F0D00E0A6EFF0E0B6E84
:1032180008C0F6FF09C0F7FFF86A070EF76403D085
:103228000800F55005D0F6CFE1FFF7CFE2FFE750F1
:103238000C6E0D6A0A500C260B500D220D500AE137
:103248000A0E0C5CD8A02BEF19F02EEF19F0010E26
:103258002FEF19F0000E126E136A12501310D8A433
:1032680038EF19F03AEF19F0E1EF18F00E500F109F
:10327800D8A441EF19F043EF19F051EF19F015C038
:103288000AF016C00BF00A1E0B1E0A4A0B2A0AC0C7
:1032980008F00BC009F055EF19F015C008F016C07A
:1032A80009F01200096E0950D8B45DEF19F05FEF0C
:1032B80019F081EF19F004BE66EF19F064EF19F008
:1032C80081EF19F001C005F002C006F003C007F055
:1032D80004C008F0051E061E071E081E052A000E5B
:1032E80006220722082205C00BF006C00CF007C012
:1032F8000DF008C00EF089EF19F001C00BF002C004
:103308000CF003C00DF004C00EF0015002100310C1
:103318000410D8A492EF19F094EF19F09EEF19F069
:10332800000E016E000E026E000E036E000E046E9B
:103338002FEF1AF0960E0A6EA8EF19F00A2AD89005
:103348000E320D320C320B32000E0B14056E000ECD
:103358000C14066E000E0D14076EFE0E0E14086E89
:103368000550061007100810D8A4BDEF19F0BFEFDC
:1033780019F0A2EF19F0CDEF19F00A2A010E0B2669
:10338800000E0C220D220E22D8900E320D320C3275
:103398000B32000E0B14056E000E0C14066E000E98
:1033A8000D14076EFF0E0E14086E05500610071058
:1033B8000810D8A4E2EF19F0E4EF19F0C1EF19F002
:1033C800ECEF19F00A06D8900B360C360D360E368F
:1033D8000DBEF1EF19F0F3EF19F0FBEF19F0020E43
:1033E8000A60F9EF19F0FBEF19F0E6EF19F00AB0EF
:1033F80000EF1AF002EF1AF003EF1AF00D9ED890C2
:103408000A320AC005F0066A076A086A05C008F0A9
:10341800076A066A056A05500B1206500C12075017
:103428000D1208500E120950D8B41DEF1AF01FEFF4
:103438001AF027EF1AF004BE26EF1AF024EF1AF05C
:1034480027EF1AF00E8E0BC001F00CC002F00DC071
:1034580003F00EC004F01200000E126E10BE39EF19
:103468001AF037EF1AF04BEF1AF0101E0F1E0E1E4F
:103478000D1E0C1E0B1E0A1E096C000E0A220B22C2
:103488000C220D220E220F221022010E126E08BEEF
:1034980052EF1AF050EF1AF064EF1AF0081E071EE8
:1034A800061E051E041E031E021E016C000E0222CB
:1034B800032204220522062207220822010E121ADC
:1034C80020EE13F0070EDE6AE806FDE209500A1046
:1034D8000B100C100D100E100F101010D8B477EF41
:1034E8001AF079EF1AF0CBEF1AF0010E116E87EF90
:1034F8001AF0D89009360A360B360C360D360E36C9
:103508000F361036112A10AE8CEF1AF08EEF1AF023
:103518007DEF1AF0D890133614361536163617364E
:10352800183619361A360950015C0A5002580B50E1
:1035380003580C5004580D5005580E5006580F509B
:10354800075810500858D8A0ACEF1AF0AEEF1AF090
:10355800BFEF1AF00950015E0A50025A0B50035A85
:103568000C50045A0D50055A0E50065A0F50075A5F
:103578001050085A1380D89010320F320E320D3284
:103588000C320B320A320932112E8EEF1AF0125019
:10359800D8B4D1EF1AF0D3EF1AF0E3EF1AF01A1EED
:1035A800191E181E171E161E151E141E136C000E4B
:1035B8001422152216221722182219221A2213C0A1
:1035C80001F014C002F015C003F016C004F017C0D3
:1035D80005F018C006F019C007F01AC008F012006C
:1035E800000E126E08BEFDEF1AF0FBEF1AF00FEF97
:1035F8001BF0081E071E061E051E041E031E021EC3
:10360800016C000E02220322042205220622072250
:103618000822010E126E10BE16EF1BF014EF1BF0FD
:1036280026EF1BF0101E0F1E0E1E0D1E0C1E0B1E6D
:103638000A1E096C000E0A220B220C220D220E22F1
:103648000F22102209500A100B100C100D100E102A
:103658000F101010D8B433EF1BF035EF1BF07DEFCF
:103668001BF0010E116E43EF1BF0D89009360A3695
:103678000B360C360D360E360F361036112A10AEB4
:1036880048EF1BF04AEF1BF039EF1BF00950015CC3
:103698000A5002580B5003580C5004580D50055846
:1036A8000E5006580F50075810500858D8A05FEF12
:1036B8001BF061EF1BF071EF1BF00950015E0A501F
:1036C800025A0B50035A0C50045A0D50055A0E500A
:1036D800065A0F50075A1050085AD89010320F3215
:1036E8000E320D320C320B320A320932112E4AEFE9
:1036F8001BF01250D8B483EF1BF085EF1BF095EF49
:103708001BF0081E071E061E051E041E031E021EB1
:10371800016C000E0222032204220522062207223F
:10372800082201C001F002C002F003C003F004C087
:1037380004F005C005F006C006F007C007F008C091
:1037480008F01200033404340A6E0A50D8A4AFEF0C
:103758001BF0B1EF1BF0BBEF1BF0000E016E000E6B
:10376800026E000E036E000E046E28EF1CF001C0FE
:1037780005F002C006F003C007F004C008F0200EF0
:10378800CBEF1BF0D8900832073206320532E82E0C
:10379800C6EF1BF00550096E038EFF0E0116FF0ED3
:1037A8000216FF0E0316000E0416960E0A5E0ABED7
:1037B800E2EF1BF0E0EF1BF0F8EF1BF00A50800A75
:1037C800970FD8B0EAEF1BF0ECEF1BF0EEEF1BF011
:1037D800B1EF1BF0D89004320332023201320A3EB4
:1037E800EEEF1BF010EF1CF01F0E0A64FEEF1BF04B
:1037F80000EF1CF008EF1CF0B1EF1BF0D890013679
:103808000236033604360A060A50D8A40EEF1CF016
:1038180010EF1CF002EF1CF00950D8B416EF1CF0A2
:1038280018EF1CF020EF1CF0041E031E021E016C92
:10383800000E02220322042201C001F002C002F09D
:1038480003C003F004C004F012000001F251E219B1
:1038580007E1F351E319D8A434EF1CF036EF1CF05C
:103868009CEF1CF0F451E01907E1F551E119D8A4D7
:1038780040EF1CF042EF1CF09CEF1CF0EE51DE19FB
:1038880007E1EF51DF19D8A44CEF1CF04EEF1CF004
:103898009CEF1CF0F051DC1907E1F151DD19D8A4B7
:1038A80058EF1CF05AEF1CF09CEF1CF0EA51DA19A3
:1038B80007E1EB51DB19D8A464EF1CF066EF1CF0AC
:1038C8009CEF1CF0EC51D81907E1ED51D919D8A497
:1038D80070EF1CF072EF1CF09CEF1CF00A0E036EE8
:1038E80092EF1CF08168020E026E040E016EBA0E91
:1038F800E82EFED7012EFCD7022EFAD700D0000EF4
:10390800816E020E026E040E016EBA0EE82EFED70C
:10391800012EFCD7022EFAD700D003060350D8A4F4
:1039280098EF1CF09AEF1CF076EF1CF0AAEF1CF051
:10393800000E816E020E026E040E016EBA0EE82EA3
:10394800FED7012EFCD7022EFAD700D01200000EA7
:103958002814306E000E2914316E800E2A14326E2F
:103968007F0E2B14336E3050311032103310D8A420
:10397800C0EF1CF0C2EF1CF0CAEF1CF0000E286E5E
:10398800000E296E000E2A6E000E2B6E000E2C14EF
:10399800306E000E2D14316E800E2E14326E7F0E96
:1039A8002F14336E3050311032103310D8A4DFEF9B
:1039B8001CF0E1EF1CF0E9EF1CF0000E2C6E000E7D
:1039C8002D6E000E2E6E000E2F6E2BAEEEEF1CF03D
:1039D800F0EF1CF0F9EF1CF0286C291ED8B0292A4A
:1039E8002A1ED8B02A2A800E2B562FAEFEEF1CF0C6
:1039F80000EF1DF009EF1DF02C6C2D1ED8B02D2AFC
:103A08002E1ED8B02E2A800E2F56000E281A000E11
:103A1800291A000E2A1A800E2B1A000E2C1A000ED4
:103A28002D1A000E2E1A800E2F1A2C50285C2D509D
:103A380029582E502A582F502B58D8B026EF1DF051
:103A480028EF1DF02BEF1DF0D8902CEF1DF0D8803B
:103A58001200C4C00BF0C5C00CF0C6C00DF0C7C042
:103A68000EF001C00BF002C00CF003C00DF004C052
:103A78000EF00BC005F00CC006F00DC007F00EC02C
:103A880008F0180E4DEF1DF0D890083207320632B4
:103A98000532E82E48EF1DF00550096E0A6A0950F4
:103AA8000A10D8A45AEF1DF05CEF1DF07CEF1DF052
:103AB800D8900B34056E0C34066E0D34076E0E3438
:103AC800086E0550061007100810D8A46EEF1DF0F8
:103AD80070EF1DF076EF1DF0000E026E020E016E03
:103AE800ABEF1DF0000E026E030E016EABEF1DF082
:103AF80009280A10D8A483EF1DF085EF1DF0A7EF61
:103B08001DF00BC005F00CC006F00DC007F00EC08C
:103B180008F0090ED8900536063607360836E82E1E
:103B28008EEF1DF00550061007100810D8B49FEF4F
:103B38001DF0A2EF1DF0010EA3EF1DF0000E016EA7
:103B4800026AABEF1DF0000E026E040E016E120049
:103B5800F8C006F0F9C007F0000E096E0A0E086EEC
:103B680031EC20F006C0F2F007C0F3F0F8C001F025
:103B7800F9C002F0000E046E0A0E036EEDEC20F0A0
:103B880001C0F4F002C0F5F0FAC006F0FBC007F07F
:103B9800000E096E0A0E086E31EC20F006C0EEF039
:103BA80007C0EFF0FAC001F0FBC002F0000E046E8F
:103BB8000A0E036EEDEC20F001C0F0F002C0F1F047
:103BC800F6C006F0F7C007F0000E096E0A0E086E80
:103BD80031EC20F006C0EAF007C0EBF0F6C001F0C7
:103BE800F7C002F0000E046E0A0E036EEDEC20F032
:103BF80001C0ECF002C0EDF0C00EBBEC23F0010EEA
:103C08000001B06F080EB16FF2C0B2F0F3C0B3F0AC
:103C1800F4C0B4F0F5C0B5F0EEC0B6F0EFC0B7F040
:103C2800F0C0B8F0F1C0B9F0EAC0BAF0EBC0BBF030
:103C3800ECC0BCF0EDC0BDF07EEC24F01200000E2C
:103C480019EC22F001C006F002C007F0000E096E60
:103C5800400E086E31EC20F006C0FEF007C0FFF001
:103C6800CD0E0001CC6F0C0ECD6FFA0ECE6F3E0E4E
:103C7800CF6FFEC001F0FFC002F0000E02BEFF0EC3
:103C8800036E046E010E56EC19F001C00FF002C06D
:103C980010F003C011F004C012F0CCC013F0CDC076
:103CA80014F0CEC015F0CFC016F0FCEC10F00FC029
:103CB800C8F010C0C9F011C0CAF012C0CBF0800E15
:103CC800BBEC23F0540E0001B06F010EB16F410E32
:103CD800B26F080EB36FC8C0B4F0C9C0B5F0CAC09F
:103CE800B6F0CBC0B7F0000EB96FDF0EB86F08ECB6
:103CF80023F00B0E0001BF6F260EBE6F5D0EE82E7F
:103D0800FED7BE2FFCD7BF2FFAD700D0540E000124
:103D1800B06F010EB16F7EEC24F012000001D25199
:103D2800D311D8A49AEF1EF09CEF1EF0A2EF1EF05C
:103D3800D2C013F0D3C014F0A8EF1EF0FF0ED225A6
:103D4800136EFF0ED321146ED6A1ADEF1EF0AFEFA8
:103D58001EF0B8EF1EF00FC004F0056A0DC006F0A3
:103D68000EC007F069EC1FF014BEBDEF1EF0BFEFE8
:103D78001EF0C1EF1EF0C5EF1EF0000E146E000E0F
:103D8800136E000E126E000E116ED7EF1EF0000EAD
:103D9800056E200E046E0DC006F00EC007F069EC2B
:103DA8001FF0114A122A1350115C1250800A106E2B
:103DB8001450800A1058D8A0E4EF1EF0E6EF1EF069
:103DC800CBEF1EF00001D6B1ECEF1EF0EEEF1EF0C7
:103DD800F7EF1EF00FC004F0056A0DC006F00EC024
:103DE80007F069EC1FF0010E11240D6E000E122071
:103DF8000E6E120001C008F002C009F003C00AF0FC
:103E080004C00BF00506D8A00606052806E106281A
:103E1800D8A411EF1FF013EF1FF020EF1FF0000ED2
:103E2800026E000E016E68EF1FF0084A092A0A4A5E
:103E38000B2A0506D8A0060608C0D9FF09C0DAFF74
:103E4800DF50D8B42AEF1FF02CEF1FF057EF1FF008
:103E58000AC0F6FF0BC0F7FF0800F5500009D8B4F8
:103E680038EF1FF03AEF1FF057EF1FF0055006101C
:103E7800D8B441EF1FF043EF1FF057EF1FF008C011
:103E8800D9FF09C0DAFFDF50076E0AC0F6FF0BC082
:103E9800F7FF0800F5500718D8B455EF1FF057EF93
:103EA8001FF019EF1FF008C0D9FF09C0DAFFDF5073
:103EB800076E0AC0F6FF0BC0F7FF0800F550075C55
:103EC800016E026AD8A00206120006500710D8B484
:103ED80070EF1FF072EF1FF07BEF1FF00650071016
:103EE800D8A479EF1FF07BEF1FF080EF1FF004508C
:103EF80076EC23F0CDEF1FF020EE04F00650D92623
:103F08000750DA22DE50DE10D8B48DEF1FF08FEFA5
:103F18001FF0AAEF1FF020EE04F00650D926075034
:103F2800DA2210EE02F00650E1260750E222DE50B7
:103F3800E65CE650800A0C6EDE50800A0C58D8B059
:103F4800A8EF1FF0AAEF1FF0CDEF1FF020EE02F050
:103F58000650D9260750DA22DECF08F0DDCF09F067
:103F680006C0D9FF07C0DAFFDECF0AF0DDCF0BF0BD
:103F780008500A24D96E09500B20DA6E04C0DFFFFE
:103F880020EE02F00650D9260750DA22DE2A000E6B
:103F9800DD2212000001D6A1D4EF1FF0D6EF1FF0EA
:103FA800E0EF1FF016C00DF017C00EF014C00FF0B0
:103FB80015C010F099EC23F019BEE5EF1FF0E7EFFC
:103FC8001FF0EDEF1FF018C01DF019C01EF0F1EF43
:103FD8001FF0000E1E6E000E1D6E000E1C6E000EF1
:103FE8001B6E03EF20F0000E056E200E046E14C049
:103FF80006F015C007F069EC1FF01B4A1C2A1D507B
:104008001B5C1C50800A1A6E1E50800A1A58D8A0D1
:1040180010EF20F012EF20F0F7EF1FF00001D6B1FB
:1040280018EF20F01AEF20F024EF20F016C00DF062
:1040380017C00EF014C00FF015C010F099EC23F063
:1040480016C001F017C002F050EC24F01D500124F6
:10405800146E1E500220156E1200000E0B6E09BE63
:104068003AEF20F038EF20F040EF20F0086C091EFE
:10407800D8B0092A010E0B6E07BE47EF20F045EFB6
:1040880020F04DEF20F0066C071ED8B0072A010E6D
:104098000B1A000E0D6E000E0C6E08500910D8B4E5
:1040A80058EF20F05AEF20F082EF20F0010E0A6E50
:1040B80062EF20F0D890083609360A2A09AE67EF71
:1040C80020F069EF20F05EEF20F0D8900C360D3626
:1040D8000850065C09500758D8A075EF20F077EF14
:1040E80020F07CEF20F00850065E0950075A0C803B
:1040F800D890093208320A2E69EF20F00B50D8B454
:1041080088EF20F08AEF20F08EEF20F00C6C0D1E67
:10411800D8B00D2A0CC006F00DC007F01200ACECA8
:104128001DF0010E0001F625F66F000EF721F76F5E
:10413800F7BFA8EF20F0F75109E13C0EF65DD8A0D3
:10414800A8EF20F0AAEF20F0DEEF20F0000EF76FC6
:10415800000EF66F010EFA25FA6F000EFB21FB6FB9
:10416800FBBFC0EF20F0FB5109E13C0EFA5DD8A07F
:10417800C0EF20F0C2EF20F0DEEF20F0000EFB6F62
:10418800000EFA6F010EF825F86F000EF921F96F8D
:10419800F9BFD8EF20F0F95109E1180EF85DD8A061
:1041A800D8EF20F0DAEF20F0DEEF20F0000EF96F04
:1041B800000EF86FD668F28EF28C0B0E5A6E260E31
:1041C800596E5E0EE82EFED7592EFCD75A2EFAD716
:1041D8001200000E066E02BEF6EF20F0F4EF20F09B
:1041E800FCEF20F0016C021ED8B0022A010E066E08
:1041F80004BE03EF21F001EF21F007EF21F0036C7B
:10420800041ED8B0042A03500410D8B40EEF21F0CD
:1042180010EF21F034EF21F0010E056E18EF21F0B8
:10422800D89003360436052A04AE1DEF21F01FEF9F
:1042380021F014EF21F00350015C04500258D8A07B
:1042480028EF21F02AEF21F02EEF21F00350015E34
:104258000450025AD89004320332052E1FEF21F081
:104268000650D8B43AEF21F03CEF21F040EF21F0AE
:10427800016C021ED8B0022A01C001F002C002F08F
:104288001200000E0114096E000E02140A6E800E50
:1042980003140B6E7F0E04140C6E09500A100B10D9
:1042A8000C10D8A45AEF21F05CEF21F064EF21F054
:1042B800000E016E000E026E000E036E000E046EFC
:1042C800000E0514096E000E06140A6E800E0714FF
:1042D8000B6E7F0E08140C6E09500A100B100C1090
:1042E800D8A479EF21F07BEF21F083EF21F0000EC5
:1042F800056E000E066E000E076E000E086E055065
:1043080001180FE1065002180CE10750031809E1E3
:1043180008500418D8B493EF21F095EF21F098EFE6
:1043280021F0D89099EF21F0D8801200820E046E07
:10433800DE0EE82EFED7042EFCD7020EBBEC23F0CF
:10434800030E046E980EE82EFED7042EFCD7280E16
:10435800BBEC23F0030E046E980EE82EFED7042E55
:10436800FCD72C0EBBEC23F0030E046E980EE82E3F
:10437800FED7042EFCD70C0EBBEC23F0030E046E04
:10438800980EE82EFED7042EFCD7060EBBEC23F0C1
:10439800030E046E980EE82EFED7042EFCD7800E6E
:1043A800BBEC23F0030E046E980EE82EFED7042E05
:1043B800FCD712004FC053F050C054F0000E00015B
:1043C800D16F000ED06FFCEF21F04DC043F04EC00E
:1043D80044F0530E456E000E466E51C047F052C071
:1043E80048F060EC0AF043500001D0274450D12334
:1043F80053C0F6FF54C0F7FFF86A070EF76403D0FE
:104408000800F55005D0F6CFE1FFF7CFE2FFE750FF
:104418000009D8A412EF22F014EF22F0E9EF21F0FE
:10442800D0C04DF0D1C04EF01200056EF30EC1168B
:10443800FC0EC116830EC216C250830B0809C26E49
:104448002AEF22F0020EC26E3BEF22F00550036EF7
:10445800046A0450000AD8B434EF22F03BEF22F08B
:104468000350000AD8B426EF22F03BEF22F0210EC9
:10447800C06EC280C282C2B244EF22F046EF22F080
:104488003FEF22F0C450046E036AC3500324016E48
:10449800000E0420026E1200036E03B002D08C9846
:1044A80001D08C8803C002F0D8900232023A02464A
:1044B8008C500218DF0B02188C6E03C002F0D890E3
:1044C8000232D8900232023A024602468C50021852
:1044D800BF0B02188C6E03C002F0D8900232D8903D
:1044E8000232D8900232023202328C5002187F0B0C
:1044F80002188C6ECEEC24F01200BF0E096EFF0E6F
:104508000A6E07C00BF008C00CF009500B260A50C1
:104518000C220C500AE11A0E0B5CD8A096EF22F080
:1045280099EF22F0010E9AEF22F0000E0D6E0E6A3E
:104538000D500E10D8B4A3EF22F0A5EF22F0ACEF87
:1045480022F0200E0710076E0850086EB0EF22F018
:1045580007C007F008C008F0120003C007F004C045
:1045680008F001C009F002C00AF00750056E0850B3
:10457800066E074A082A05C0F6FF06C0F7FFF86A64
:1045880009C0D9FF0AC0DAFF094A0A2A070EF764E8
:1045980003D00800F55005D0F6CFE1FFF7CFE2FFD2
:1045A800E750DF6EDF50D8A4DCEF22F0DEEF22F018
:1045B800B9EF22F01200010E076E200E011802104A
:1045C800D8B4E9EF22F0EBEF22F004EF23F0F70E76
:1045D800036EFF0E046E01C005F002C006F0035022
:1045E800052604500622065009E1050E055CD8A0F0
:1045F80000EF23F002EF23F004EF23F0000E076E24
:1046080007C001F0026A1200B40E576E000E586E11
:10461800B0C059F0B1C05AF0000E5C6E000E5B6E6F
:10462800000E5E6E000E5D6E590E4D6E000E4E6EE3
:10463800B2C04FF0B3C050F0570E516E000E526E1C
:10464800DEEC21F05B500001B025D96E5C50B12141
:10465800DA6E000EDF6E12006BEC24F0B5EC24F07D
:104668009AEC21F0010EC2EC24F00C0EC2EC24F0FE
:10467800000E0001F96F0C0EF86F000EFB6F3B0E79
:10468800FA6F000EF76F320EF66F23EC1EF059EC3E
:1046980017F029EC1CF049EF23F000EF00F0000EB2
:1046A8002C1A000E2D1A000E2E1A800E2F1A28C052
:1046B80001F029C002F02AC003F02BC004F02CC07E
:1046C80005F02DC006F02EC007F02FC008F09CECB6
:1046D8000EF001C028F002C029F003C02AF004C07F
:1046E8002BF01200026E0250F00B036E0350050906
:1046F8008C6E060EE82EFED700D0035001098C6E92
:10470800030E016E980EE82EFED7012EFCD7023854
:10471800F00B036E035005098C6E060EE82EFED7CB
:1047280000D0035001098C6E1200000E136E000EAB
:10473800126EAAEF23F011C004F0056A0FC006F04C
:1047480010C007F069EC1FF0124A132A12500D240A
:10475800D96E13500E20DA6EDF50116E1150D8A4A6
:10476800B8EF23F0BAEF23F09FEF23F01200026EA8
:104778000250F00B036E035004098C6E060EE82EEF
:10478800FED700D003C08CFF030E016E980EE82EF2
:10479800FED7012EFCD70238F00B036E0350040934
:1047A8008C6E060EE82EFED700D003C08CFF1200D8
:1047B80014BEE9EF23F0145006E11304D8B0E7EF74
:1047C80023F0E9EF23F0F7EF23F013C015F014C03E
:1047D80016F0151E161E154A162A15C013F016C017
:1047E80014F0FBEF23F013C013F014C014F0120000
:1047F800BF0E036EFF0E046E01C005F002C006F086
:10480800035005260450062206500AE11A0E055CDC
:10481800D8A011EF24F014EF24F0010E15EF24F0C6
:10482800000E016E026A12000150021003100410FB
:10483800D8B421EF24F023EF24F02BEF24F0000E5E
:10484800011A000E021A000E031A800E041A01C083
:1048580001F002C002F003C003F004C004F012002B
:10486800D00E036EFF0E046E01C005F002C006F004
:10487800035005260450062206500AE10A0E055C7C
:10488800D8A049EF24F04CEF24F0010E4DEF24F0AE
:10489800000E016E026A120001C003F002C004F0AB
:1048A80058EF24F0014A022A01C0D9FF02C0DAFFFA
:1048B800DF50D8A462EF24F064EF24F056EF24F020
:1048C8000350015C016E04500258026E1200926897
:1048D800000E956E6C0ED36E0F015B975B935B9B1E
:1048E800949C5D9D8B9C000E936E000E5C6F000E79
:1048F8008A6E1200B20E576E000E586E000E4D6E84
:10490800000E4E6EB0C04FF0B1C050F0570E516E51
:10491800000E526EDEEC21F0120001500302F3CFBC
:1049280005F0F4CF06F001500402F35006260250B9
:104938000302F350062605C001F006C002F012007B
:1049480001EE00F0640EEE6AE806FDE100EEC0F04C
:10495800400EEE6AE806FDE1000EF86E000130EF49
:1049680023F0D58CD58AD598D586F80ED516D66875
:10497800D58EF28EF28CF28AF2941200046E8C902C
:1049880004380F0B0F0B50EC22F004500F0B50ECB7
:1049980022F012008C84030E016E980EE82EFED7CA
:0849A800012EFCD78C941200D3
:020000040020DA
:08000000FFFFFFFFFFFFFFFF00
:020000040030CA
:0E00000000285F3CFFD381FF0FC00FE00F40D0
:00000001FF
