:020000040000FA
:04000000C4EF3FF01A
:107F88000001C7EF3FF0000E926E000E0F015B6F0D
:107F9800010E806EA30E016E550EE82EFED7012E3F
:107FA800FCD700F0DDEF3FF080508024806ECEEFEC
:107FB8003FF0070E8060E3EF3FF0E5EF3FF0D8EFCA
:107FC8003FF0A30E016E550EE82EFED7012EFCD70A
:107FD80000F0F4EF3FF0D8908030806EE5EF3FF08E
:107FE8008050D8B4FAEF3FF0FCEF3FF0EFEF3FF0EE
:087FF800CCEF3FF000EF00F0B8
:020000040020DA
:08000000FFFFFFFFFFFFFFFF00
:020000040030CA
:0E00000000285F3CFFD381FF0FC00FE00F40D0
:00000001FF
