:020000040000FA
:0400000024EF28F0D1
:1008000000256425643A256425643A25642564201E
:10081000412E4D00256425643A256425643A2564FB
:10082000256420502E4D002043616C6F7220457866
:100830007472656D6F21200054656D702E203D250A
:10084000332E32662025634300204672696F2045AF
:10085000787472656D6F212000204D6F646F2041A8
:100860006C61726D612000494E46004E414E006938
:0B0870006E66006E616E006C6600009A
:10087C00000E00017B6F000E7A6F48C08CF049C0EF
:10088C008DF04AC08EF04BC08FF08FBF52EF04F04A
:10089C0050EF04F068EF04F0000E7B6F010E7A6FDE
:1008AC008CC001F08DC002F08EC003F08FC004F03C
:1008BC0097EC27F001C08CF002C08DF003C08EF0D5
:1008CC0004C08FF0000E0001936F000E926FD4C025
:1008DC007EF0D5C07FF07A517B11D8A478EF04F06C
:1008EC007AEF04F081EF04F0D8A57FEF04F081EFEC
:1008FC0004F09BEF04F07A517B11D8A488EF04F03C
:10090C008AEF04F090EF04F0000E616F2B0E606F15
:10091C0094EF04F0000E616F2D0E606F60C020F13B
:10092C00924B932B7E07D8A07F078CC001F08DC013
:10093C0002F08EC003F08FC004F06AEC21F00104C9
:10094C000210D8A4ACEF04F0AEEF04F005EF05F004
:10095C00BF0E4D6EFF0E4E6E4C504F6E506A4D508A
:10096C004F264E50502250500AE11A0E4F5CD8A020
:10097C00C2EF04F0C5EF04F0010EC6EF04F0000E58
:10098C000001626F636B62516311D8B4D0EF04F055
:10099C00D2EF04F0E0EF04F0200E9225016E010E70
:1009AC009321026E670E036E080E046E2FEC26F078
:1009BC00ECEF04F0200E9225016E010E9321026ED5
:1009CC006F0E036E080E046E2FEC26F00001FD0E68
:1009DC007E27FF0E7F2346C014F047C015F0200E73
:1009EC00166E010E176E7EC018F07FC019F025EC44
:1009FC0023F014C046F015C047F069EF0AF08CC024
:100A0C0001F08DC002F08EC003F08FC004F06AECD0
:100A1C0021F001500210D8A416EF05F018EF05F0E4
:100A2C0058EF05F0BF0E4D6EFF0E4E6E4C504F6ED4
:100A3C00506A4D504F264E50502250500AE11A0E1B
:100A4C004F5CD8A02CEF05F02FEF05F0010E30EF26
:100A5C0005F0000E0001646F656B64516511D8B42C
:100A6C003AEF05F03CEF05F04AEF05F0200E922529
:100A7C00016E010E9321026E6B0E036E080E046E56
:100A8C002FEC26F0ECEF04F0200E9225016E010EF7
:100A9C009321026E730E036E080E046E2FEC26F07B
:100AAC00ECEF04F0000E0001946F000E956F800EB9
:100ABC00966F3F0E976F000E916F000E906F8CC06B
:100ACC0001F08DC002F08EC003F08FC004F0000E58
:100ADC00056E000E066E000E076E000E086E42ECE0
:100AEC0024F0D8B07CEF05F07EEF05F001EF06F0B6
:100AFC009DEF05F094C019F095C01AF096C01BF04C
:100B0C0097C01CF0000E1D6E000E1E6E200E1F6E88
:100B1C00410E206E3FEC13F019C094F01AC095F002
:100B2C001BC096F01CC097F00001904B912B8CC011
:100B3C003AF08DC03BF08EC03CF08FC03DF0000E03
:100B4C001D6E000E1E6E200E1F6E410E206E94C088
:100B5C0019F095C01AF096C01BF097C01CF03FEC32
:100B6C0013F019C03EF01AC03FF01BC040F01CC07F
:100B7C0041F0E8EC20F0D8B0C6EF05F0C8EF05F076
:100B8C0080EF05F0E8EF05F094C001F095C002F09D
:100B9C0096C003F097C004F0000E056E000E066EB2
:100BAC00200E076E410E086E54EC15F001C094F047
:100BBC0002C095F003C096F004C097F000019007B6
:100BCC00D8A091078CC03AF08DC03BF08EC03CF0A1
:100BDC008FC03DF094C03EF095C03FF096C040F001
:100BEC0097C041F0E8EC20F0D8A0FFEF05F001EF42
:100BFC0006F0CAEF05F04CC007F0086AFFEC25F0D0
:100C0C0007500001816F81C080F0670E8119D8A454
:100C1C0012EF06F014EF06F03AEF06F0D651D711AA
:100C2C00D8A41BEF06F01DEF06F021EF06F0000E26
:100C3C00D76F010ED66FD7BF2EEF06F0D75106E156
:100C4C00D605D8B02CEF06F02EEF06F034EF06F0F8
:100C5C00000E7D6F060E7C6F43EF06F0D6C07CF065
:100C6C00D7C07DF043EF06F0D7BF3FEF06F041EF62
:100C7C0006F02EEF06F034EF06F0670E8119D8A4BB
:100C8C004AEF06F04CEF06F07BEF06F091AF5AEF0F
:100C9C0006F0FC0E905DFF0E9159D8A058EF06F0AF
:100CAC005AEF06F079EF06F0FF0E4D6EFF0E4E6E0A
:100CBC007CC04FF07DC050F04D504F264E5050220E
:100CCC0090514F5C5050800A516E9151800A51588E
:100CDC00D8A073EF06F075EF06F079EF06F0660E0C
:100CEC00806F7BEF06F0650E806F7CC072F07DC06C
:100CFC0073F0670E8119D8A486EF06F088EF06F022
:100D0C0098EF06F0660E8019D8A48FEF06F091EFDD
:100D1C0006F09AEF06F091BF98EF06F096EF06F00A
:100D2C009AEF06F0724B732B660E8019D8A4A1EFC4
:100D3C0006F0A3EF06F0C3EF06F091BFAAEF06F0A2
:100D4C00A8EF06F0B6EF06F0000E946F000E956F4C
:100D5C00800E966F3F0E976F000E916F000E906F86
:100D6C00670E8119D8B4BDEF06F0BFEF06F0C3EFE4
:100D7C0006F09051722791517323000E8B6F000E69
:100D8C008A6F8CC082F08DC083F08EC084F08FC0CF
:100D9C0085F094C074F095C075F096C076F097C04D
:100DAC0077F054EF07F082C001F083C002F084C0EA
:100DBC0003F085C004F094C005F095C006F096C011
:100DCC0007F097C008F054EC15F001C01AF002C0FF
:100DDC001BF003C01CF004C01DF0E4EC1AF01AC0A8
:100DEC0086F01BC087F01CC088F01DC089F086C03F
:100DFC0001F087C002F088C003F089C004F0E3EC76
:100E0C001FF001C078F002C079F082C032F083C0CC
:100E1C0033F084C034F085C035F094C01DF095C01B
:100E2C001EF096C01FF097C020F086C019F087C046
:100E3C001AF088C01BF089C01CF03FEC13F019C0ED
:100E4C0036F01AC037F01BC038F01CC039F0D2ECA9
:100E5C0026F032C082F033C083F034C084F035C049
:100E6C0085F094C001F095C002F096C003F097C0D5
:100E7C0004F0000E056E000E066E200E076E410E7D
:100E8C00086E54EC15F001C094F002C095F003C04C
:100E9C0096F004C097F000018A4B8B2B72518A5D3F
:100EAC008B51800A4D6E7351800A4D58D8A061EF5A
:100EBC0007F063EF07F0D9EF06F094C019F095C076
:100ECC001AF096C01BF097C01CF0000E1D6E000EA1
:100EDC001E6EA00E1F6E400E206E3FEC13F019C05C
:100EEC0086F01AC087F01BC088F01CC089F082C045
:100EFC003AF083C03BF084C03CF085C03DF086C026
:100F0C003EF087C03FF088C040F089C041F0E8EC6B
:100F1C0020F0D8B094EF07F096EF07F0A1EF07F0B0
:100F2C00000E0001866F000E876F000E886F000E9A
:100F3C00896FCAEF07F082C001F083C002F084C051
:100F4C0003F085C004F086C005F087C006F088C0A9
:100F5C0007F089C008F042EC24F0D8A0B8EF07F0F5
:100F6C00BAEF07F0CAEF07F0000178B1C0EF07F055
:100F7C00C2EF07F0CAEF07F0000E866F000E876F06
:100F8C00000E886F000E896F8CC001F08DC002F0CE
:100F9C008EC003F08FC004F086C005F087C006F049
:100FAC0088C007F089C008F0A6EC0EF001C082F0F2
:100FBC0002C083F003C084F004C085F082C03AF014
:100FCC0083C03BF084C03CF085C03DF0000E1D6E2C
:100FDC00000E1E6E200E1F6E410E206E74C019F096
:100FEC0075C01AF076C01BF077C01CF03FEC13F004
:100FFC0019C03EF01AC03FF01BC040F01CC041F0BD
:10100C00E8EC20F0D8A00DEF08F00FEF08F038EF67
:10101C0008F00001904B912B74C019F075C01AF0B8
:10102C0076C01BF077C01CF0000E1D6E000E1E6EFD
:10103C00200E1F6E410E206E3FEC13F019C074F0A1
:10104C001AC075F01BC076F01CC077F0660E00015C
:10105C008019D8A434EF08F036EF08F038EF08F018
:10106C00724B732B74C094F075C095F076C096F0EB
:10107C0077C097F0650E00018019D8B448EF08F0DE
:10108C004AEF08F050EF08F090C070F091C071F08A
:10109C0054EF08F0000E716F000E706F000E6F6F42
:1010AC00000E6E6F000E6D6F000E6C6F000E8B6F6E
:1010BC00000E8A6F4FEF09F082C001F083C002F07E
:1010CC0084C003F085C004F094C005F095C006F010
:1010DC0096C007F097C008F054EC15F001C01AF058
:1010EC0002C01BF003C01CF004C01DF0E4EC1AF0AD
:1010FC001AC086F01BC087F01CC088F01DC089F098
:10110C0086C001F087C002F088C003F089C004F0EB
:10111C00E3EC1FF001C078F002C079F00001D8B9FF
:10112C009AEF08F09CEF08F0B9EF08F078517911BC
:10113C00D8A4A3EF08F0A5EF08F0B9EF08F0670EFC
:10114C008119D8A4ACEF08F0AEEF08F0B9EF08F0B5
:10115C0071BFB5EF08F0B3EF08F0B9EF08F06C4BC6
:10116C006D2B03EF09F06E516F11D8A4C0EF08F08E
:10117C00C2EF08F0ECEF08F071BFC9EF08F0C7EF51
:10118C0008F0ECEF08F0200E9225D96E010E932199
:10119C00DA6E2E0EDF6E924B932B7E07D8A07F0754
:1011AC00000E6F6F010E6E6FECEF08F0200E9225A3
:1011BC00D96E010E9321DA6E300EDF6E924B932BAB
:1011CC007E07D8A07F076C07D8A06D076C516D11F6
:1011DC00D8A4F3EF08F0F5EF08F0DCEF08F0200EE0
:1011EC009225D96E010E9321DA6E7851300FDF6E95
:1011FC00924B932B7E07D8A07F0782C032F083C01E
:10120C0033F084C034F085C035F094C01DF095C027
:10121C001EF096C01FF097C020F086C019F087C052
:10122C001AF088C01BF089C01CF03FEC13F019C0F9
:10123C0036F01AC037F01BC038F01CC039F0D2ECB5
:10124C0026F032C082F033C083F034C084F035C055
:10125C0085F094C001F095C002F096C003F097C0E1
:10126C0004F0000E056E000E066E200E076E410E89
:10127C00086E54EC15F001C094F002C095F003C058
:10128C0096F004C097F000017007D8A071078A4B44
:10129C008B2B72518A5D8B51800A4D6E7351800A73
:1012AC004D58D8B05CEF09F05EEF09F06CEF09F027
:1012BC0093BF6AEF09F0935109E14B0E925DD8A0F0
:1012CC006AEF09F06CEF09F062EF08F06E516F11E4
:1012DC00D8A473EF09F075EF09F086EF09F0D8A9DF
:1012EC007AEF09F07CEF09F086EF09F0200E9225D9
:1012FC00D96E010E9321DA6E2E0EDF6E924B932B6C
:10130C00200E9225D96E010E9321DA6E000EDF6E3F
:10131C00650E8019D8A495EF09F097EF09F0F1EF5D
:10132C0004F0000E8B6F4F0E8A6F200E8A25D96E3B
:10133C00010E8B21DA6E000EDF6E000E7B6F000E3D
:10134C007A6F91BFAEEF09F0ACEF09F0B6EF09F090
:10135C00000E7B6F010E7A6F906D911FD8B0912BA0
:10136C00000E7D6F020E7C6FE7EF09F08A07D8A0A4
:10137C008B07200E8A25D96E010E8B21DA6E90C058
:10138C0001F091C002F0000E046E0A0E036EEAEC3E
:10139C0023F00150300FDF6E90C006F091C007F0C3
:1013AC00000E096E0A0E086E88EC23F006C090F051
:1013BC0007C091F000017C07D8A07D077E07D8A05C
:1013CC007F0790519111D8A4EEEF09F0F0EF09F0DE
:1013DC00BCEF09F07DBFFDEF09F07D5106E17C0506
:1013EC00D8B0FBEF09F0FDEF09F0BCEF09F08A076C
:1013FC00D8A08B077A517B11D8A407EF0AF009EF1C
:10140C000AF00FEF0AF0000E676F2B0E666F13EFEA
:10141C000AF0000E676F2D0E666F200E8A25D96EAE
:10142C00010E8B21DA6E66C0DFFF7E07D8A07F0726
:10143C008A07D8A08B07BF0E4D6EFF0E4E6E4C5018
:10144C004F6E506A4D504F264E50502250500AE16C
:10145C001A0E4F5CD8A035EF0AF038EF0AF0010EE7
:10146C0039EF0AF0000E6A6F6B6B6A516B11D8A4DE
:10147C0042EF0AF044EF0AF04AEF0AF0000E696FEF
:10148C00650E686F4EEF0AF0000E696F450E686FBF
:10149C00200E8A25D96E010E8B21DA6E68C0DFFF13
:1014AC007E07D8A07F07200E9225016E010E932196
:1014BC00026E200E8A25036E010E8B21046E2FEC1A
:1014CC0026F0F1EF04F0120054C0D9FF55C0DAFF3A
:1014DC00DECFF6FFDECFF7FF070EF76403D0080070
:1014EC00F55005D0F6CFE1FFF7CFE2FFE750250A24
:1014FC00D8A483EF0AF085EF0AF07FEF0EF054C00A
:10150C00D9FF55C0DAFFDE2A000EDD22000E0001E5
:10151C00D56F000ED46FD4C0D8F0D5C0D9F0D66931
:10152C00D76954C0D9FF55C0DAFFDECFF6FFDECF46
:10153C00F7FF070EF76403D00800F55005D0F6CF7F
:10154C00E1FFF7CFE2FFE7502A0AD8A4B0EF0AF088
:10155C00B2EF0AF0DCEF0AF054C0D9FF55C0DAFF45
:10156C00DE2A000EDD2256C0D9FF57C0DAFFDFCFCE
:10157C0058F0020EDE26DFCF59F0000EDD2258C0E7
:10158C00D9FF59C0DAFFDECFD4F0DDCFD5F00001A2
:10159C00D5BFD5EF0AF0D3EF0AF029EF0BF0D881C5
:1015AC00D46DD51FD8B0D52B29EF0BF054C0D9FF73
:1015BC0055C0DAFFDECF08F0DDCF09F0EDEC1BF003
:1015CC0008C0D4F009C0D5F0F3EF0AF054C0D9FF2D
:1015DC0055C0DAFFDE2A000EDD22D00E586EFF0E4B
:1015EC00596E54C0D9FF55C0DAFFDECFF6FFDECFFF
:1015FC00F7FF070EF76403D00800F55005D0F6CFBF
:10160C00E1FFF7CFE2FFE7505A6E5B6A58505A265B
:10161C0059505B225B500AE10A0E5A5CD8A019EFB4
:10162C000BF01CEF0BF0010E1DEF0BF0000E000188
:10163C00A26FA36BA251A311D8A427EF0BF029EF33
:10164C000BF0ECEF0AF054C0D9FF55C0DAFFDECF37
:10165C00F6FFDECFF7FF070EF76403D00800F55056
:10166C0005D0F6CFE1FFF7CFE2FFE7502E0AD8A462
:10167C0042EF0BF044EF0BF0D5EF0BF0000E000136
:10168C00D76F000ED66F54C0D9FF55C0DAFFDE2AD3
:10169C00000EDD2254C0D9FF55C0DAFFDECFF6FFB5
:1016AC00DECFF7FF070EF76403D00800F55005D026
:1016BC00F6CFE1FFF7CFE2FFE7502A0AD8A469EF93
:1016CC000BF06BEF0BF088EF0BF054C0D9FF55C04B
:1016DC00DAFFDE2A000EDD2256C0D9FF57C0DAFF32
:1016EC00DFCF58F0020EDE26DFCF59F0000EDD22E0
:1016FC0058C0D9FF59C0DAFFDECFD6F0DDCFD7F016
:10170C00D5EF0BF054C0D9FF55C0DAFFDECF08F08F
:10171C00DDCF09F0EDEC1BF008C0D6F009C0D7F016
:10172C009FEF0BF054C0D9FF55C0DAFFDE2A000E34
:10173C00DD22D00E586EFF0E596E54C0D9FF55C025
:10174C00DAFFDECFF6FFDECFF7FF070EF76403D02C
:10175C000800F55005D0F6CFE1FFF7CFE2FFE750D8
:10176C005A6E5B6A58505A2659505B225B500AE1FC
:10177C000A0E5A5CD8A0C5EF0BF0C8EF0BF0010EA7
:10178C00C9EF0BF0000E0001A46FA56BA451A511BD
:10179C00D8A4D3EF0BF0D5EF0BF098EF0BF054C0AF
:1017AC00D9FF55C0DAFFDECFF6FFDECFF7FF070E0D
:1017BC00F76403D00800F55005D0F6CFE1FFF7CF62
:1017CC00E2FFE750586E5850076E086AFFEC25F0A0
:1017DC0007500001AC6FAC51D8B4F7EF0BF0F9EF38
:1017EC000BF04BEF0CF054C0D9FF55C0DAFFDECF35
:1017FC0058F0DDCF59F0010E5826000E592258C072
:10180C00F6FF59C0F7FFF86A070EF76403D008001B
:10181C00F55005D0F6CFE1FFF7CFE2FFE7505A6E57
:10182C005A50076E086AFFEC25F007500001AD6FA7
:10183C00AD51D8B424EF0CF026EF0CF04BEF0CF0BC
:10184C0054C0D9FF55C0DAFFDECF58F0DDCF59F0C8
:10185C00020E5826000E592258C0F6FF59C0F7FF49
:10186C00F86A070EF76403D00800F55005D0F6CFE0
:10187C00E1FFF7CFE2FFE7505A6E5A50076E086A45
:10188C00FFEC25F007500001AE6F54C0D9FF55C0D6
:10189C00DAFFDECFF6FFDECFF7FF070EF76403D0DB
:1018AC000800F55005D0F6CFE1FFF7CFE2FFE75087
:1018BC00630AD8A464EF0CF066EF0CF08EEF0CF01A
:1018CC0054C0D9FF55C0DAFFDE2A000EDD2256C007
:1018DC00D9FF57C0DAFFDFCF58F0020EDE26DFCF7C
:1018EC0059F0000EDD2258C0D9FF59C0DAFFDF5085
:1018FC000001AF6F52C00DF053C00EF0AFC00FF02F
:10190C00E9EC21F00DC052F00EC053F0A5EF0EF033
:10191C0054C0D9FF55C0DAFFDECFF6FFDECFF7FF9C
:10192C00070EF76403D00800F55005D0F6CFE1FFA1
:10193C00F7CFE2FFE750640AD8B4A7EF0CF0A9EF99
:10194C000CF0C4EF0CF054C0D9FF55C0DAFFDECF59
:10195C00F6FFDECFF7FF070EF76403D00800F55053
:10196C0005D0F6CFE1FFF7CFE2FFE750690AD8A424
:10197C00C2EF0CF0C4EF0CF005EF0DF054C0D9FF22
:10198C0055C0DAFFDE2A000EDD2256C0D9FF57C043
:10199C00DAFFDFCF58F0020EDE26DFCF59F0000E53
:1019AC00DD2258C0D9FF59C0DAFFDECF98F0DDCF69
:1019BC0099F00001000E99BFFF0E9A6F9B6F9C6F00
:1019CC009D6F9E6F9F6F52C01FF053C020F098C048
:1019DC0021F099C022F09AC023F09BC024F09CC047
:1019EC0025F09DC026F09EC027F09FC028F021EC6A
:1019FC0017F01FC052F020C053F0A5EF0EF0660E8A
:101A0C000001AC19D8A40DEF0DF00FEF0DF059EF4C
:101A1C000DF054C0D9FF55C0DAFFDECFF6FFDECF94
:101A2C00F7FF070EF76403D00800F55005D0F6CF8A
:101A3C00E1FFF7CFE2FFE7500001AF6F54C0D9FFD1
:101A4C0055C0DAFFDE2A000EDD2256C0D9FF57C082
:101A5C00DAFFDFCF58F0040EDE26DFCF59F0000E90
:101A6C00DD2258C0D9FF59C0DAFFDECFA8F0DECF97
:101A7C00A9F0DECFAAF0DECFABF052C046F053C0D7
:101A8C0047F0A8C048F0A9C049F0AAC04AF0ABC0C2
:101A9C004BF0AFC04CF03EEC04F046C052F047C0E7
:101AAC0053F0A5EF0EF0AC0E016E000E026E770E29
:101ABC00036E080E046E000E066E020E056E55ECDB
:101ACC0022F001500210D8A46EEF0DF070EF0DF063
:101ADC0000EF0EF054C0D9FF55C0DAFFDECF58F03E
:101AEC00DDCF59F0010E5826000E592258C0F6FFD2
:101AFC0059C0F7FFF86A070EF76403D00800F550D9
:101B0C0005D0F6CFE1FFF7CFE2FFE7500001AF6F52
:101B1C00BF0E586EFF0E596E54C0D9FF55C0DAFF78
:101B2C00DECFF6FFDECFF7FF070EF76403D0080019
:101B3C00F55005D0F6CFE1FFF7CFE2FFE7505A6E34
:101B4C005B6A58505A2659505B225B500AE11A0EB8
:101B5C005A5CD8A0B4EF0DF0B7EF0DF0010EB8EF52
:101B6C000DF0000E0001A66FA76BA651A711D8B4FB
:101B7C00C2EF0DF0C4EF0DF0DEEF0DF056C0D9FF43
:101B8C0057C0DAFFDFCF58F0040EDE26DFCF59F056
:101B9C00000EDD2258C0D9FF59C0DAFFDECFA8F005
:101BAC00DECFA9F0DECFAAF0DECFABF0F6EF0DF072
:101BBC0056C0D9FF57C0DAFFDFCF58F0040EDE262F
:101BCC00DFCF59F0000EDD2258C0D9FF59C0DAFF23
:101BDC00DECFA8F0DECFA9F0DECFAAF0DECFABF0DF
:101BEC00020E54C0D9FF55C0DAFFDE26000EDD22EE
:101BFC0043EF0DF054C0D9FF55C0DAFFDECFF6FF2E
:101C0C00DECFF7FF070EF76403D00800F55005D0C0
:101C1C00F6CFE1FFF7CFE2FFE7506E0AD8A419EF39
:101C2C000EF01BEF0EF044EF0EF054C0D9FF55C070
:101C3C00DAFFDE2A000EDD2256C0D9FF57C0DAFFCC
:101C4C00DFCF58F0020EDE26DFCF59F0000EDD227A
:101C5C0058C0D9FF59C0DAFFDECFA0F0DDCFA1F01C
:101C6C00A0C0D9FFA1C0DAFFD2C0DEFFD3C0DDFF18
:101C7C00000E536E000E526EA5EF0EF054C0D9FF3D
:101C8C0055C0DAFFDECFF6FFDECFF7FF070EF764A5
:101C9C0003D00800F55005D0F6CFE1FFF7CFE2FFF7
:101CAC00E750250AD8A45DEF0EF05FEF0EF076EF4B
:101CBC000EF054C0D9FF55C0DAFFDE2A000EDD222B
:101CCC00000E056E250E046E52C006F053C007F0D0
:101CDC00C0EC22F0000E536E010E526EA5EF0EF00A
:101CEC0054C0D9FF55C0DAFFDE2A000EDD223EEFCC
:101CFC000EF054C0D9FF55C0DAFFDECFF6FFDECFB1
:101D0C00F7FF070EF76403D00800F55005D0F6CFA7
:101D1C00E1FFF7CFE2FFE750586E5850046E056AAA
:101D2C0052C006F053C007F0C0EC22F054C0D9FFEB
:101D3C0055C0DAFFDE2A000EDD2270EF0EF0120025
:101D4C000450800B0D6E045004240F6E03AEB1EFE3
:101D5C000EF0B3EF0EF0B4EF0EF00F800F50D8B4BE
:101D6C00BAEF0EF0BCEF0EF0D1EF0EF00F28D8A4A6
:101D7C00C2EF0EF0C4EF0EF0CCEF0EF0000E016EC1
:101D8C00000E026E000E036E000E046E038E000E2B
:101D9C00046ED9EF0EF0000E016E000E026E000EF6
:101DAC00036E000E046E0850800B0E6E0D500E1854
:101DBC00D8B4E3EF0EF0E5EF0EF0E6EF0EF00D8C7D
:101DCC00085008240E6E07AEEEEF0EF0F0EF0EF09A
:101DDC00F1EF0EF00E800E50D8B4F7EF0EF0F9EFD5
:101DEC000EF00EEF0FF00E28D8A4FFEF0EF001EF5F
:101DFC000FF009EF0FF0000E056E000E066E000ED0
:101E0C00076E000E086E078E000E086E16EF0FF0B0
:101E1C00000E056E000E066E000E076E000E086EAC
:101E2C000F500E5CD8B01DEF0FF01FEF0FF046EF08
:101E3C000FF00DAC24EF0FF026EF0FF028EF0FF0A2
:101E4C00800E0D1A0FC010F00EC00FF010C00EF067
:101E5C0001C010F005C001F010C005F002C010F078
:101E6C0006C002F010C006F003C010F007C003F06B
:101E7C0010C007F004C010F008C004F010C008F047
:101E8C00000E106E0F500EC009F00A6A095E000EAB
:101E9C000A5A0ABE5BEF0FF00A5009E11A0E095CF0
:101EAC00D8A05BEF0FF05DEF0FF094EF0FF0015047
:101EBC00021003100410D8A466EF0FF069EF0FF0B6
:101ECC00010E6AEF0FF0000E106E000E016E000E88
:101EDC00026E000E036E000E046E0EC00FF09DEF2E
:101EEC000FF010A07CEF0FF07EEF0FF084EF0FF0EF
:101EFC00D89010300109106E86EF0FF0D890103288
:101F0C0001A08BEF0FF08DEF0FF08EEF0FF0108E16
:101F1C00043404320332023201320F2A0E500F5CA9
:101F2C00D8A09BEF0FF09DEF0FF077EF0FF00DBCEB
:101F3C00A2EF0FF0A4EF0FF0E4EF0FF00F50D8A4C6
:101F4C00AAEF0FF0ACEF0FF0B6EF0FF0000E016E32
:101F5C00000E026E000E036E000E046E05EF11F003
:101F6C000550012606500222075003220850042275
:101F7C0004A0C3EF0FF0C5EF0FF071EF10F010A03D
:101F8C00CAEF0FF0CCEF0FF0D2EF0FF0D89010306B
:101F9C000109106ED4EF0FF0D890103201A0D9EFD8
:101FAC000FF0DBEF0FF0DCEF0FF0108E0434043287
:101FBC000332023201320F2A71EF10F00550015C2E
:101FCC0006500258075003580450800A096E0850F6
:101FDC00800A0958D8B0F5EF0FF0F7EF0FF022EFA9
:101FEC0010F00150055C096E025006580A6E035041
:101FFC0007580B6E045008580C6EFF0E0924016E26
:10200C00FF0E0A20026EFF0E0B20036EFF0E0C203B
:10201C00046E800E0D1A106C1050D8A418EF10F02E
:10202C001AEF10F02AEF10F0010E0126000E02221A
:10203C00032204222AEF10F00550015E0650025ACA
:10204C000750035A0850045A015002100310041090
:10205C00D8A433EF10F035EF10F06AEF10F01050F9
:10206C00D8A43BEF10F03DEF10F06AEF10F0000E2B
:10207C00016E000E026E000E036E000E046E05EF74
:10208C0011F0D890013602360336043610AE51EFFB
:10209C0010F053EF10F054EF10F0018010A059EF36
:1020AC0010F05BEF10F05FEF10F0D880103661EF9E
:1020BC0010F0D89010360F50D8B467EF10F069EFCD
:1020CC0010F06AEF10F00F0603AE6FEF10F071EF27
:1020DC0010F047EF10F0000E0E6E10AE78EF10F00F
:1020EC007AEF10F092EF10F010C009F07F0E091685
:1020FC00D8B483EF10F085EF10F089EF10F0010EDB
:10210C000E6E92EF10F001A08EEF10F090EF10F029
:10211C0092EF10F085EF10F00E50D8B498EF10F04D
:10212C009AEF10F0C5EF10F0010E0126000E0222FE
:10213C000322042204A0A5EF10F0A7EF10F0C5EFC6
:10214C0010F001C009F002C00AF003C00BF004C08B
:10215C000CF00C340C320B320A32093209C001F08B
:10216C000AC002F00BC003F00CC004F00F28D8B466
:10217C00C2EF10F0C4EF10F0C5EF10F00F2A0F28CB
:10218C00D8B4CBEF10F0CDEF10F0D5EF10F00F501E
:10219C00D8A4D3EF10F0D5EF10F0E7EF10F0000E4D
:1021AC00016E000E026E000E036E000E046E0F50D8
:1021BC00D8A4E3EF10F0E5EF10F0E7EF10F0000E0D
:1021CC000D6E0FA0ECEF10F0EEEF10F0F1EF10F041
:1021DC00038EF2EF10F0039ED8900F30046E0DAE0C
:1021EC00FAEF10F0FCEF10F0FDEF10F0048E01C0D0
:1021FC0001F002C002F003C003F004C004F01200AE
:10220C00000E62EC25F001C006F002C007F0000ED3
:10221C00096E400E086E88EC23F006C0FEF007C075
:10222C00FFF0020E99EC25F001C006F002C007F099
:10223C00000E096E400E086E88EC23F006C0FCF010
:10224C0007C0FDF0480E0101186F010E196FFA0E50
:10225C001A6F3E0E1B6FFEC00BF0FFC00CF0000E91
:10226C000CBEFF0E0D6E0E6E010EE9EC1CF00BC0D9
:10227C0019F00CC01AF00DC01BF00EC01CF018C1E8
:10228C001DF019C11EF01AC11FF01BC120F03FEC4C
:10229C0013F019C010F11AC011F11BC012F11CC0BF
:1022AC0013F1FCC00BF0FDC00CF0000E0CBEFF0EC9
:1022BC000D6E0E6E010EE9EC1CF00BC019F00CC08B
:1022CC001AF00DC01BF00EC01CF018C11DF019C186
:1022DC001EF01AC11FF01BC120F03FEC13F019C007
:1022EC000CF11AC00DF11BC00EF11CC00FF110C186
:1022FC0032F011C133F012C134F013C135F00CC1FE
:10230C0036F00DC137F00EC138F00FC139F0D2ECF8
:10231C0026F032C0CEF033C0CFF034C0D0F035C090
:10232C00D1F00001D1BF9DEF11F09FEF11F04CEFF8
:10233C0012F0CEC001F0CFC002F0D0C003F0D1C07B
:10234C0004F0E3EC1FF001C00BF002C00CF0000E27
:10235C000CBEFF0E0D6E0E6E010EE9EC1CF00BC0E8
:10236C0036F00CC037F00DC038F00EC039F0CEC0CE
:10237C0032F0CFC033F0D0C034F0D1C035F0D2EC55
:10238C0026F032C03AF033C03BF034C03CF035C0DC
:10239C003DF0000E3E6E000E3F6E000E406E3F0E86
:1023AC00416EE8EC20F0D8A0DEEF11F0E0EF11F078
:1023BC001EEF12F0800E3AEC27F0700E0001B66F93
:1023CC00010EB76F380EB86F080EB96FCEC001F0A2
:1023DC00CFC002F0D0C003F0D1C004F0DBEC19F098
:1023EC0001C0BAF002C0BBF003C0BCF004C0BDF029
:1023FC00000E0001BF6FDF0EBE6F5DEC26F01A0EF3
:10240C005E6EF80EE82EFED75E2EFCD700D0700E56
:10241C000001B66F010EB76FEAEC27F01A0E5E6E74
:10242C00F80EE82EFED75E2EFCD700D0E2EF12F0AD
:10243C00800E3AEC27F0CEC01AF0CFC01BF0D0C003
:10244C001CF0D1C01DF0E4EC1AF01AC0CAF01BC08D
:10245C00CBF01CC0CCF01DC0CDF0700E0001B66FDF
:10246C00010EB76F380EB86F080EB96FCAC0BAF04C
:10247C00CBC0BBF0CCC0BCF0CDC0BDF0000EBF6F6C
:10248C00DF0EBE6F5DEC26F005EF12F0CEC001F052
:10249C00CFC002F0D0C003F0D1C004F0E3EC1FF0C9
:1024AC0001C00BF002C00CF0000E0CBEFF0E0D6E46
:1024BC000E6E010EE9EC1CF00BC036F00CC037F0C0
:1024CC000DC038F00EC039F0CEC032F0CFC033F0B2
:1024DC00D0C034F0D1C035F0D2EC26F032C03AF096
:1024EC0033C03BF034C03CF035C03DF0000E3E6EC6
:1024FC00000E3F6E000E406EBF0E416EE8EC20F0F9
:10250C00D8A08BEF12F08DEF12F0B4EF12F0800E1A
:10251C003AEC27F0700E0001B66F010EB76F380E53
:10252C00B86F080EB96FCEC001F0CFC002F0D0C0AA
:10253C0003F0D1C004F0DBEC19F001C0BAF002C01A
:10254C00BBF003C0BCF004C0BDF0000E0001BF6FB7
:10255C00DF0EBE6F5DEC26F005EF12F0800E3AEC4C
:10256C0027F0CEC01AF0CFC01BF0D0C01CF0D1C0E9
:10257C001DF0E4EC1AF01AC0CAF01BC0CBF01CC062
:10258C00CCF01DC0CDF0700E0001B66F010EB76F10
:10259C00380EB86F080EB96FCAC0BAF0CBC0BBF01A
:1025AC00CCC0BCF0CDC0BDF0000EBF6FDF0EBE6F57
:1025BC005DEC26F005EF12F0CEC03AF0CFC03BF048
:1025CC00D0C03CF0D1C03DF0000E3E6E000E3F6E10
:1025DC00160E406E430E416EE8EC20F0D8A0F9EFD9
:1025EC0012F0FBEF12F010EF13F0800E3AEC27F024
:1025FC00270E0001B66F080EB76FEAEC27F00B0E32
:10260C005F6E260E5E6E5E0EE82EFED75E2EFCD73B
:10261C005F2EFAD7000E3A6E000E3B6E580E3C6ED3
:10262C00C20E3D6ECEC03EF0CFC03FF0D0C040F0E9
:10263C00D1C041F0E8EC20F0D8A027EF13F029EF3F
:10264C0013F03EEF13F0800E3AEC27F0490E000128
:10265C00B66F080EB76FEAEC27F00B0E5F6E260E06
:10266C005E6E5E0EE82EFED75E2EFCD75F2EFAD77E
:10267C0012001C50800B256E1C501C242B6E1BAEA4
:10268C004AEF13F04CEF13F04DEF13F02B802B505F
:10269C00D8B453EF13F055EF13F068EF13F02B2869
:1026AC00D8A45BEF13F05DEF13F065EF13F0000EA1
:1026BC00196E000E1A6E000E1B6E000E1C6E1B8E19
:1026CC0070EF13F0000E196E000E1A6E000E1B6EDA
:1026DC00000E1C6E2050800B251A205020242A6ED0
:1026EC001FAE7BEF13F07DEF13F07EEF13F02A801B
:1026FC002A50D8B484EF13F086EF13F099EF13F04F
:10270C002A28D8A48CEF13F08EEF13F096EF13F069
:10271C00000E1D6E000E1E6E000E1F6E000E206E43
:10272C001F8EA1EF13F0000E1D6E000E1E6E000E1C
:10273C001F6E000E206E2A50D8B4A7EF13F0A9EF2D
:10274C0013F0B1EF13F02B50D8A4AFEF13F0B1EF9F
:10275C0013F0BBEF13F0000E196E000E1A6E000E84
:10276C001B6E000E1C6E53EF15F01F501902F3CFA9
:10277C0030F0F4CF31F03050266E276A286A296A7F
:10278C0031502C6E2D6A2E6A2F6A1E501A02F3CF0E
:10279C0030F0F4CF31F030502626000E27222822BC
:1027AC00292231502C26000E2D222E222F221D5094
:1027BC001B02F3CF30F0F4CF31F030502626000E50
:1027CC0027222822292231502C26000E2D222E229F
:1027DC002F2228C029F027C028F026C027F0266A0F
:1027EC001D501A02F3CF30F0F4CF31F030502626C2
:1027FC0031502722000E2822000E29221E501902C9
:10280C00F3CF30F0F4CF31F0305026263150272260
:10281C00000E2822000E292228C029F027C028F0FB
:10282C0026C027F0266A1D501902F3CF30F0F4CFE2
:10283C0031F03050262631502722000E2822000E6F
:10284C0029221F501A02F3CF30F0F4CF31F0305060
:10285C002C2631502D22000E2E22000E2F221E501F
:10286C001B02F3CF30F0F4CF31F030502C26315026
:10287C002D22000E2E22000E2F221F501B02F3CFF2
:10288C0030F0F4CF31F03050216E3150226E236A8B
:10289C00246A23C024F022C023F021C022F0216A34
:1028AC0021502C2622502D2223502E2224502F2210
:1028BC0026C021F027C022F028C023F029C024F024
:1028CC00190E6EEF14F0D8902432233222322132BA
:1028DC00E82E69EF14F021502C2622502D22235083
:1028EC002E2224502F2228C029F027C028F026C0E1
:1028FC0027F0266A2A502BC021F0226A2126000ECE
:10290C002222820E2124306EFF0E2220316EA4EF83
:10291C0014F0D8902C362D362E362F3629AE99EF52
:10292C0014F09BEF14F09CEF14F02C80D89026360A
:10293C002736283629363006D8A031062EAEA9EF18
:10294C0014F0ABEF14F08FEF14F0000E2A6E29AEDA
:10295C00B2EF14F0B4EF14F0D8EF14F0FF0E26140D
:10296C00216EFF0E2714226EFF0E2814236E7F0E8D
:10297C002914246E2150221023102410D8B4C9EF2E
:10298C0014F0CBEF14F0CFEF14F0010E2A6ED8EF49
:10299C0014F02CA0D4EF14F0D6EF14F0D8EF14F000
:1029AC00CBEF14F02A50D8B4DEEF14F0E0EF14F0B3
:1029BC0004EF15F0010E2C26000E2D222E222F22B4
:1029CC002FA0EBEF14F0EDEF14F004EF15F02CC08A
:1029DC0021F02DC022F02EC023F02FC024F024347F
:1029EC00243223322232213221C02CF022C02DF08D
:1029FC0023C02EF024C02FF0304A312A31BE0FEF05
:102A0C0015F0315008E13028D8A00FEF15F011EF78
:102A1C0015F01BEF15F0000E2C6E000E2D6E800EB7
:102A2C002E6E7F0E2F6E49EF15F031BE28EF15F08C
:102A3C00315006E13004D8B026EF15F028EF15F030
:102A4C0034EF15F0000E2C6E000E2D6E000E2E6E57
:102A5C00000E2F6E000E256E49EF15F030C02BF0D6
:102A6C00FF0E2C16FF0E2D167F0E2E16000E2F1697
:102A7C002BA043EF15F045EF15F046EF15F02E8E19
:102A8C00D8902B302F6E25502F122CC019F02DC042
:102A9C001AF02EC01BF02FC01CF012000450800B3B
:102AAC00116E04500424186E03AE5FEF15F061EF45
:102ABC0015F062EF15F018801850D8B468EF15F0C7
:102ACC006AEF15F07FEF15F01828D8A470EF15F009
:102ADC0072EF15F07AEF15F0000E016E000E026E1B
:102AEC00000E036E000E046E038E000E046E87EF54
:102AFC0015F0000E016E000E026E000E036E000E3D
:102B0C00046E0850800B111A08500824196E07AE79
:102B1C0092EF15F094EF15F095EF15F01980195010
:102B2C00D8B49BEF15F09DEF15F0B2EF15F0192806
:102B3C00D8A4A3EF15F0A5EF15F0ADEF15F0000E2E
:102B4C00056E000E066E000E076E000E086E078EE8
:102B5C00000E086EBAEF15F0000E056E000E066E34
:102B6C00000E076E000E086E0550061007100810B8
:102B7C00D8A4C3EF15F0C5EF15F0DDEF15F0000E7E
:102B8C00016E000E026E000E036E000E046E800EBF
:102B9C0003127F0E04121150041201C001F002C086
:102BAC0002F003C003F004C004F020EF17F018503B
:102BBC00D8A4E3EF15F0E5EF15F0EFEF15F0000EEC
:102BCC00016E000E026E000E036E000E046E20EFFE
:102BDC0017F0195018C009F00A6A095E000E0A5A5B
:102BEC007F0E0924126E000E0A20136E01C00DF028
:102BFC0002C00EF003C00FF004C010F0000E016E06
:102C0C00000E026E000E036E000E046E000E146EAB
:102C1C00000E156E000E166E000E176E000E196E5D
:102C2C0050EF16F01950D8B41EEF16F020EF16F036
:102C3C0037EF16F0D8900D360E360F361036D8907A
:102C4C00013602360336043617AE2FEF16F031EF8D
:102C5C0016F032EF16F00180D89014361536163671
:102C6C00173605500D5C06500E5807500F5808507B
:102C7C001058D8A044EF16F046EF16F04FEF16F0B0
:102C8C00178C05500D5E06500E5A07500F5A0850FF
:102C9C00105A192A190E196456EF16F058EF16F03F
:102CAC0018EF16F00D500E100F101010D8B461EF75
:102CBC0016F063EF16F07BEF16F014807BEF16F036
:102CCC00D890013602360336043617AE70EF16F084
:102CDC0072EF16F073EF16F00180D890143615369B
:102CEC00163617361206D8A0130603AE80EF16F070
:102CFC0082EF16F066EF16F0000E196E17AE89EF24
:102D0C0016F08BEF16F0AFEF16F0FF0E1414096EE1
:102D1C00FF0E15140A6EFF0E16140B6E7F0E171491
:102D2C000C6E09500A100B100C10D8B4A0EF16F052
:102D3C00A2EF16F0A6EF16F0010E196EAFEF16F01B
:102D4C0001A0ABEF16F0ADEF16F0AFEF16F0A2EF5F
:102D5C0016F01950D8B4B5EF16F0B7EF16F0DBEF4C
:102D6C0016F0010E0126000E02220322042204A0FA
:102D7C00C2EF16F0C4EF16F0DBEF16F001C009F04D
:102D8C0002C00AF003C00BF004C00CF00C340C327F
:102D9C000B320A32093209C001F00AC002F00BC032
:102DAC0003F00CC004F0124A132A13BEE6EF16F01F
:102DBC00135008E11228D8A0E6EF16F0E8EF16F051
:102DCC00F3EF16F0000E136E1268000E016E000E7B
:102DDC00026E000E036E000E046E13BE00EF17F0B1
:102DEC00135006E11204D8B0FEEF16F000EF17F006
:102DFC000EEF17F0000E136E000E126E000E016E29
:102E0C00000E026E000E036E000E046E000E116EAC
:102E1C0012C018F018A015EF17F017EF17F01AEFF3
:102E2C0017F0038E1BEF17F0039ED8901830046E2A
:102E3C00D1EF15F0120021C039F022C03AF023C0B6
:102E4C003BF024C03CF025C03DF026C03EF027C02E
:102E5C003FF028C040F040BE36EF17F039EF17F0C6
:102E6C00010E3AEF17F0000E376E386A37503810F3
:102E7C00D8B443EF17F045EF17F055EF17F0401E9D
:102E8C003F1E3E1E3D1E3C1E3B1E3A1E396C000E64
:102E9C003A223B223C223D223E223F22402200018C
:102EAC00D7BF5BEF17F05DEF17F05EEF17F0D8931D
:102EBC00D7BF6BEF17F0D75106E1D605D8B069EF45
:102ECC0017F06BEF17F071EF17F0000E346E010E68
:102EDC00336E75EF17F0D6C033F0D7C034F0D4C0D2
:102EEC0035F0D5C036F037503810D8A480EF17F035
:102EFC0082EF17F089EF17F0D8A587EF17F089EF5D
:102F0C0017F08CEF17F03506D8A03606000E426E7F
:102F1C004F0E416E000E01016F6F11EF18F041065C
:102F2C00D8A04206200E4124D96E010E4220DA6E42
:102F3C0039C001F03AC002F03BC003F03CC004F0D1
:102F4C003DC005F03EC006F03FC007F040C008F0A1
:102F5C000A0E096E000E0A6E000E0B6E000E0C6E41
:102F6C00000E0D6E000E0E6E000E0F6E000E106E2B
:102F7C0087EC1EF001C029F002C02AF003C02BF030
:102F8C0004C02CF005C02DF006C02EF007C02FF0A9
:102F9C0008C030F029C013F02BC014F05BEC27F004
:102FAC001350300FDF6E3306D8A034063506D8A088
:102FBC00360639C001F03AC002F03BC003F03CC009
:102FCC0004F03DC005F03EC006F03FC007F040C025
:102FDC0008F00A0E096E000E0A6E000E0B6E000E43
:102FEC000C6E000E0D6E000E0E6E000E0F6E000EAF
:102FFC00106EC3EC1DF001C039F002C03AF003C0F2
:10300C003BF004C03CF005C03DF006C03EF007C0EC
:10301C003FF008C040F042BE1CEF18F0425008E1EF
:10302C004104D8A01CEF18F01EEF18F04FEF18F069
:10303C0039503A103B103C103D103E103F104010E0
:10304C00D8A42BEF18F02DEF18F095EF17F034BE35
:10305C003AEF18F0345006E13304D8B038EF18F0DA
:10306C003AEF18F095EF17F036BE45EF18F03650E2
:10307C0008E13504D8A045EF18F047EF18F04FEFF2
:10308C0018F00001D8B34DEF18F04FEF18F095EF92
:10309C0017F037503810D8A456EF18F058EF18F036
:1030AC0060EF18F00001D8A55EEF18F060EF18F093
:1030BC007EEF18F04106D8A0420637503810D8A43D
:1030CC006AEF18F06CEF18F072EF18F0000E326E19
:1030DC002B0E316E76EF18F0000E326E2D0E316E17
:1030EC00200E4124D96E010E4220DA6E31C0DFFF72
:1030FC001FC014F020C015F0200E4124166E010ED6
:10310C004220176E35C018F036C019F025EC23F0AC
:10311C0014C01FF015C020F0120080B298EF18F008
:10312C009AEF18F0ADEF18F0829C040E0001C96FF5
:10313C000C0EC86F330EE82EFED7C82FFCD7C92F44
:10314C00FAD700D0F29E97EC24F0DAEF19F0828CCB
:10315C00040E0001C96F0C0EC86F330EE82EFED79B
:10316C00C82FFCD7C92FFAD700D0C20E3AEC27F0E3
:10317C00590E0001B66F080EB76FEAEC27F00B0E74
:10318C000001C96F260EC86F5D0EE82EFED7C82F42
:10319C00FCD7C92FFAD700D0F28EF28CC8EF19F0F9
:1031AC0080A6DBEF18F0DDEF18F01FEF19F0E8C088
:1031BC0006F0E9C007F0000E096E0A0E086E88ECE6
:1031CC0023F006C0E4F007C0E5F0E8C001F0E9C068
:1031DC0002F0000E046E0A0E036EEAEC23F001C03E
:1031EC00E2F002C0E3F0060E0001C96F130EC86FC7
:1031FC00AD0EE82EFED7C82FFCD7C92FFAD700D0BA
:10320C00010E0001E825E86F000EE921E96FE9BF26
:10321C0019EF19F0E95109E1180EE85DD8A019EF82
:10322C0019F01BEF19F01FEF19F0000EE96F000EEB
:10323C00E86F80AA24EF19F026EF19F068EF19F067
:10324C00E6C006F0E7C007F0000E096E0A0E086E25
:10325C0088EC23F006C0E0F007C0E1F0E6C001F016
:10326C00E7C002F0000E046E0A0E036EEAEC23F0C7
:10327C0001C0DEF002C0DFF0060E0001C96F130EB4
:10328C00C86FAD0EE82EFED7C82FFCD7C92FFAD7C2
:10329C0000D0010E0001E625E66F000EE721E76F76
:1032AC00E7BF62EF19F0E75109E13C0EE65DD8A0EB
:1032BC0062EF19F064EF19F068EF19F0000EE76F88
:1032CC00000EE66F0001E9BF77EF19F0E95107E155
:1032DC000C0EE85DD8B075EF19F077EF19F09BEF95
:1032EC0019F0C20E3AEC27F0010E0001B66F080E71
:1032FC00B76FE4C0B8F0E5C0B9F0E2C0BAF0E3C013
:10330C00BBF0E0C0BCF0E1C0BDF0DEC0BEF0DFC081
:10331C00BFF0DCC0C0F0DDC0C1F0DAC0C2F0DBC071
:10332C00C3F0EAEC27F0C8EF19F0E8510C080101E2
:10333C001E6F0001E951D8A0E82A000801011F6F97
:10334C00C20E3AEC27F0140E0001B66F080EB76FE0
:10335C00E4C0B8F0E5C0B9F0E2C0BAF0E3C0BBF02D
:10336C00E0C0BCF0E1C0BDF0DEC0BEF0DFC0BFF01D
:10337C00DCC0C0F0DDC0C1F0DAC0C2F0DBC0C3F00D
:10338C00EAEC27F080B2CDEF19F0CFEF19F0D6EFC1
:10339C0018F0000E0001DD6F000EDC6F000EDB6F0D
:1033AC00000EDA6FF28EF28C120008C111F009C116
:1033BC0012F00AC113F00BC114F001C011F002C0DD
:1033CC0012F003C013F004C014F0810E056EFF0E52
:1033DC00066E11C007F012C008F013C009F014C03B
:1033EC000AF0180EFFEF19F0D8900A3209320832A1
:1033FC000732E82EFAEF19F0075005240F6E000E75
:10340C000620106E10BE14EF1AF0105009E1170EC2
:10341C000F5CD8A014EF1AF016EF1AF020EF1AF088
:10342C0001C001F002C002F003C003F004C004F0BC
:10343C00E3EF1AF010BE25EF1AF027EF1AF097EF12
:10344C001AF00FC005F0FF0E066EFF0E076E7F0E12
:10345C00086E000E096E056636EF1AF03EEF1AF094
:10346C0009340932083207320632052E31EF1AF0D0
:10347C0006C00BF007C00CF008C00DF009C00EF030
:10348C000B501114056E0C501214066E0D501314C3
:10349C00076E0E501414086E055006100710081015
:1034AC00D8A45BEF1AF05DEF1AF05FEF1AF016EF8D
:1034BC001AF011C005F012C006F013C007F014C0CA
:1034CC0008F0200E6FEF1AF0D8900832073206324F
:1034DC000532E82E6AEF1AF0055006100710081096
:1034EC00D8A47BEF1AF07DEF1AF085EF1AF00B5091
:1034FC0011260C5012220D5013220E5014220B1CAC
:10350C00056E0C1C066E0D1C076E0E1C086E05500D
:10351C001116065012160750131608501416DBEF2E
:10352C001AF011C005F012C006F013C007F014C059
:10353C0008F0200EA7EF1AF0D890083207320632A6
:10354C000532E82EA2EF1AF00550061007100810ED
:10355C00D8B4B3EF1AF0B5EF1AF0BFEF1AF0000EB3
:10356C00116E000E126E000E136E800E146EDBEFD9
:10357C001AF0D8901134056E1234066E1334076E9F
:10358C001434086E0550061007100810D8B4D1EF8B
:10359C001AF0D3EF1AF0DBEF1AF0000E116E000EDA
:1035AC00126E800E136E3F0E146E11C001F012C01D
:1035BC0002F013C003F014C004F0120004C12AF08E
:1035CC0005C12BF006C12CF007C12DF01AC02AF052
:1035DC001BC02BF01CC02CF01DC02DF0810E1E6EDC
:1035EC00FF0E1F6E2AC020F02BC021F02CC022F041
:1035FC002DC023F0180E08EF1BF0D8902332223286
:10360C0021322032E82E03EF1BF020501E24286EAE
:10361C00000E1F20296E29BE1DEF1BF0295009E159
:10362C00170E285CD8A01DEF1BF01FEF1BF029EF25
:10363C001BF01AC01AF01BC01BF01CC01CF01DC0E4
:10364C001DF0ECEF1BF029BE2EEF1BF030EF1BF042
:10365C00A0EF1BF028C01EF0FF0E1F6EFF0E206E99
:10366C007F0E216E000E226E1E663FEF1BF047EFA1
:10367C001BF022342232213220321F321E2E3AEF1E
:10368C001BF01FC024F020C025F021C026F022C062
:10369C0027F024502A141E6E25502B141F6E265012
:1036AC002C14206E27502D14216E1E501F1020102C
:1036BC002110D8A464EF1BF066EF1BF068EF1BF031
:1036CC001FEF1BF02AC01EF02BC01FF02CC020F0E7
:1036DC002DC021F0200E78EF1BF0D8902132203233
:1036EC001F321E32E82E73EF1BF01E501F102010DD
:1036FC002110D8B484EF1BF086EF1BF08EEF1BF07B
:10370C0024502A2625502B2226502C2227502D229D
:10371C00241C1E6E251C1F6E261C206E271C216E61
:10372C001E502A161F502B1620502C1621502D16C9
:10373C00E4EF1BF02AC01EF02BC01FF02CC020F0B1
:10374C002DC021F0200EB0EF1BF0D890213220328A
:10375C001F321E32E82EABEF1BF01E501F10201034
:10376C002110D8A4BCEF1BF0BEEF1BF0C8EF1BF070
:10377C00000E2A6E000E2B6E000E2C6E000E2D6E9F
:10378C00E4EF1BF0D8902A341E6E2B341F6E2C34B1
:10379C00206E2D34216E1E501F1020102110D8B415
:1037AC00DAEF1BF0DCEF1BF0E4EF1BF0000E2A6EDF
:1037BC00000E2B6E800E2C6EBF0E2D6E2AC01AF0D2
:1037CC002BC01BF02CC01CF02DC01DF01200000EE5
:1037DC00166E000E156E000E0F6E000E0E6EF9EFCB
:1037EC001BF0084A092A010E146E08C0F6FF09C026
:1037FC00F7FFF86A070EF76403D00800F55005D000
:10380C00F6CFE1FFF7CFE2FFE750200AD8B411EF73
:10381C001CF013EF1CF03AEF1CF0F70E0A6EFF0EC3
:10382C000B6E08C0F6FF09C0F7FFF86A070EF764C5
:10383C0003D00800F55005D0F6CFE1FFF7CFE2FF3B
:10384C00E7500C6E0D6A0A500C260B500D220D50D1
:10385C0009E1050E0C5CD8A036EF1CF038EF1CF01B
:10386C003AEF1CF0000E146E14C010F0116A1050D8
:10387C001110D8A444EF1CF046EF1CF0F7EF1BF02E
:10388C0050EF1CF0000E0F6E010E0E6E084A092A46
:10389C009BEF1CF008C0F6FF09C0F7FFF86A070E93
:1038AC00F76403D00800F55005D0F6CFE1FFF7CF51
:1038BC00E2FFE7500A6E0B6A0B50000AD8B469EFAE
:1038CC001CF09BEF1CF00A502B0AD8B44CEF1CF0E8
:1038DC00060AD8B448EF1CF09BEF1CF015C001F0A1
:1038EC0016C002F0000E046E0A0E036E11EC28F0E6
:1038FC0008C0F6FF09C0F7FFF86A070EF76403D09B
:10390C000800F55005D0F6CFE1FFF7CFE2FFE75006
:10391C000A6E0A50015E000E025A300E0124156E1A
:10392C00000E0220166E4CEF1CF0D00E0A6EFF0E2D
:10393C000B6E08C0F6FF09C0F7FFF86A070EF764B4
:10394C0003D00800F55005D0F6CFE1FFF7CFE2FF2A
:10395C00E7500C6E0D6A0A500C260B500D220D50C0
:10396C000AE10A0E0C5CD8A0BEEF1CF0C1EF1CF0F3
:10397C00010EC2EF1CF0000E126E136A12501310DF
:10398C00D8A4CBEF1CF0CDEF1CF074EF1CF00E5054
:10399C000F10D8A4D4EF1CF0D6EF1CF0E4EF1CF001
:1039AC0015C00AF016C00BF00A1E0B1E0A4A0B2A91
:1039BC000AC008F00BC009F0E8EF1CF015C008F0C5
:1039CC0016C009F01200136E1350D8B4F0EF1CF0AF
:1039DC00F2EF1CF014EF1DF00EBEF9EF1CF0F7EF38
:1039EC001CF014EF1DF00BC00FF00CC010F00DC04C
:1039FC0011F00EC012F00F1E101E111E121E0F2AF7
:103A0C00000E1022112212220FC015F010C016F059
:103A1C0011C017F012C018F01CEF1DF00BC015F000
:103A2C000CC016F00DC017F00EC018F00B500C1097
:103A3C000D100E10D8A425EF1DF027EF1DF031EF5F
:103A4C001DF0000E0B6E000E0C6E000E0D6E000EB7
:103A5C000E6EC2EF1DF0960E146E3BEF1DF0142A85
:103A6C00D8901832173216321532000E15140F6E0C
:103A7C00000E1614106E000E1714116EFE0E181494
:103A8C00126E0F50101011101210D8A450EF1DF020
:103A9C0052EF1DF035EF1DF060EF1DF0142A010EF2
:103AAC001526000E162217221822D890183217321B
:103ABC0016321532000E15140F6E000E1614106E01
:103ACC00000E1714116EFF0E1814126E0F501010FA
:103ADC0011101210D8A475EF1DF077EF1DF054EFF4
:103AEC001DF07FEF1DF01406D890153616361736DC
:103AFC00183617BE84EF1DF086EF1DF08EEF1DF00B
:103B0C00020E14608CEF1DF08EEF1DF079EF1DF09E
:103B1C0014B093EF1DF095EF1DF096EF1DF0179E6E
:103B2C00D890143214C00FF0106A116A126A0FC0C8
:103B3C0012F0116A106A0F6A0F50151210501612FB
:103B4C0011501712125018121350D8B4B0EF1DF0B8
:103B5C00B2EF1DF0BAEF1DF00EBEB9EF1DF0B7EFCE
:103B6C001DF0BAEF1DF0188E15C00BF016C00CF03E
:103B7C0017C00DF018C00EF01200000E126E10BE21
:103B8C00CCEF1DF0CAEF1DF0DEEF1DF0101E0F1E66
:103B9C000E1E0D1E0C1E0B1E0A1E096C000E0A2298
:103BAC000B220C220D220E220F221022010E126E5D
:103BBC0008BEE5EF1DF0E3EF1DF0F7EF1DF0081E5A
:103BCC00071E061E051E041E031E021E016C000E9F
:103BDC000222032204220522062207220822010EB9
:103BEC00121A20EE13F0070EDE6AE806FDE2095009
:103BFC000A100B100C100D100E100F101010D8B462
:103C0C000AEF1EF00CEF1EF05EEF1EF0010E116EAF
:103C1C001AEF1EF0D89009360A360B360C360D36D4
:103C2C000E360F361036112A10AE1FEF1EF021EF94
:103C3C001EF010EF1EF0D8901336143615361636CB
:103C4C001736183619361A360950015C0A500258C4
:103C5C000B5003580C5004580D5005580E50065874
:103C6C000F50075810500858D8A03FEF1EF041EFE6
:103C7C001EF052EF1EF00950015E0A50025A0B5012
:103C8C00035A0C50045A0D50055A0E50065A0F5038
:103C9C00075A1050085A1380D89010320F320E3237
:103CAC000D320C320B320A320932112E21EF1EF07A
:103CBC001250D8B464EF1EF066EF1EF076EF1EF0D3
:103CCC001A1E191E181E171E161E151E141E136CF6
:103CDC00000E1422152216221722182219221A223B
:103CEC0013C001F014C002F015C003F016C004F0AC
:103CFC0017C005F018C006F019C007F01AC008F07C
:103D0C001200000E126E08BE90EF1EF08EEF1EF029
:103D1C00A2EF1EF0081E071E061E051E041E031E23
:103D2C00021E016C000E022203220422052206222E
:103D3C0007220822010E126E10BEA9EF1EF0A7EF8B
:103D4C001EF0B9EF1EF0101E0F1E0E1E0D1E0C1EC7
:103D5C000B1E0A1E096C000E0A220B220C220D22CD
:103D6C000E220F22102209500A100B100C100D10ED
:103D7C000E100F101010D8B4C6EF1EF0C8EF1EF0C6
:103D8C0010EF1FF0010E116ED6EF1EF0D890093611
:103D9C000A360B360C360D360E360F361036112A07
:103DAC0010AEDBEF1EF0DDEF1EF0CCEF1EF0095075
:103DBC00015C0A5002580B5003580C5004580D501B
:103DCC0005580E5006580F50075810500858D8A0D8
:103DDC00F2EF1EF0F4EF1EF004EF1FF00950015E3D
:103DEC000A50025A0B50035A0C50045A0D50055AE3
:103DFC000E50065A0F50075A1050085AD8901032CD
:103E0C000F320E320D320C320B320A320932112EB5
:103E1C00DDEF1EF01250D8B416EF1FF018EF1FF0A4
:103E2C0028EF1FF0081E071E061E051E041E031E8B
:103E3C00021E016C000E022203220422052206221D
:103E4C000722082201C001F002C002F003C003F0F7
:103E5C0004C004F005C005F006C006F007C007F06A
:103E6C0008C008F01200F8C006F0F9C007F0000E08
:103E7C00096E0A0E086E88EC23F006C0F2F007C03B
:103E8C00F3F0F8C001F0F9C002F0000E046E0A0E57
:103E9C00036EEAEC23F001C0F4F002C0F5F0FAC0B6
:103EAC0006F0FBC007F0000E096E0A0E086E88ECD7
:103EBC0023F006C0EEF007C0EFF0FAC001F0FBC033
:103ECC0002F0000E046E0A0E036EEAEC23F001C041
:103EDC00F0F002C0F1F0F6C006F0F7C007F0000EEB
:103EEC00096E0A0E086E88EC23F006C0EAF007C0D3
:103EFC00EBF0F6C001F0F7C002F0000E046E0A0EF3
:103F0C00036EEAEC23F001C0ECF002C0EDF000010E
:103F1C00F9BF9CEF1FF0F95107E10C0EF85DD8B01A
:103F2C009AEF1FF09CEF1FF0C0EF1FF0C20E3AEC9F
:103F3C0027F0010E0001B66F080EB76FF2C0B8F093
:103F4C00F3C0B9F0F4C0BAF0F5C0BBF0EEC0BCF0F1
:103F5C00EFC0BDF0F0C0BEF0F1C0BFF0EAC0C0F0E1
:103F6C00EBC0C1F0ECC0C2F0EDC0C3F0EAEC27F03E
:103F7C00E2EF1FF0C20E3AEC27F0140E0001B66F00
:103F8C00080EB76FF2C0B8F0F3C0B9F0F4C0BAF0D5
:103F9C00F5C0BBF0EEC0BCF0EFC0BDF0F0C0BEF0A1
:103FAC00F1C0BFF0EAC0C0F0EBC0C1F0ECC0C2F091
:103FBC00EDC0C3F0EAEC27F01200033404340A6EAF
:103FCC000A50D8A4ECEF1FF0EEEF1FF0F8EF1FF043
:103FDC00000E016E000E026E000E036E000E046EDB
:103FEC0065EF20F001C005F002C006F003C007F039
:103FFC0004C008F0200E08EF20F0D89008320732E9
:10400C0006320532E82E03EF20F00550096E038EC0
:10401C00FF0E0116FF0E0216FF0E0316000E0416FD
:10402C00960E0A5E0ABE1FEF20F01DEF20F035EF52
:10403C0020F00A50800A970FD8B027EF20F029EF14
:10404C0020F02BEF20F0EEEF1FF0D890043203326B
:10405C00023201320A3E2BEF20F04DEF20F01F0E02
:10406C000A643BEF20F03DEF20F045EF20F0EEEF3F
:10407C001FF0D89001360236033604360A060A5071
:10408C00D8A44BEF20F04DEF20F03FEF20F009507B
:10409C00D8B453EF20F055EF20F05DEF20F0041E64
:1040AC00031E021E016C000E02220322042201C018
:1040BC0001F002C002F003C003F004C004F01200CF
:1040CC000001F251E41907E1F351E519D8A471EF9D
:1040DC0020F073EF20F0D9EF20F0F451E21907E152
:1040EC00F551E319D8A47DEF20F07FEF20F0D9EF44
:1040FC0020F0EE51E01907E1EF51E119D8A489EF56
:10410C0020F08BEF20F0D9EF20F0F051DE1907E111
:10411C00F151DF19D8A495EF20F097EF20F0D9EFEB
:10412C0020F0EA51DC1907E1EB51DD19D8A4A1EF1D
:10413C0020F0A3EF20F0D9EF20F0EC51DA1907E1D1
:10414C00ED51DB19D8A4ADEF20F0AFEF20F0D9EF93
:10415C0020F00A0E036ECFEF20F08168020E026E83
:10416C00040E016EBA0EE82EFED7012EFCD7022EDD
:10417C00FAD700D0000E816E020E026E040E016E94
:10418C00BA0EE82EFED7012EFCD7022EFAD700D09D
:10419C0003060350D8A4D5EF20F0D7EF20F0B3EFEF
:1041AC0020F0E7EF20F0000E816E020E026E040E7E
:1041BC00016EBA0EE82EFED7012EFCD7022EFAD7CE
:1041CC0000D01200000E3A14426E000E3B14436EE7
:1041DC00800E3C14446E7F0E3D14456E42504310CD
:1041EC0044104510D8A4FDEF20F0FFEF20F007EFAE
:1041FC0021F0000E3A6E000E3B6E000E3C6E000E6F
:10420C003D6E000E3E14426E000E3F14436E800E47
:10421C004014446E7F0E4114456E425043104410BE
:10422C004510D8A41CEF21F01EEF21F026EF21F051
:10423C00000E3E6E000E3F6E000E406E000E416E84
:10424C003DAE2BEF21F02DEF21F036EF21F03A6C43
:10425C003B1ED8B03B2A3C1ED8B03C2A800E3D56A3
:10426C0041AE3BEF21F03DEF21F046EF21F03E6CEB
:10427C003F1ED8B03F2A401ED8B0402A800E41566F
:10428C00000E3A1A000E3B1A000E3C1A800E3D1A14
:10429C00000E3E1A000E3F1A000E401A800E411AF4
:1042AC003E503A5C3F503B5840503C5841503D5872
:1042BC00D8B063EF21F065EF21F068EF21F0D890D2
:1042CC0069EF21F0D880120000C10BF001C10CF095
:1042DC0002C10DF003C10EF001C00BF002C00CF0D6
:1042EC0003C00DF004C00EF00BC005F00CC006F0BE
:1042FC000DC007F00EC008F0180E8AEF21F0D89010
:10430C000832073206320532E82E85EF21F00550CF
:10431C00096E0A6A09500A10D8A497EF21F099EF98
:10432C0021F0B9EF21F0D8900B34056E0C34066EE9
:10433C000D34076E0E34086E055006100710081069
:10434C00D8A4ABEF21F0ADEF21F0B3EF21F0000ECC
:10435C00026E020E016EE8EF21F0000E026E030EEB
:10436C00016EE8EF21F009280A10D8A4C0EF21F063
:10437C00C2EF21F0E4EF21F00BC005F00CC006F009
:10438C000DC007F00EC008F0090ED89005360636A1
:10439C0007360836E82ECBEF21F005500610071033
:1043AC000810D8B4DCEF21F0DFEF21F0010EE0EFC4
:1043BC0021F0000E016E026AE8EF21F0000E026E91
:1043CC00040E016E12000001D451D511D8A4F1EFE6
:1043DC0021F0F3EF21F0F9EF21F0D4C013F0D5C0A8
:1043EC0014F0FFEF21F0FF0ED425136EFF0ED52134
:1043FC00146ED8A104EF22F006EF22F00FEF22F09A
:10440C000FC004F0056A0DC006F00EC007F0C0EC3A
:10441C0022F014BE14EF22F016EF22F018EF22F067
:10442C001CEF22F0000E146E000E136E000E126EB6
:10443C00000E116E2EEF22F0000E056E200E046E93
:10444C000DC006F00EC007F0C0EC22F0114A122A83
:10445C001350115C1250800A106E1450800A1058C0
:10446C00D8A03BEF22F03DEF22F022EF22F000012A
:10447C00D8B143EF22F045EF22F04EEF22F00FC0FF
:10448C0004F0056A0DC006F00EC007F0C0EC22F077
:10449C00010E11240D6E000E12200E6E120001C0C2
:1044AC0008F002C009F003C00AF004C00BF00506C6
:1044BC00D8A00606052806E10628D8A468EF22F045
:1044CC006AEF22F077EF22F0000E026E000E016E02
:1044DC00BFEF22F0084A092A0A4A0B2A0506D8A07F
:1044EC00060608C0D9FF09C0DAFFDF50D8B481EF47
:1044FC0022F083EF22F0AEEF22F00AC0F6FF0BC0E1
:10450C00F7FF0800F5500009D8B48FEF22F091EFB7
:10451C0022F0AEEF22F005500610D8B498EF22F03E
:10452C009AEF22F0AEEF22F008C0D9FF09C0DAFFF3
:10453C00DF50076E0AC0F6FF0BC0F7FF0800F550FE
:10454C000718D8B4ACEF22F0AEEF22F070EF22F0E7
:10455C0008C0D9FF09C0DAFFDF50076E0AC0F6FFAA
:10456C000BC0F7FF0800F550075C016E026AD8A07B
:10457C000206120006500710D8B4C7EF22F0C9EF9C
:10458C0022F0D2EF22F006500710D8A4D0EF22F080
:10459C00D2EF22F0D7EF22F00450F5EC26F024EF06
:1045AC0023F020EE04F00650D9260750DA22DE5014
:1045BC00DE10D8B4E4EF22F0E6EF22F001EF23F0A6
:1045CC0020EE04F00650D9260750DA2210EE02F045
:1045DC000650E1260750E222DE50E65CE650800AE7
:1045EC000C6EDE50800A0C58D8B0FFEF22F001EFB1
:1045FC0023F024EF23F020EE02F00650D9260750CA
:10460C00DA22DECF08F0DDCF09F006C0D9FF07C0F3
:10461C00DAFFDECF0AF0DDCF0BF008500A24D96E9A
:10462C0009500B20DA6E04C0DFFF20EE02F00650BA
:10463C00D9260750DA22DE2A000EDD2212000001F4
:10464C00D8A12BEF23F02DEF23F037EF23F016C07A
:10465C000DF017C00EF014C00FF015C010F018ECD0
:10466C0027F019BE3CEF23F03EEF23F044EF23F08C
:10467C0018C01DF019C01EF048EF23F0000E1E6E7E
:10468C00000E1D6E000E1C6E000E1B6E5AEF23F0FA
:10469C00000E056E200E046E14C006F015C007F057
:1046AC00C0EC22F01B4A1C2A1D501B5C1C50800ABB
:1046BC001A6E1E50800A1A58D8A067EF23F069EFC3
:1046CC0023F04EEF23F00001D8B16FEF23F071EF20
:1046DC0023F07BEF23F016C00DF017C00EF014C0C2
:1046EC000FF015C010F018EC27F016C001F017C031
:1046FC0002F0CFEC27F01D500124146E1E50022046
:10470C00156E1200000E0B6E09BE91EF23F08FEFA9
:10471C0023F097EF23F0086C091ED8B0092A010E7C
:10472C000B6E07BE9EEF23F09CEF23F0A4EF23F05B
:10473C00066C071ED8B0072A010E0B1A000E0D6E60
:10474C00000E0C6E08500910D8B4AFEF23F0B1EF87
:10475C0023F0D9EF23F0010E0A6EB9EF23F0D890B5
:10476C00083609360A2A09AEBEEF23F0C0EF23F053
:10477C00B5EF23F0D8900C360D360850065C095076
:10478C000758D8A0CCEF23F0CEEF23F0D3EF23F0D3
:10479C000850065E0950075A0C80D890093208322E
:1047AC000A2EC0EF23F00B50D8B4DFEF23F0E1EF6B
:1047BC0023F0E5EF23F00C6C0D1ED8B00D2A0CC0C5
:1047CC0006F00DC007F01200000E066E02BEF3EFED
:1047DC0023F0F1EF23F0F9EF23F0016C021ED8B0B7
:1047EC00022A010E066E04BE00EF24F0FEEF23F049
:1047FC0004EF24F0036C041ED8B0042A03500410F8
:10480C00D8B40BEF24F00DEF24F031EF24F0010EAF
:10481C00056E15EF24F0D89003360436052A04AE45
:10482C001AEF24F01CEF24F011EF24F00350015C7C
:10483C0004500258D8A025EF24F027EF24F02BEFDA
:10484C0024F00350015E0450025AD8900432033213
:10485C00052E1CEF24F00650D8B437EF24F039EFB6
:10486C0024F03DEF24F0016C021ED8B0022A01C0E6
:10487C0001F002C002F01200000E0114096E000ECD
:10488C0002140A6E800E03140B6E7F0E04140C6E51
:10489C0009500A100B100C10D8A457EF24F059EF44
:1048AC0024F061EF24F0000E016E000E026E000E7B
:1048BC00036E000E046E000E0514096E000E061435
:1048CC000A6E800E07140B6E7F0E08140C6E0950C6
:1048DC000A100B100C10D8A476EF24F078EF24F00B
:1048EC0080EF24F0000E056E000E066E000E076EB3
:1048FC00000E086E055001180FE1065002180CE16D
:10490C000750031809E108500418D8B490EF24F0AC
:10491C0092EF24F095EF24F0D89096EF24F0D88005
:10492C00120039EC1FF00001F64BF72BF7BFA8EF84
:10493C0024F0F75109E13C0EF65DD8A0A8EF24F065
:10494C00AAEF24F0D6EF24F0000EF76F000EF66FEE
:10495C00FA4BFB2BFBBFBCEF24F0FB5109E13C0EE7
:10496C00FA5DD8A0BCEF24F0BEEF24F0D6EF24F013
:10497C00000EFB6F000EFA6FF84BF92BF9BFD0EF5E
:10498C0024F0F95109E1180EF85DD8A0D0EF24F00D
:10499C00D2EF24F0D6EF24F0000EF96F000EF86F72
:1049AC00D6680B0E5F6E260E5E6E5E0EE82EFED780
:1049BC005E2EFCD75F2EFAD71200820E046EDE0E2E
:1049CC00E82EFED7042EFCD7020E3AEC27F0030E8D
:1049DC00046E980EE82EFED7042EFCD7280E3AEC67
:1049EC0027F0030E046E980EE82EFED7042EFCD78B
:1049FC002C0E3AEC27F0030E046E980EE82EFED720
:104A0C00042EFCD70C0E3AEC27F0030E046E980E15
:104A1C00E82EFED7042EFCD7060E3AEC27F0030E38
:104A2C00046E980EE82EFED7042EFCD7800E3AECBE
:104A3C0027F0030E046E980EE82EFED7042EFCD73A
:104A4C001200B2C05CF0B3C05DF0000E0001D36F79
:104A5C00000ED26F45EF25F0B0C052F0B1C053F04C
:104A6C005C0E546E000E556EB4C056F0B5C057F0C7
:104A7C006AEC0AF052500001D2275350D3235CC089
:104A8C00F6FF5DC0F7FFF86A070EF76403D0080065
:104A9C00F55005D0F6CFE1FFF7CFE2FFE750000964
:104AAC00D8A45BEF25F05DEF25F032EF25F0D2C0F6
:104ABC00B0F0D3C0B1F01200056EF30EC116FC0EAF
:104ACC00C116830EC216C250830B0809C26E73EF57
:104ADC0025F0020EC26E84EF25F00550036E046AB9
:104AEC000450000AD8B47DEF25F084EF25F0035074
:104AFC00000AD8B46FEF25F084EF25F0210EC06EBC
:104B0C00C280C282C2B28DEF25F08FEF25F088EF04
:104B1C0025F0C450046E036AC3500324016E000ECA
:104B2C000420026E1200056EF30EC116FC0EC116A7
:104B3C00C250830B0809C26EA8EF25F00A0EC26E94
:104B4C00B9EF25F00550036E046A0450000AD8B47E
:104B5C00B2EF25F0B9EF25F00350000AD8B4A4EF5A
:104B6C0025F0B9EF25F0210EC06EC280C282C2B210
:104B7C00C2EF25F0C4EF25F0BDEF25F0C450046E54
:104B8C00036AC3500324016E000E0420026E12004F
:104B9C00036E03B002D08C9801D08C8803C002F055
:104BAC00D8900232023A02468C500218DF0B0218DF
:104BBC008C6E03C002F0D8900232D8900232023AC6
:104BCC00024602468C500218BF0B02188C6E03C0B2
:104BDC0002F0D8900232D8900232D89002320232CF
:104BEC0002328C5002187F0B02188C6E4EEC28F09F
:104BFC001200BF0E096EFF0E0A6E07C00BF008C044
:104C0C000CF009500B260A500C220C500AE11A0E1B
:104C1C000B5CD8A014EF26F017EF26F0010E18EF5E
:104C2C0026F0000E0D6E0E6A0D500E10D8B421EF4A
:104C3C0026F023EF26F02AEF26F0200E0710076E41
:104C4C000850086E2EEF26F007C007F008C008F0D9
:104C5C00120003C007F004C008F001C009F002C044
:104C6C000AF00750056E0850066E074A082A05C060
:104C7C00F6FF06C0F7FFF86A09C0D9FF0AC0DAFFD1
:104C8C00094A0A2A070EF76403D00800F55005D02C
:104C9C00F6CFE1FFF7CFE2FFE750DF6EDF50D8A48D
:104CAC005AEF26F05CEF26F037EF26F01200BA0E22
:104CBC000001C26F000EC36FB6C0C4F0B7C0C5F020
:104CCC00000EC76F000EC66F000EC96F000EC86FC6
:104CDC00C40EB06F000EB16FB8C0B2F0B9C0B3F073
:104CEC00C20EB46F000EB56F27EC25F00001C65153
:104CFC00B625D96EC751B721DA6E000EDF6E1200E1
:104D0C00010E076E200E01180210D8B490EF26F099
:104D1C0092EF26F0ABEF26F0F70E036EFF0E046E4B
:104D2C0001C005F002C006F003500526045006220F
:104D3C00065009E1050E055CD8A0A7EF26F0A9EFF7
:104D4C0026F0ABEF26F0000E076E07C001F0026AEA
:104D5C001200FEEC27F035EC28F0E3EC24F0010E09
:104D6C0042EC28F00C0E42EC28F0000E0001F96F1A
:104D7C000C0EF86F000EFB6F3B0EFA6F000EF76F08
:104D8C00320EF66F06EC11F093EC18F066EC20F096
:104D9C00C8EF26F000EF00F0000E361A000E371A9E
:104DAC00000E381A800E391A32C001F033C002F0EE
:104DBC0034C003F035C004F036C005F037C006F03F
:104DCC0038C007F039C008F0A6EC0EF001C032F084
:104DDC0002C033F003C034F004C035F01200026E90
:104DEC000250F00B036E035005098C6E060EE82E74
:104DFC00FED700D0035001098C6E030E016E980E85
:104E0C00E82EFED7012EFCD70238F00B036E0350B0
:104E1C0005098C6E060EE82EFED700D00350010952
:104E2C008C6E1200000E136E000E126E29EF27F01E
:104E3C0011C004F0056A0FC006F010C007F0C0ECFA
:104E4C0022F0124A132A12500D24D96E13500E2040
:104E5C00DA6EDF50116E1150D8A437EF27F039EF0E
:104E6C0027F01EEF27F01200026E0250F00B036EBB
:104E7C00035004098C6E060EE82EFED700D003C03A
:104E8C008CFF030E016E980EE82EFED7012EFCD778
:104E9C000238F00B036E035004098C6E060EE82EDC
:104EAC00FED700D003C08CFF120014BE68EF27F0B1
:104EBC00145006E11304D8B066EF27F068EF27F022
:104ECC0076EF27F013C015F014C016F0151E161E41
:104EDC00154A162A15C013F016C014F07AEF27F0F5
:104EEC0013C013F014C014F01200BF0E036EFF0EAB
:104EFC00046E01C005F002C006F0035005260450F4
:104F0C00062206500AE11A0E055CD8A090EF27F095
:104F1C0093EF27F0010E94EF27F0000E016E026A5A
:104F2C0012000150021003100410D8B4A0EF27F0A7
:104F3C00A2EF27F0AAEF27F0000E011A000E021ABA
:104F4C00000E031A800E041A01C001F002C002F018
:104F5C0003C003F004C004F01200D00E036EFF0E69
:104F6C00046E01C005F002C006F003500526045083
:104F7C00062206500AE10A0E055CD8A0C8EF27F0FD
:104F8C00CBEF27F0010ECCEF27F0000E016E026A7A
:104F9C00120001C003F002C004F0D7EF27F0014A61
:104FAC00022A01C0D9FF02C0DAFFDF50D8A4E1EF1A
:104FBC0027F0E3EF27F0D5EF27F00350015C016EEB
:104FCC0004500258026E1200B80E0001C66F000E9B
:104FDC00C76F000EB06F000EB16FB6C0B2F0B7C0A5
:104FEC00B3F0C60EB46F000EB56F27EC25F01200AF
:104FFC009268000E956E6C0ED36E0F015B975B93EF
:10500C005B9B949C5D9D8B9C000E936E000E5C6F65
:10501C00000E8A6E120001500302F3CF05F0F4CF9C
:10502C0006F001500402F350062602500302F3501E
:10503C00062605C001F006C002F0120001EE00F0D9
:10504C00800EEE6AE806FDE100EECEF0320EEE6A5E
:10505C00E806FDE1000EF86E0001AFEF26F0D58CEE
:10506C00D58AD598D586F80ED516D668D58EF28EFB
:10507C00F28CF28AF29A1200046E8C9004380F0BA8
:10508C000F0BCEEC25F004500F0BCEEC25F01200DC
:10509C008C84030E016E980EE82EFED7012EFCD7E1
:0450AC008C941200CE
:020000040020DA
:08000000FFFFFFFFFFFFFFFF00
:020000040030CA
:0E00000000285F3CFFD381FF0FC00FE00F40D0
:00000001FF
