:020000040000FA
:040000007AEF26F07D
:1008000000256425643A256425643A25642564201E
:10081000412E4D00256425643A256425643A2564FB
:10082000256420502E4D0020204672696F204578A7
:100830007472656D6F2120002043616C6F722045DA
:10084000787472656D6F2120002054203D20253181
:100850002E346620256343002054203D2025322E6F
:10086000346620256343002054203D2025332E3458
:10087000662025634300204D6F646F20416C6172D8
:100880006D612000494E46004E414E00696E660083
:100890006E616E006C660000000E00017B6F000E42
:1008A0007A6F36C08CF037C08DF038C08EF039C00A
:1008B0008FF08FBF60EF04F05EEF04F076EF04F08E
:1008C000000E7B6F010E7A6F8CC001F08DC002F0BC
:1008D0008EC003F08FC004F0EEEC25F001C08CF068
:1008E00002C08DF003C08EF004C08FF0000E000136
:1008F000936F000E926FCEC07EF0CFC07FF07A5122
:100900007B11D8A486EF04F088EF04F08FEF04F099
:10091000D2A58DEF04F08FEF04F0A9EF04F07A5127
:100920007B11D8A496EF04F098EF04F09EEF04F04A
:10093000000E616F2B0E606FA2EF04F0000E616F6E
:100940002D0E606F60C010F1924B932B7E07D8A0E4
:100950007F078CC001F08DC002F08EC003F08FC005
:1009600004F0C2EC1FF001040210D8A4BAEF04F0A6
:10097000BCEF04F013EF05F0BF0E3B6EFF0E3C6EB4
:100980003A503D6E3E6A3B503D263C503E223E5022
:100990000AE11A0E3D5CD8A0D0EF04F0D3EF04F0CA
:1009A000010ED4EF04F0000E0001626F636B625120
:1009B0006311D8B4DEEF04F0E0EF04F0EEEF04F0E2
:1009C000100E9225016E010E9321026E840E036EAD
:1009D000080E046E87EC24F0FAEF04F0100E922556
:1009E000016E010E9321026E8C0E036E080E046ED2
:1009F00087EC24F00001FD0E7E27FF0E7F2334C01C
:100A000014F035C015F0100E166E010E176E7EC074
:100A100018F07FC019F07DEC21F014C034F015C03F
:100A200035F077EF0AF08CC001F08DC002F08EC077
:100A300003F08FC004F0C2EC1FF001500210D8A4E4
:100A400024EF05F026EF05F066EF05F0BF0E3B6ED4
:100A5000FF0E3C6E3A503D6E3E6A3B503D263C5088
:100A60003E223E500AE11A0E3D5CD8A03AEF05F056
:100A70003DEF05F0010E3EEF05F0000E0001646F42
:100A8000656B64516511D8B448EF05F04AEF05F085
:100A900058EF05F0100E9225016E010E9321026EA3
:100AA000880E036E080E046E87EC24F0FAEF04F053
:100AB000100E9225016E010E9321026E900E036EB0
:100AC000080E046E87EC24F0FAEF04F0000E00012B
:100AD000946F000E956F800E966F3F0E976F000E0D
:100AE000916F000E906F8CC001F08DC002F08EC02F
:100AF00003F08FC004F0000E056E000E066E000EAF
:100B0000076E000E086E9AEC22F0D8B08AEF05F05E
:100B10008CEF05F00FEF06F0ABEF05F094C00FF08F
:100B200095C010F096C011F097C012F0000E136E31
:100B3000000E146E200E156E410E166E14EC11F0A0
:100B40000FC094F010C095F011C096F012C097F04D
:100B50000001904B912B8CC028F08DC029F08EC0E5
:100B60002AF08FC02BF0000E136E000E146E200EB4
:100B7000156E410E166E94C00FF095C010F096C021
:100B800011F097C012F014EC11F00FC02CF010C04F
:100B90002DF011C02EF012C02FF040EC1FF0D8B095
:100BA000D4EF05F0D6EF05F08EEF05F0F6EF05F087
:100BB00094C001F095C002F096C003F097C004F015
:100BC000000E056E000E066E200E076E410E086EBA
:100BD00029EC13F001C094F002C095F003C096F028
:100BE00004C097F000019007D8A091078CC028F0AE
:100BF0008DC029F08EC02AF08FC02BF094C02CF04D
:100C000095C02DF096C02EF097C02FF040EC1FF04D
:100C1000D8A00DEF06F00FEF06F0D8EF05F03AC0C0
:100C200007F0086A57EC24F007500001816F81C07B
:100C300080F0670E8119D8A420EF06F022EF06F0AD
:100C400048EF06F0D051D111D8A429EF06F02BEFD0
:100C500006F02FEF06F0000ED16F010ED06FD1BF5E
:100C60003CEF06F0D15106E1D005D8B03AEF06F0DE
:100C70003CEF06F042EF06F0000E7D6F060E7C6F33
:100C800051EF06F0D0C07CF0D1C07DF051EF06F0FE
:100C9000D1BF4DEF06F04FEF06F03CEF06F042EF0C
:100CA00006F0670E8119D8A458EF06F05AEF06F047
:100CB00089EF06F091AF68EF06F0FC0E905DFF0E35
:100CC0009159D8A066EF06F068EF06F087EF06F0BE
:100CD000FF0E3B6EFF0E3C6E7CC03DF07DC03EF0D3
:100CE0003B503D263C503E2290513D5C3E50800A98
:100CF0003F6E9151800A3F58D8A081EF06F083EFF4
:100D000006F087EF06F0660E806F89EF06F0650E3D
:100D1000806F7CC072F07DC073F0670E8119D8A41B
:100D200094EF06F096EF06F0A6EF06F0660E801937
:100D3000D8A49DEF06F09FEF06F0A8EF06F091BF54
:100D4000A6EF06F0A4EF06F0A8EF06F0724B732BA7
:100D5000660E8019D8A4AFEF06F0B1EF06F0D1EF20
:100D600006F091BFB8EF06F0B6EF06F0C4EF06F05C
:100D7000000E946F000E956F800E966F3F0E976F6A
:100D8000000E916F000E906F670E8119D8B4CBEFF3
:100D900006F0CDEF06F0D1EF06F090517227915199
:100DA0007323000E8B6F000E8A6F8CC082F08DC093
:100DB00083F08EC084F08FC085F094C074F095C02D
:100DC00075F096C076F097C077F062EF07F082C0BA
:100DD00001F083C002F084C003F085C004F094C029
:100DE00005F095C006F096C007F097C008F029EC12
:100DF00013F001C01AF002C01BF003C01CF004C0C5
:100E00001DF03CEC19F01AC086F01BC087F01CC026
:100E100088F01DC089F086C001F087C002F088C04C
:100E200003F089C004F03BEC1EF001C078F002C072
:100E300079F082C028F083C029F084C02AF085C0F0
:100E40002BF094C013F095C014F096C015F097C025
:100E500016F086C00FF087C010F088C011F089C06E
:100E600012F014EC11F00FC02CF010C02DF011C0D6
:100E70002EF012C02FF029EC25F028C082F029C0F6
:100E800083F02AC084F02BC085F094C001F095C097
:100E900002F096C003F097C004F0000E056E000E3D
:100EA000066E200E076E410E086E29EC13F001C08D
:100EB00094F002C095F003C096F004C097F00001D2
:100EC0008A4B8B2B72518A5D8B51800A3B6E73511A
:100ED000800A3B58D8A06FEF07F071EF07F0E7EFFB
:100EE00006F094C00FF095C010F096C011F097C0B6
:100EF00012F0000E136E000E146EA00E156E400E52
:100F0000166E14EC11F00FC086F010C087F011C0FF
:100F100088F012C089F082C028F083C029F084C014
:100F20002AF085C02BF086C02CF087C02DF088C039
:100F30002EF089C02FF040EC1FF0D8B0A2EF07F0E0
:100F4000A4EF07F0AFEF07F0000E0001866F000E70
:100F5000876F000E886F000E896FD8EF07F082C090
:100F600001F083C002F084C003F085C004F086C0A5
:100F700005F087C006F088C007F089C008F09AEC39
:100F800022F0D8A0C6EF07F0C8EF07F0D8EF07F0BF
:100F9000000178B1CEEF07F0D0EF07F0D8EF07F0FF
:100FA000000E866F000E876F000E886F000E896F2F
:100FB0008CC001F08DC002F08EC003F08FC004F031
:100FC00086C005F087C006F088C007F089C008F029
:100FD000B4EC0EF001C082F002C083F003C084F0D4
:100FE00004C085F082C028F083C029F084C02AF0B4
:100FF00085C02BF0000E136E000E146E200E156EC1
:10100000410E166E74C00FF075C010F076C011F06E
:1010100077C012F014EC11F00FC02CF010C02DF0BE
:1010200011C02EF012C02FF040EC1FF0D8A01BEF23
:1010300008F01DEF08F046EF08F00001904B912BEF
:1010400074C00FF075C010F076C011F077C012F0C8
:10105000000E136E000E146E200E156E410E166EED
:1010600014EC11F00FC074F010C075F011C076F0E0
:1010700012C077F0660E00018019D8A442EF08F084
:1010800044EF08F046EF08F0724B732B74C094F0F5
:1010900075C095F076C096F077C097F0650E0001A8
:1010A0008019D8B456EF08F058EF08F05EEF08F05A
:1010B00090C070F091C071F062EF08F0000E716F97
:1010C000000E706F000E6F6F000E6E6F000E6D6F72
:1010D000000E6C6F000E8B6F000E8A6F5DEF09F0D3
:1010E00082C001F083C002F084C003F085C004F028
:1010F00094C005F095C006F096C007F097C008F0C0
:1011000029EC13F001C01AF002C01BF003C01CF060
:1011100004C01DF03CEC19F01AC086F01BC087F02B
:101120001CC088F01DC089F086C001F087C002F0A5
:1011300088C003F089C004F03BEC1EF001C078F0D9
:1011400002C079F00001D2B9A8EF08F0AAEF08F0C8
:10115000C7EF08F078517911D8A4B1EF08F0B3EFD8
:1011600008F0C7EF08F0670E8119D8A4BAEF08F0AD
:10117000BCEF08F0C7EF08F071BFC3EF08F0C1EF94
:1011800008F0C7EF08F06C4B6D2B11EF09F06E51B2
:101190006F11D8A4CEEF08F0D0EF08F0FAEF08F006
:1011A00071BFD7EF08F0D5EF08F0FAEF08F0100E96
:1011B0009225D96E010E9321DA6E2E0EDF6E924BC0
:1011C000932B7E07D8A07F07000E6F6F010E6E6F06
:1011D000FAEF08F0100E9225D96E010E9321DA6E07
:1011E000300EDF6E924B932B7E07D8A07F076C07E3
:1011F000D8A06D076C516D11D8A401EF09F003EF71
:1012000009F0EAEF08F0100E9225D96E010E932135
:10121000DA6E7851300FDF6E924B932B7E07D8A099
:101220007F0782C028F083C029F084C02AF085C0DF
:101230002BF094C013F095C014F096C015F097C031
:1012400016F086C00FF087C010F088C011F089C07A
:1012500012F014EC11F00FC02CF010C02DF011C0E2
:101260002EF012C02FF029EC25F028C082F029C002
:1012700083F02AC084F02BC085F094C001F095C0A3
:1012800002F096C003F097C004F0000E056E000E49
:10129000066E200E076E410E086E29EC13F001C099
:1012A00094F002C095F003C096F004C097F00001DE
:1012B0007007D8A071078A4B8B2B72518A5D8B51B6
:1012C000800A3B6E7351800A3B58D8B06AEF09F030
:1012D0006CEF09F07AEF09F093BF78EF09F09351C2
:1012E00009E14B0E925DD8A078EF09F07AEF09F092
:1012F00070EF08F06E516F11D8A481EF09F083EF01
:1013000009F094EF09F0D2A988EF09F08AEF09F00B
:1013100094EF09F0100E9225D96E010E9321DA6E2A
:101320002E0EDF6E924B932B100E9225D96E010E6E
:101330009321DA6E000EDF6E650E8019D8A4A3EF3C
:1013400009F0A5EF09F0FFEF04F0000E8B6F4F0ED0
:101350008A6F100E8A25D96E010E8B21DA6E000E6F
:10136000DF6E000E7B6F000E7A6F91BFBCEF09F04D
:10137000BAEF09F0C4EF09F0000E7B6F010E7A6F2F
:10138000906D911FD8B0912B000E7D6F020E7C6F77
:10139000F5EF09F08A07D8A08B07100E8A25D96EC1
:1013A000010E8B21DA6E90C001F091C002F0000EA8
:1013B000046E0A0E036E42EC22F00150300FDF6E15
:1013C00090C006F091C007F0000E096E0A0E086E7C
:1013D000E0EC21F006C090F007C091F000017C071E
:1013E000D8A07D077E07D8A07F0790519111D8A47F
:1013F000FCEF09F0FEEF09F0CAEF09F07DBF0BEF3B
:101400000AF07D5106E17C05D8B009EF0AF00BEF38
:101410000AF0CAEF09F08A07D8A08B077A517B112E
:10142000D8A415EF0AF017EF0AF01DEF0AF0000E2E
:10143000676F2B0E666F21EF0AF0000E676F2D0E9F
:10144000666F100E8A25D96E010E8B21DA6E66C08A
:10145000DFFF7E07D8A07F078A07D8A08B07BF0EC3
:101460003B6EFF0E3C6E3A503D6E3E6A3B503D2651
:101470003C503E223E500AE11A0E3D5CD8A043EF9C
:101480000AF046EF0AF0010E47EF0AF0000E6A6F0D
:101490006B6B6A516B11D8A450EF0AF052EF0AF04F
:1014A00058EF0AF0000E696F650E686F5CEF0AF086
:1014B000000E696F450E686F100E8A25D96E010EF9
:1014C0008B21DA6E68C0DFFF7E07D8A07F07100E81
:1014D0009225016E010E9321026E100E8A25036E75
:1014E000010E8B21046E87EC24F0FFEF04F0120054
:1014F00045C0D9FF46C0DAFFDECFF6FFDECFF7FFEB
:10150000070EF76403D00800F55005D0F6CFE1FFD1
:10151000F7CFE2FFE750250AD8A491EF0AF093EF46
:101520000AF08DEF0EF045C0D9FF46C0DAFFDE2A83
:10153000000EDD22000E0001CF6F000ECE6FCEC078
:10154000D2F0CFC0D3F0D069D16945C0D9FF46C031
:10155000DAFFDECFF6FFDECFF7FF070EF76403D02A
:101560000800F55005D0F6CFE1FFF7CFE2FFE750D6
:101570002A0AD8A4BEEF0AF0C0EF0AF0EAEF0AF098
:1015800045C0D9FF46C0DAFFDE2A000EDD2247C083
:10159000D9FF48C0DAFFDFCF49F0020EDE26DFCFE9
:1015A0004AF0000EDD2249C0D9FF4AC0DAFFDECF83
:1015B000CEF0DDCFCFF00001CFBFE3EF0AF0E1EFD7
:1015C0000AF037EF0BF0D281CE6DCF1FD8B0CF2B02
:1015D00037EF0BF045C0D9FF46C0DAFFDECF08F089
:1015E000DDCF09F045EC1AF008C0CEF009C0CFF00D
:1015F00001EF0BF045C0D9FF46C0DAFFDE2A000E2E
:10160000DD22D00E496EFF0E4A6E45C0D9FF46C09E
:10161000DAFFDECFF6FFDECFF7FF070EF76403D069
:101620000800F55005D0F6CFE1FFF7CFE2FFE75015
:101630004B6E4C6A49504B264A504C224C500AE1A2
:101640000A0E4B5CD8A027EF0BF02AEF0BF0010E2F
:101650002BEF0BF0000E0001A26FA36BA251A311A0
:10166000D8A435EF0BF037EF0BF0FAEF0AF045C0D6
:10167000D9FF46C0DAFFDECFF6FFDECFF7FF070E59
:10168000F76403D00800F55005D0F6CFE1FFF7CF9F
:10169000E2FFE7502E0AD8A450EF0BF052EF0BF008
:1016A000E3EF0BF0000E0001D16F000ED06F45C0CC
:1016B000D9FF46C0DAFFDE2A000EDD2245C0D9FF81
:1016C00046C0DAFFDECFF6FFDECFF7FF070EF76486
:1016D00003D00800F55005D0F6CFE1FFF7CFE2FFC9
:1016E000E7502A0AD8A477EF0BF079EF0BF096EFCA
:1016F0000BF045C0D9FF46C0DAFFDE2A000EDD221E
:1017000047C0D9FF48C0DAFFDFCF49F0020EDE261E
:10171000DFCF4AF0000EDD2249C0D9FF4AC0DAFF10
:10172000DECFD0F0DDCFD1F0E3EF0BF045C0D9FF35
:1017300046C0DAFFDECF08F0DDCF09F045EC1AF045
:1017400008C0D0F009C0D1F0ADEF0BF045C0D9FF13
:1017500046C0DAFFDE2A000EDD22D00E496EFF0EF3
:101760004A6E45C0D9FF46C0DAFFDECFF6FFDECFB6
:10177000F7FF070EF76403D00800F55005D0F6CF49
:10178000E1FFF7CFE2FFE7504B6E4C6A49504B2622
:101790004A504C224C500AE10A0E4B5CD8A0D3EFC1
:1017A0000BF0D6EF0BF0010ED7EF0BF0000E00019F
:1017B000A46FA56BA451A511D8A4E1EF0BF0E3EF42
:1017C0000BF0A6EF0BF045C0D9FF46C0DAFFDECF25
:1017D000F6FFDECFF7FF070EF76403D00800F550E1
:1017E00005D0F6CFE1FFF7CFE2FFE750496E495051
:1017F000076E086A57EC24F007500001AC6FAC513B
:10180000D8B405EF0CF007EF0CF059EF0CF045C021
:10181000D9FF46C0DAFFDECF49F0DDCF4AF0010E36
:101820004926000E4A2249C0F6FF4AC0F7FFF86A6F
:10183000070EF76403D00800F55005D0F6CFE1FF9E
:10184000F7CFE2FFE7504B6E4B50076E086A57EC3C
:1018500024F007500001AD6FAD51D8B432EF0CF059
:1018600034EF0CF059EF0CF045C0D9FF46C0DAFF59
:10187000DECF49F0DDCF4AF0020E4926000E4A22A3
:1018800049C0F6FF4AC0F7FFF86A070EF76403D0B5
:101890000800F55005D0F6CFE1FFF7CFE2FFE750A3
:1018A0004B6E4B50076E086A57EC24F0075000014E
:1018B000AE6F45C0D9FF46C0DAFFDECFF6FFDECF00
:1018C000F7FF070EF76403D00800F55005D0F6CFF8
:1018D000E1FFF7CFE2FFE750630AD8A472EF0CF004
:1018E00074EF0CF09CEF0CF045C0D9FF46C0DAFF56
:1018F000DE2A000EDD2247C0D9FF48C0DAFFDFCF65
:1019000049F0020EDE26DFCF4AF0000EDD2249C08C
:10191000D9FF4AC0DAFFDF500001AF6F43C00DF0BE
:1019200044C00EF0AFC00FF041EC20F00DC043F00A
:101930000EC044F0B3EF0EF045C0D9FF46C0DAFF49
:10194000DECFF6FFDECFF7FF070EF76403D0080007
:10195000F55005D0F6CFE1FFF7CFE2FFE750640A7C
:10196000D8B4B5EF0CF0B7EF0CF0D2EF0CF045C0E7
:10197000D9FF46C0DAFFDECFF6FFDECFF7FF070E56
:10198000F76403D00800F55005D0F6CFE1FFF7CF9C
:10199000E2FFE750690AD8A4D0EF0CF0D2EF0CF0C8
:1019A00013EF0DF045C0D9FF46C0DAFFDE2A000E66
:1019B000DD2247C0D9FF48C0DAFFDFCF49F0020E71
:1019C000DE26DFCF4AF0000EDD2249C0D9FF4AC033
:1019D000DAFFDECF98F0DDCF99F00001000E99BF5D
:1019E000FF0E9A6F9B6F9C6F9D6F9E6F9F6F43C0A2
:1019F0001FF044C020F098C021F099C022F09AC096
:101A000023F09BC024F09CC025F09DC026F09EC012
:101A100027F09FC028F08FEC16F01FC043F020C0C5
:101A200044F0B3EF0EF0660E0001AC19D8A41BEF22
:101A30000DF01DEF0DF067EF0DF045C0D9FF46C06A
:101A4000DAFFDECFF6FFDECFF7FF070EF76403D035
:101A50000800F55005D0F6CFE1FFF7CFE2FFE750E1
:101A60000001AF6F45C0D9FF46C0DAFFDE2A000E85
:101A7000DD2247C0D9FF48C0DAFFDFCF49F0040EAE
:101A8000DE26DFCF4AF0000EDD2249C0D9FF4AC072
:101A9000DAFFDECFA8F0DECFA9F0DECFAAF0DECFEE
:101AA000ABF043C034F044C035F0A8C036F0A9C054
:101AB00037F0AAC038F0ABC039F0AFC03AF04CEC08
:101AC00004F034C043F035C044F0B3EF0EF0AC0E78
:101AD000016E000E026E940E036E080E046E000E70
:101AE000066E020E056EADEC20F001500210D8A477
:101AF0007CEF0DF07EEF0DF00EEF0EF045C0D9FF3C
:101B000046C0DAFFDECF49F0DDCF4AF0010E4926AC
:101B1000000E4A2249C0F6FF4AC0F7FFF86A070ED6
:101B2000F76403D00800F55005D0F6CFE1FFF7CFFA
:101B3000E2FFE7500001AF6FBF0E496EFF0E4A6E25
:101B400045C0D9FF46C0DAFFDECFF6FFDECFF7FF94
:101B5000070EF76403D00800F55005D0F6CFE1FF7B
:101B6000F7CFE2FFE7504B6E4C6A49504B264A5084
:101B70004C224C500AE11A0E4B5CD8A0C2EF0DF07B
:101B8000C5EF0DF0010EC6EF0DF0000E0001A66FBF
:101B9000A76BA651A711D8B4D0EF0DF0D2EF0DF07E
:101BA000ECEF0DF047C0D9FF48C0DAFFDFCF49F0B6
:101BB000040EDE26DFCF4AF0000EDD2249C0D9FF39
:101BC0004AC0DAFFDECFA8F0DECFA9F0DECFAAF060
:101BD000DECFABF004EF0EF047C0D9FF48C0DAFF0C
:101BE000DFCF49F0040EDE26DFCF4AF0000EDD2203
:101BF00049C0D9FF4AC0DAFFDECFA8F0DECFA9F096
:101C0000DECFAAF0DECFABF0020E45C0D9FF46C052
:101C1000DAFFDE26000EDD2251EF0DF045C0D9FFC0
:101C200046C0DAFFDECFF6FFDECFF7FF070EF76420
:101C300003D00800F55005D0F6CFE1FFF7CFE2FF63
:101C4000E7506E0AD8A427EF0EF029EF0EF052EFFE
:101C50000EF045C0D9FF46C0DAFFDE2A000EDD22B5
:101C600047C0D9FF48C0DAFFDFCF49F0020EDE26B9
:101C7000DFCF4AF0000EDD2249C0D9FF4AC0DAFFAB
:101C8000DECFA0F0DDCFA1F0A0C0D9FFA1C0DAFF68
:101C9000CCC0DEFFCDC0DDFF000E446E000E436EF3
:101CA000B3EF0EF045C0D9FF46C0DAFFDECFF6FF36
:101CB000DECFF7FF070EF76403D00800F55005D01C
:101CC000F6CFE1FFF7CFE2FFE750250AD8A46BEF8C
:101CD0000EF06DEF0EF084EF0EF045C0D9FF46C058
:101CE000DAFFDE2A000EDD22000E056E250E046EE0
:101CF00043C006F044C007F018EC21F0000E446E1B
:101D0000010E436EB3EF0EF045C0D9FF46C0DAFFB7
:101D1000DE2A000EDD224CEF0EF045C0D9FF46C092
:101D2000DAFFDECFF6FFDECFF7FF070EF76403D052
:101D30000800F55005D0F6CFE1FFF7CFE2FFE750FE
:101D4000496E4950046E056A43C006F044C007F06E
:101D500018EC21F045C0D9FF46C0DAFFDE2A000E9C
:101D6000DD227EEF0EF012000450800B0D6E045049
:101D700004240F6E03AEBFEF0EF0C1EF0EF0C2EF02
:101D80000EF00F800F50D8B4C8EF0EF0CAEF0EF06F
:101D9000DFEF0EF00F28D8A4D0EF0EF0D2EF0EF048
:101DA000DAEF0EF0000E016E000E026E000E036EF2
:101DB000000E046E038E000E046EE7EF0EF0000EB0
:101DC000016E000E026E000E036E000E046E0850CF
:101DD000800B0E6E0D500E18D8B4F1EF0EF0F3EF2D
:101DE0000EF0F4EF0EF00D8C085008240E6E07AEC6
:101DF000FCEF0EF0FEEF0EF0FFEF0EF00E800E5037
:101E0000D8B405EF0FF007EF0FF01CEF0FF00E281E
:101E1000D8A40DEF0FF00FEF0FF017EF0FF0000E3B
:101E2000056E000E066E000E076E000E086E078E21
:101E3000000E086E24EF0FF0000E056E000E066E09
:101E4000000E076E000E086E0F500E5CD8B02BEF20
:101E50000FF02DEF0FF054EF0FF00DAC32EF0FF04D
:101E600034EF0FF036EF0FF0800E0D1A0FC010F0A8
:101E70000EC00FF010C00EF001C010F005C001F050
:101E800010C005F002C010F006C002F010C006F04D
:101E900003C010F007C003F010C007F004C010F03A
:101EA00008C004F010C008F0000E106E0F500EC0F5
:101EB00009F00A6A095E000E0A5A0ABE69EF0FF0BD
:101EC0000A5009E11A0E095CD8A069EF0FF06BEF18
:101ED0000FF0A2EF0FF00150021003100410D8A46D
:101EE00074EF0FF077EF0FF0010E78EF0FF0000EA8
:101EF000106E000E016E000E026E000E036E000EDC
:101F0000046E0EC00FF0ABEF0FF010A08AEF0FF0D1
:101F10008CEF0FF092EF0FF0D89010300109106E97
:101F200094EF0FF0D890103201A099EF0FF09BEFD3
:101F30000FF09CEF0FF0108E0434043203320232A3
:101F400001320F2A0E500F5CD8A0A9EF0FF0ABEFB3
:101F50000FF085EF0FF00DBCB0EF0FF0B2EF0FF008
:101F6000F2EF0FF00F50D8A4B8EF0FF0BAEF0FF068
:101F7000C4EF0FF0000E016E000E026E000E036E35
:101F8000000E046E13EF11F00550012606500222D8
:101F9000075003220850042204A0D1EF0FF0D3EF22
:101FA0000FF07FEF10F010A0D8EF0FF0DAEF0FF086
:101FB000E0EF0FF0D89010300109106EE2EF0FF053
:101FC000D890103201A0E7EF0FF0E9EF0FF0EAEF41
:101FD0000FF0108E043404320332023201320F2A21
:101FE0007FEF10F00550015C06500258075003586F
:101FF0000450800A096E0850800A0958D8B003EFCF
:1020000010F005EF10F030EF10F00150055C096E94
:10201000025006580A6E035007580B6E04500858B9
:102020000C6EFF0E0924016EFF0E0A20026EFF0ED9
:102030000B20036EFF0E0C20046E800E0D1A106C28
:102040001050D8A426EF10F028EF10F038EF10F061
:10205000010E0126000E02220322042238EF10F0A6
:102060000550015E0650025A0750035A0850045AA0
:102070000150021003100410D8A441EF10F043EFF8
:1020800010F078EF10F01050D8A449EF10F04BEF9B
:1020900010F078EF10F0000E016E000E026E000ED0
:1020A000036E000E046E13EF11F0D8900136023665
:1020B0000336043610AE5FEF10F061EF10F062EF00
:1020C00010F0018010A067EF10F069EF10F06DEFD5
:1020D00010F0D88010366FEF10F0D89010360F50F7
:1020E000D8B475EF10F077EF10F078EF10F00F061E
:1020F00003AE7DEF10F07FEF10F055EF10F0000E03
:102100000E6E10AE86EF10F088EF10F0A0EF10F01A
:1021100010C009F07F0E0916D8B491EF10F093EFBC
:1021200010F097EF10F0010E0E6EA0EF10F001A06E
:102130009CEF10F09EEF10F0A0EF10F093EF10F076
:102140000E50D8B4A6EF10F0A8EF10F0D3EF10F0B7
:10215000010E0126000E02220322042204A0B3EF86
:1021600010F0B5EF10F0D3EF10F001C009F002C08D
:102170000AF003C00BF004C00CF00C340C320B322C
:102180000A32093209C001F00AC002F00BC003F0A4
:102190000CC004F00F28D8B4D0EF10F0D2EF10F03C
:1021A000D3EF10F00F2A0F28D8B4D9EF10F0DBEFDF
:1021B00010F0E3EF10F00F50D8A4E1EF10F0E3EFD0
:1021C00010F0F5EF10F0000E016E000E026E000E22
:1021D000036E000E046E0F50D8A4F1EF10F0F3EF71
:1021E00010F0F5EF10F0000E0D6E0FA0FAEF10F0EA
:1021F000FCEF10F0FFEF10F0038E00EF11F0039EE4
:10220000D8900F30046E0DAE08EF11F00AEF11F008
:102210000BEF11F0048E01C001F002C002F003C008
:1022200003F004C004F012001250800B1B6E125019
:102230001224216E11AE1FEF11F021EF11F022EFE9
:1022400011F021802150D8B428EF11F02AEF11F0BD
:102250003DEF11F02128D8A430EF11F032EF11F04A
:102260003AEF11F0000E0F6E000E106E000E116EA0
:10227000000E126E118E45EF11F0000E0F6E000E63
:10228000106E000E116E000E126E1650800B1B1A8F
:1022900016501624206E15AE50EF11F052EF11F0CB
:1022A00053EF11F020802050D8B459EF11F05BEFBC
:1022B00011F06EEF11F02028D8A461EF11F063EF58
:1022C00011F06BEF11F0000E136E000E146E000E85
:1022D000156E000E166E158E76EF11F0000E136E51
:1022E000000E146E000E156E000E166E2050D8B43F
:1022F0007CEF11F07EEF11F086EF11F02150D8A4A1
:1023000084EF11F086EF11F090EF11F0000E0F6ED8
:10231000000E106E000E116E000E126E28EF13F0FC
:1023200015500F02F3CF26F0F4CF27F026501C6E85
:102330001D6A1E6A1F6A2750226E236A246A256A54
:1023400014501002F3CF26F0F4CF27F026501C26AD
:10235000000E1D221E221F2227502226000E23229D
:102360002422252213501102F3CF26F0F4CF27F0B8
:1023700026501C26000E1D221E221F222750222618
:10238000000E2322242225221EC01FF01DC01EF095
:102390001CC01DF01C6A13501002F3CF26F0F4CFBE
:1023A00027F026501C2627501D22000E1E22000E4C
:1023B0001F2214500F02F3CF26F0F4CF27F026503F
:1023C0001C2627501D22000E1E22000E1F221EC09A
:1023D0001FF01DC01EF01CC01DF01C6A13500F0220
:1023E000F3CF26F0F4CF27F026501C2627501D22CD
:1023F000000E1E22000E1F2215501002F3CF26F0F1
:10240000F4CF27F02650222627502322000E242224
:10241000000E252214501102F3CF26F0F4CF27F03E
:102420002650222627502322000E2422000E252289
:1024300015501102F3CF26F0F4CF27F02650176E77
:102440002750186E196A1A6A19C01AF018C019F0C4
:1024500017C018F0176A1750222618502322195057
:1024600024221A5025221CC017F01DC018F01EC0CF
:1024700019F01FC01AF0190E43EF12F0D8901A325B
:10248000193218321732E82E3EEF12F0175022267A
:1024900018502322195024221A5025221EC01FF042
:1024A0001DC01EF01CC01DF01C6A205021C017F07A
:1024B000186A1726000E1822820E1724266EFF0EA9
:1024C0001820276E79EF12F0D89022362336243662
:1024D00025361FAE6EEF12F070EF12F071EF12F0B2
:1024E0002280D8901C361D361E361F362606D8A0F0
:1024F000270624AE7EEF12F080EF12F064EF12F0A8
:10250000000E206E1FAE87EF12F089EF12F0ADEFD4
:1025100012F0FF0E1C14176EFF0E1D14186EFF0E26
:102520001E14196E7F0E1F141A6E175018101910F2
:102530001A10D8B49EEF12F0A0EF12F0A4EF12F030
:10254000010E206EADEF12F022A0A9EF12F0ABEF5A
:1025500012F0ADEF12F0A0EF12F02050D8B4B3EFAC
:1025600012F0B5EF12F0D9EF12F0010E2226000E94
:1025700023222422252225A0C0EF12F0C2EF12F060
:10258000D9EF12F022C017F023C018F024C019F0C0
:1025900025C01AF01A341A3219321832173217C0FD
:1025A00022F018C023F019C024F01AC025F0264AE2
:1025B000272A27BEE4EF12F0275008E12628D8A0EA
:1025C000E4EF12F0E6EF12F0F0EF12F0000E226EE0
:1025D000000E236E800E246E7F0E256E1EEF13F00C
:1025E00027BEFDEF12F0275006E12604D8B0FBEF1E
:1025F00012F0FDEF12F009EF13F0000E226E000E44
:10260000236E000E246E000E256E000E1B6E1EEF54
:1026100013F026C021F0FF0E2216FF0E23167F0EA8
:102620002416000E251621A018EF13F01AEF13F050
:102630001BEF13F0248ED8902130256E1B502512ED
:1026400022C00FF023C010F024C011F025C012F0FA
:1026500012000450800B116E04500424186E03AE57
:1026600034EF13F036EF13F037EF13F018801850F3
:10267000D8B43DEF13F03FEF13F054EF13F01828E8
:10268000D8A445EF13F047EF13F04FEF13F0000E0F
:10269000016E000E026E000E036E000E046E038EBD
:1026A000000E046E5CEF13F0000E016E000E026E61
:1026B000000E036E000E046E0850800B111A0850B5
:1026C0000824196E07AE67EF13F069EF13F06AEF95
:1026D00013F019801950D8B470EF13F072EF13F0A3
:1026E00087EF13F01928D8A478EF13F07AEF13F0DE
:1026F00082EF13F0000E056E000E066E000E076EE0
:10270000000E086E078E000E086E8FEF13F0000E9D
:10271000056E000E066E000E076E000E086E055068
:10272000061007100810D8A498EF13F09AEF13F0D2
:10273000B2EF13F0000E016E000E026E000E036E7B
:10274000000E046E800E03127F0E0412115004124C
:1027500001C001F002C002F003C003F004C004F0A5
:10276000F5EF14F01850D8A4B8EF13F0BAEF13F047
:10277000C4EF13F0000E016E000E026E000E036E29
:10278000000E046EF5EF14F0195018C009F00A6A33
:10279000095E000E0A5A7F0E0924126E000E0A20EE
:1027A000136E01C00DF002C00EF003C00FF004C0A4
:1027B00010F0000E016E000E026E000E036E000E91
:1027C000046E000E146E000E156E000E166E000ED6
:1027D000176E000E196E25EF14F01950D8B4F3EFF0
:1027E00013F0F5EF13F00CEF14F0D8900D360E3611
:1027F0000F361036D890013602360336043617AE3F
:1028000004EF14F006EF14F007EF14F00180D890F5
:10281000143615361636173605500D5C06500E5810
:1028200007500F5808501058D8A019EF14F01BEF9C
:1028300014F024EF14F0178C05500D5E06500E5A5C
:1028400007500F5A0850105A192A190E19642BEF05
:1028500014F02DEF14F0EDEF13F00D500E100F10DB
:102860001010D8B436EF14F038EF14F050EF14F025
:10287000148050EF14F0D890013602360336043637
:1028800017AE45EF14F047EF14F048EF14F0018055
:10289000D89014361536163617361206D8A01306F9
:1028A00003AE55EF14F057EF14F03BEF14F0000EA9
:1028B000196E17AE5EEF14F060EF14F084EF14F0B1
:1028C000FF0E1414096EFF0E15140A6EFF0E161477
:1028D0000B6E7F0E17140C6E09500A100B100C10A3
:1028E000D8B475EF14F077EF14F07BEF14F0010E0D
:1028F000196E84EF14F001A080EF14F082EF14F051
:1029000084EF14F077EF14F01950D8B48AEF14F074
:102910008CEF14F0B0EF14F0010E0126000E02222D
:102920000322042204A097EF14F099EF14F0B0EF03
:1029300014F001C009F002C00AF003C00BF004C09B
:102940000CF00C340C320B320A32093209C001F09F
:102950000AC002F00BC003F00CC004F0124A132AA4
:1029600013BEBBEF14F0135008E11228D8A0BBEF40
:1029700014F0BDEF14F0C8EF14F0000E136E1268DF
:10298000000E016E000E026E000E036E000E046E4D
:1029900013BED5EF14F0135006E11204D8B0D3EFF4
:1029A00014F0D5EF14F0E3EF14F0000E136E000EE8
:1029B000126E000E016E000E026E000E036E000E0F
:1029C000046E000E116E12C018F018A0EAEF14F099
:1029D000ECEF14F0EFEF14F0038EF0EF14F0039E21
:1029E000D8901830046EA6EF13F01200000EBAEC67
:1029F00023F001C006F002C007F0000E096E400E81
:102A0000086EE0EC21F006C0FCF007C0FDF0020EFD
:102A1000F1EC23F001C006F002C007F0000E096ED1
:102A2000400E086EE0EC21F006C0FAF007C0FBF0A3
:102A3000480E0001C86F010EC96FFA0ECA6F3E0E34
:102A4000CB6FFCC001F0FDC002F0000E02BEFF0E15
:102A5000036E046E010E41EC1BF001C00FF002C0CA
:102A600010F003C011F004C012F0C8C013F0C9C0C8
:102A700014F0CAC015F0CBC016F014EC11F00FC062
:102A8000C4F010C0C5F011C0C6F012C0C7F0FAC043
:102A900001F0FBC002F0000E02BEFF0E036E046EDA
:102AA000010E41EC1BF001C00FF002C010F003C09A
:102AB00011F004C012F0C8C013F0C9C014F0CAC0AD
:102AC00015F0CBC016F014EC11F00FC008F110C0D7
:102AD00009F111C00AF112C00BF1C4C028F0C5C041
:102AE00029F0C6C02AF0C7C02BF008C12CF009C1DC
:102AF0002DF00AC12EF00BC12FF029EC25F028C0D3
:102B0000C0F029C0C1F02AC0C2F02BC0C3F0000E33
:102B1000286E000E296EC60E2A6E420E2B6EC0C0A5
:102B20002CF0C1C02DF0C2C02EF0C3C02FF040EC7D
:102B30001FF0D8B09EEF15F0A0EF15F0DDEF15F007
:102B4000800E91EC25F0600E0001B06F010EB16FA8
:102B5000670EB26F080EB36FC0C0B4F0C1C0B5F05D
:102B6000C2C0B6F0C3C0B7F0000EB96FDF0EB86FC9
:102B7000DEEC24F0020E0001BF6F040EBE6FBA0E31
:102B8000E82EFED7BE2FFCD7BF2FFAD700F0600E7D
:102B90000001B06F010EB16F54EC26F0020E00017F
:102BA000BF6F040EBE6FBA0EE82EFED7BE2FFCD745
:102BB000BF2FFAD700F02EEF16F0C0C028F0C1C02A
:102BC00029F0C2C02AF0C3C02BF0000E2C6E000EFC
:102BD0002D6E200E2E6E410E2F6E40EC1FF0D8B0E1
:102BE000F4EF15F0F6EF15F012EF16F0800E91EC01
:102BF00025F0600E0001B06F010EB16F490EB26F8B
:102C0000080EB36FC0C0B4F0C1C0B5F0C2C0B6F01A
:102C1000C3C0B7F0000EB96FDF0EB86FDEEC24F062
:102C2000BAEF15F0800E91EC25F0600E0001B06F48
:102C3000010EB16F580EB26F080EB36FC0C0B4F082
:102C4000C1C0B5F0C2C0B6F0C3C0B7F0000EB96FD6
:102C5000DF0EB86FDEEC24F0BAEF15F0C0C028F03C
:102C6000C1C029F0C2C02AF0C3C02BF0000E2C6EE8
:102C7000000E2D6E160E2E6E430E2F6E40EC1FF0C2
:102C8000D8A045EF16F047EF16F05EEF16F0800E75
:102C900091EC25F0380E0001B06F080EB16F54ECC6
:102CA00026F00B0E0001BF6F260EBE6F5D0EE82EE4
:102CB000FED7BE2FFCD7BF2FFAD700D0000E286E4C
:102CC000000E296E580E2A6EC20E2B6EC0C02CF05C
:102CD000C1C02DF0C2C02EF0C3C02FF040EC1FF0D9
:102CE000D8A075EF16F077EF16F08EEF16F0800E85
:102CF00091EC25F0270E0001B06F080EB16F54EC77
:102D000026F00B0E0001BF6F260EBE6F5D0EE82E83
:102D1000FED7BE2FFCD7BF2FFAD700D0120021C09C
:102D200039F022C03AF023C03BF024C03CF025C06B
:102D30003DF026C03EF027C03FF028C040F040BE26
:102D4000A4EF16F0A7EF16F0010EA8EF16F0000E94
:102D5000376E386A37503810D8B4B1EF16F0B3EF89
:102D600016F0C3EF16F0401E3F1E3E1E3D1E3C1ED9
:102D70003B1E3A1E396C000E3A223B223C223D2279
:102D80003E223F2240220001D1BFC9EF16F0CBEF17
:102D900016F0CCEF16F0D293D1BFD9EF16F0D15187
:102DA00006E1D005D8B0D7EF16F0D9EF16F0DFEF77
:102DB00016F0000E346E010E336EE3EF16F0D0C045
:102DC00033F0D1C034F0CEC035F0CFC036F037503C
:102DD0003810D8A4EEEF16F0F0EF16F0F7EF16F07B
:102DE000D2A5F5EF16F0F7EF16F0FAEF16F035066C
:102DF000D8A03606000E426E4F0E416E000E010145
:102E00005F6F7FEF17F04106D8A04206100E4124F5
:102E1000D96E010E4220DA6E39C001F03AC002F0DC
:102E20003BC003F03CC004F03DC005F03EC006F0DE
:102E30003FC007F040C008F00A0E096E000E0A6E8F
:102E4000000E0B6E000E0C6E000E0D6E000E0E6E60
:102E5000000E0F6E000E106EDFEC1CF001C029F0AA
:102E600002C02AF003C02BF004C02CF005C02DF0E6
:102E700006C02EF007C02FF008C030F029C013F0B4
:102E80002BC014F0B2EC25F01350300FDF6E330678
:102E9000D8A034063506D8A0360639C001F03AC0AD
:102EA00002F03BC003F03CC004F03DC005F03EC062
:102EB00006F03FC007F040C008F00A0E096E000E91
:102EC0000A6E000E0B6E000E0C6E000E0D6E000EE4
:102ED0000E6E000E0F6E000E106E1BEC1CF001C08B
:102EE00039F002C03AF003C03BF004C03CF005C02A
:102EF0003DF006C03EF007C03FF008C040F042BEC3
:102F00008AEF17F0425008E14104D8A08AEF17F089
:102F10008CEF17F0BDEF17F039503A103B103C1012
:102F20003D103E103F104010D8A499EF17F09BEFD2
:102F300017F003EF17F034BEA8EF17F0345006E196
:102F40003304D8B0A6EF17F0A8EF17F003EF17F08F
:102F500036BEB3EF17F0365008E13504D8A0B3EF12
:102F600017F0B5EF17F0BDEF17F00001D2B3BBEFCC
:102F700017F0BDEF17F003EF17F037503810D8A453
:102F8000C4EF17F0C6EF17F0CEEF17F00001D2A58F
:102F9000CCEF17F0CEEF17F0ECEF17F04106D8A00A
:102FA000420637503810D8A4D8EF17F0DAEF17F0F0
:102FB000E0EF17F0000E326E2B0E316EE4EF17F0DB
:102FC000000E326E2D0E316E100E4124D96E010EA0
:102FD0004220DA6E31C0DFFF1FC014F020C015F0B0
:102FE000100E4124166E010E4220176E35C018F0E7
:102FF00036C019F07DEC21F014C01FF015C020F090
:10300000120080B206EF18F008EF18F019EF18F070
:10301000829C040E5C6E0C0E5B6E340EE82EFED7A6
:103020005B2EFCD75C2EFAD7F29EEFEC22F03BEF42
:1030300019F0828C040E5C6E0C0E5B6E340EE82E62
:10304000FED75B2EFCD75C2EFAD7C20E91EC25F092
:10305000760E0001B06F080EB16F54EC26F00B0E27
:103060005C6E260E5B6E5E0EE82EFED75B2EFCD7E6
:103070005C2EFAD7F28EF28C29EF19F080A643EF7E
:1030800018F045EF18F085EF18F0E4C006F0E5C041
:1030900007F0000E096E0A0E086EE0EC21F006C083
:1030A000DEF007C0DFF0E4C001F0E5C002F0000E82
:1030B000046E0A0E036E42EC22F001C0DCF002C086
:1030C000DDF0060E5C6E130E5B6EAE0EE82EFED7C4
:1030D0005B2EFCD75C2EFAD7010E0001E425E46FCD
:1030E000000EE521E56FE5BF7FEF18F0E55109E13E
:1030F000180EE45DD8A07FEF18F081EF18F085EF8F
:1031000018F0000EE56F000EE46F80AA8AEF18F049
:103110008CEF18F0CCEF18F0E2C006F0E3C007F037
:10312000000E096E0A0E086EE0EC21F006C0DAF01F
:1031300007C0DBF0E2C001F0E3C002F0000E046E55
:103140000A0E036E42EC22F001C0D8F002C0D9F0A2
:10315000060E5C6E130E5B6EAE0EE82EFED75B2E77
:10316000FCD75C2EFAD7010E0001E225E26F000EBB
:10317000E321E36FE3BFC6EF18F0E35109E13C0E32
:10318000E25DD8A0C6EF18F0C8EF18F0CCEF18F049
:10319000000EE36F000EE26F0001E5BFDBEF18F0F9
:1031A000E55107E10C0EE45DD8B0D9EF18F0DBEF84
:1031B00018F0FFEF18F0C20E91EC25F0010E00019F
:1031C000B06F080EB16FDEC0B2F0DFC0B3F0DCC08C
:1031D000B4F0DDC0B5F0DAC0B6F0DBC0B7F0D8C0EF
:1031E000B8F0D9C0B9F0D6C0BAF0D7C0BBF0D4C0DF
:1031F000BCF0D5C0BDF054EC26F029EF19F0E45135
:103200000C08F86FE551D8A0E82A0008F96FC20E43
:1032100091EC25F0140E0001B06F080EB16FDEC006
:10322000B2F0DFC0B3F0DCC0B4F0DDC0B5F0DAC09E
:10323000B6F0DBC0B7F0D8C0B8F0D9C0B9F0D6C08E
:10324000BAF0D7C0BBF0D4C0BCF0D5C0BDF054ECD0
:1032500026F080B22EEF19F030EF19F03EEF18F0A3
:10326000000E0001D76F000ED66F000ED56F000E56
:10327000D46FF28EF28C120000C12AF001C12BF043
:1032800002C12CF003C12DF01AC02AF01BC02BF094
:103290001CC02CF01DC02DF0810E1E6EFF0E1F6E87
:1032A0002AC020F02BC021F02CC022F02DC023F02A
:1032B000180E60EF19F0D8902332223221322032DA
:1032C000E82E5BEF19F020501E24286E000E1F2000
:1032D000296E29BE75EF19F0295009E1170E285CF7
:1032E000D8A075EF19F077EF19F081EF19F01AC037
:1032F0001AF01BC01BF01CC01CF01DC01DF044EFD9
:103300001AF029BE86EF19F088EF19F0F8EF19F0DE
:1033100028C01EF0FF0E1F6EFF0E206E7F0E216E66
:10332000000E226E1E6697EF19F09FEF19F02234FF
:103330002232213220321F321E2E92EF19F01FC08E
:1033400024F020C025F021C026F022C027F0245010
:103350002A141E6E25502B141F6E26502C14206E1E
:1033600027502D14216E1E501F1020102110D8A49C
:10337000BCEF19F0BEEF19F0C0EF19F077EF19F0BC
:103380002AC01EF02BC01FF02CC020F02DC021F051
:10339000200ED0EF19F0D890213220321F321E3289
:1033A000E82ECBEF19F01E501F1020102110D8B4BA
:1033B000DCEF19F0DEEF19F0E6EF19F024502A26C1
:1033C00025502B2226502C2227502D22241C1E6EE5
:1033D000251C1F6E261C206E271C216E1E502A16CF
:1033E0001F502B1620502C1621502D163CEF1AF092
:1033F0002AC01EF02BC01FF02CC020F02DC021F0E1
:10340000200E08EF1AF0D890213220321F321E32DF
:10341000E82E03EF1AF01E501F1020102110D8A420
:1034200014EF1AF016EF1AF020EF1AF0000E2A6EC1
:10343000000E2B6E000E2C6E000E2D6E3CEF1AF05F
:10344000D8902A341E6E2B341F6E2C34206E2D34EF
:10345000216E1E501F1020102110D8B432EF1AF028
:1034600034EF1AF03CEF1AF0000E2A6E000E2B6EAD
:10347000800E2C6EBF0E2D6E2AC01AF02BC01BF0D2
:103480002CC01CF02DC01DF01200000E166E000E98
:10349000156E000E0F6E000E0E6E51EF1AF0084AF8
:1034A000092A010E146E08C0F6FF09C0F7FFF86A7A
:1034B000070EF76403D00800F55005D0F6CFE1FF02
:1034C000F7CFE2FFE750200AD8B469EF1AF06BEFAC
:1034D0001AF092EF1AF0F70E0A6EFF0E0B6E08C08C
:1034E000F6FF09C0F7FFF86A070EF76403D008007B
:1034F000F55005D0F6CFE1FFF7CFE2FFE7500C6EB5
:103500000D6A0A500C260B500D220D5009E1050ED4
:103510000C5CD8A08EEF1AF090EF1AF092EF1AF030
:10352000000E146E14C010F0116A10501110D8A4BF
:103530009CEF1AF09EEF1AF04FEF1AF0A8EF1AF076
:10354000000E0F6E010E0E6E084A092AF3EF1AF0F4
:1035500008C0F6FF09C0F7FFF86A070EF76403D04A
:103560000800F55005D0F6CFE1FFF7CFE2FFE750B6
:103570000A6E0B6A0B50000AD8B4C1EF1AF0F3EFD1
:103580001AF00A502B0AD8B4A4EF1AF0060AD8B4DD
:10359000A0EF1AF0F3EF1AF015C001F016C002F018
:1035A000000E046E0A0E036E67EC26F008C0F6FFEC
:1035B00009C0F7FFF86A070EF76403D00800F5505A
:1035C00005D0F6CFE1FFF7CFE2FFE7500A6E0A50D1
:1035D000015E000E025A300E0124156E000E02200C
:1035E000166EA4EF1AF0D00E0A6EFF0E0B6E08C016
:1035F000F6FF09C0F7FFF86A070EF76403D008006A
:10360000F55005D0F6CFE1FFF7CFE2FFE7500C6EA3
:103610000D6A0A500C260B500D220D500AE10A0EBD
:103620000C5CD8A016EF1BF019EF1BF0010E1AEF7F
:103630001BF0000E126E136A12501310D8A423EF61
:103640001BF025EF1BF0CCEF1AF00E500F10D8A492
:103650002CEF1BF02EEF1BF03CEF1BF015C00AF017
:1036600016C00BF00A1E0B1E0A4A0B2A0AC008F0ED
:103670000BC009F040EF1BF015C008F016C009F0B0
:103680001200096E0950D8B448EF1BF04AEF1BF046
:103690006CEF1BF004BE51EF1BF04FEF1BF06CEF13
:1036A0001BF001C005F002C006F003C007F004C023
:1036B00008F0051E061E071E081E052A000E06221B
:1036C0000722082205C00BF006C00CF007C00DF061
:1036D00008C00EF074EF1BF001C00BF002C00CF03C
:1036E00003C00DF004C00EF00150021003100410CE
:1036F000D8A47DEF1BF07FEF1BF089EF1BF0000ECD
:10370000016E000E026E000E036E000E046E1AEFC4
:103710001CF0960E0A6E93EF1BF00A2AD8900E3218
:103720000D320C320B32000E0B14056E000E0C1411
:10373000066E000E0D14076EFE0E0E14086E055078
:10374000061007100810D8A4A8EF1BF0AAEF1BF072
:103750008DEF1BF0B8EF1BF00A2A010E0B26000EAE
:103760000C220D220E22D8900E320D320C320B326A
:10377000000E0B14056E000E0C14066E000E0D14D8
:10378000076EFF0E0E14086E055006100710081085
:10379000D8A4CDEF1BF0CFEF1BF0ACEF1BF0D7EFB1
:1037A0001BF00A06D8900B360C360D360E360DBEC1
:1037B000DCEF1BF0DEEF1BF0E6EF1BF0020E0A6001
:1037C000E4EF1BF0E6EF1BF0D1EF1BF00AB0EBEFDC
:1037D0001BF0EDEF1BF0EEEF1BF00D9ED8900A32C0
:1037E0000AC005F0066A076A086A05C008F0076A99
:1037F000066A056A05500B1206500C1207500D128E
:1038000008500E120950D8B408EF1CF00AEF1CF053
:1038100012EF1CF004BE11EF1CF00FEF1CF012EFC2
:103820001CF00E8E0BC001F00CC002F00DC003F0B6
:103830000EC004F01200000E126E10BE24EF1CF039
:1038400022EF1CF036EF1CF0101E0F1E0E1E0D1E78
:103850000C1E0B1E0A1E096C000E0A220B220C22E3
:103860000D220E220F221022010E126E08BE3DEF15
:103870001CF03BEF1CF04FEF1CF0081E071E061E4D
:10388000051E041E031E021E016C000E02220322EE
:1038900004220522062207220822010E121A20EE17
:1038A00013F0070EDE6AE806FDE209500A100B105D
:1038B0000C100D100E100F101010D8B462EF1CF089
:1038C00064EF1CF0B6EF1CF0010E116E72EF1CF0ED
:1038D000D89009360A360B360C360D360E360F36B2
:1038E0001036112A10AE77EF1CF079EF1CF068EF5C
:1038F0001CF0D8901336143615361636173618368F
:1039000019361A360950015C0A5002580B500358F8
:103910000C5004580D5005580E5006580F500758BB
:1039200010500858D8A097EF1CF099EF1CF0AAEFA0
:103930001CF00950015E0A50025A0B50035A0C50F9
:10394000045A0D50055A0E50065A0F50075A10507F
:10395000085A1380D89010320F320E320D320C32CA
:103960000B320A320932112E79EF1CF01250D8B402
:10397000BCEF1CF0BEEF1CF0CEEF1CF01A1E191E9F
:10398000181E171E161E151E141E136C000E142270
:10399000152216221722182219221A2213C001F00A
:1039A00014C002F015C003F016C004F017C005F0F3
:1039B00018C006F019C007F01AC008F01200000E77
:1039C000126E08BEE8EF1CF0E6EF1CF0FAEF1CF0F8
:1039D000081E071E061E051E041E031E021E016C85
:1039E000000E0222032204220522062207220822B8
:1039F000010E126E10BE01EF1DF0FFEF1CF011EF73
:103A00001DF0101E0F1E0E1E0D1E0C1E0B1E0A1E7C
:103A1000096C000E0A220B220C220D220E220F220C
:103A2000102209500A100B100C100D100E100F1060
:103A30001010D8B41EEF1DF020EF1DF068EF1DF040
:103A4000010E116E2EEF1DF0D89009360A360B3696
:103A50000C360D360E360F361036112A10AE33EFF7
:103A60001DF035EF1DF024EF1DF00950015C0A50E8
:103A700002580B5003580C5004580D5005580E5066
:103A800006580F50075810500858D8A04AEF1DF09C
:103A90004CEF1DF05CEF1DF00950015E0A50025A18
:103AA0000B50035A0C50045A0D50055A0E50065A2A
:103AB0000F50075A1050085AD89010320F320E3259
:103AC0000D320C320B320A320932112E35EF1DF055
:103AD0001250D8B46EEF1DF070EF1DF080EF1DF0A6
:103AE000081E071E061E051E041E031E021E016C74
:103AF000000E0222032204220522062207220822A7
:103B000001C001F002C002F003C003F004C004F0E1
:103B100005C005F006C006F007C007F008C008F0B1
:103B20001200F4C006F0F5C007F0000E096E0A0E90
:103B3000086EE0EC21F006C0EEF007C0EFF0F4C034
:103B400001F0F5C002F0000E046E0A0E036E42ECA6
:103B500022F001C0F0F002C0F1F0F6C006F0F7C0AC
:103B600007F0000E096E0A0E086EE0EC21F006C0A8
:103B7000EAF007C0EBF0F6C001F0F7C002F0000E6B
:103B8000046E0A0E036E42EC22F001C0ECF002C09B
:103B9000EDF0F2C006F0F3C007F0000E096E0A0E59
:103BA000086EE0EC21F006C0E6F007C0E7F0F2C0D6
:103BB00001F0F3C002F0000E046E0A0E036E42EC38
:103BC00022F001C0E8F002C0E9F00001F5BFF4EF17
:103BD0001DF0F55107E10C0EF45DD8B0F2EF1DF0C9
:103BE000F4EF1DF018EF1EF0C20E91EC25F0010E5F
:103BF0000001B06F080EB16FEEC0B2F0EFC0B3F0CD
:103C0000F0C0B4F0F1C0B5F0EAC0B6F0EBC0B7F068
:103C1000ECC0B8F0EDC0B9F0E6C0BAF0E7C0BBF058
:103C2000E8C0BCF0E9C0BDF054EC26F03AEF1EF05D
:103C3000C20E91EC25F0140E0001B06F080EB16FAA
:103C4000EEC0B2F0EFC0B3F0F0C0B4F0F1C0B5F028
:103C5000EAC0B6F0EBC0B7F0ECC0B8F0EDC0B9F018
:103C6000E6C0BAF0E7C0BBF0E8C0BCF0E9C0BDF008
:103C700054EC26F01200033404340A6E0A50D8A41F
:103C800044EF1EF046EF1EF050EF1EF0000E016EE6
:103C9000000E026E000E036E000E046EBDEF1EF0ED
:103CA00001C005F002C006F003C007F004C008F030
:103CB000200E60EF1EF0D89008320732063205322F
:103CC000E82E5BEF1EF00550096E038EFF0E011605
:103CD000FF0E0216FF0E0316000E0416960E0A5E65
:103CE0000ABE77EF1EF075EF1EF08DEF1EF00A5042
:103CF000800A970FD8B07FEF1EF081EF1EF083EFA0
:103D00001EF046EF1EF0D890043203320232013228
:103D10000A3E83EF1EF0A5EF1EF01F0E0A6493EF1C
:103D20001EF095EF1EF09DEF1EF046EF1EF0D890AE
:103D300001360236033604360A060A50D8A4A3EF29
:103D40001EF0A5EF1EF097EF1EF00950D8B4ABEFB0
:103D50001EF0ADEF1EF0B5EF1EF0041E031E021E96
:103D6000016C000E02220322042201C001F002C0F5
:103D700002F003C003F004C004F012000001EE5191
:103D8000DE1907E1EF51DF19D8A4C9EF1EF0CBEF20
:103D90001EF031EF1FF0F051DC1907E1F151DD1990
:103DA000D8A4D5EF1EF0D7EF1EF031EF1FF0EA5187
:103DB000DA1907E1EB51DB19D8A4E1EF1EF0E3EFCC
:103DC0001EF031EF1FF0EC51D81907E1ED51D91970
:103DD000D8A4EDEF1EF0EFEF1EF031EF1FF0E6512B
:103DE000D61907E1E751D719D8A4F9EF1EF0FBEF78
:103DF0001EF031EF1FF0E851D41907E1E951D51950
:103E0000D8A405EF1FF007EF1FF031EF1FF00A0EE7
:103E1000036E27EF1FF08168020E026E040E016E22
:103E2000BA0EE82EFED7012EFCD7022EFAD700D00C
:103E3000000E816E020E026E040E016EBA0EE82EA6
:103E4000FED7012EFCD7022EFAD700D0030603506E
:103E5000D8A42DEF1FF02FEF1FF00BEF1FF03FEF57
:103E60001FF0000E816E020E026E040E016EBA0E7D
:103E7000E82EFED7012EFCD7022EFAD700D0120072
:103E8000000E2814306E000E2914316E800E2A1494
:103E9000326E7F0E2B14336E3050311032103310CF
:103EA000D8A455EF1FF057EF1FF05FEF1FF0000E83
:103EB000286E000E296E000E2A6E000E2B6E000E6C
:103EC0002C14306E000E2D14316E800E2E14326EB6
:103ED0007F0E2F14336E3050311032103310D8A4AF
:103EE00074EF1FF076EF1FF07EEF1FF0000E2C6EC8
:103EF000000E2D6E000E2E6E000E2F6E2BAE83EF79
:103F00001FF085EF1FF08EEF1FF0286C291ED8B030
:103F1000292A2A1ED8B02A2A800E2B562FAE93EFBC
:103F20001FF095EF1FF09EEF1FF02C6C2D1ED8B0E8
:103F30002D2A2E1ED8B02E2A800E2F56000E281A9B
:103F4000000E291A000E2A1A800E2B1A000E2C1AA7
:103F5000000E2D1A000E2E1A800E2F1A2C50285CDF
:103F60002D5029582E502A582F502B58D8B0BBEF1F
:103F70001FF0BDEF1FF0C0EF1FF0D890C1EF1FF092
:103F8000D880120004C10BF005C10CF006C10DF081
:103F900007C10EF001C00BF002C00CF003C00DF021
:103FA00004C00EF00BC005F00CC006F00DC007F009
:103FB0000EC008F0180EE2EF1FF0D890083207325A
:103FC00006320532E82EDDEF1FF00550096E0A6A51
:103FD00009500A10D8A4EFEF1FF0F1EF1FF011EF16
:103FE00020F0D8900B34056E0C34066E0D34076E3D
:103FF0000E34086E0550061007100810D8A403EF01
:1040000020F005EF20F00BEF20F0000E026E020E04
:10401000016E40EF20F0000E026E030E016E40EFC5
:1040200020F009280A10D8A418EF20F01AEF20F089
:104030003CEF20F00BC005F00CC006F00DC007F0FF
:104040000EC008F0090ED890053606360736083639
:10405000E82E23EF20F00550061007100810D8B402
:1040600034EF20F037EF20F0010E38EF20F0000E93
:10407000016E026A40EF20F0000E026E040E016E27
:1040800012000001CE51CF11D8A449EF20F04BEF20
:1040900020F051EF20F0CEC013F0CFC014F057EF56
:1040A00020F0FF0ECE25136EFF0ECF21146ED2A18D
:1040B0005CEF20F05EEF20F067EF20F00FC004F01F
:1040C000056A0DC006F00EC007F018EC21F014BE12
:1040D0006CEF20F06EEF20F070EF20F074EF20F026
:1040E000000E146E000E136E000E126E000E116E96
:1040F00086EF20F0000E056E200E046E0DC006F057
:104100000EC007F018EC21F0114A122A1350115C6E
:104110001250800A106E1450800A1058D8A093EFE5
:1041200020F095EF20F07AEF20F00001D2B19BEF64
:1041300020F09DEF20F0A6EF20F00FC004F0056AFC
:104140000DC006F00EC007F018EC21F0010E11248E
:104150000D6E000E12200E6E120001C008F002C09B
:1041600009F003C00AF004C00BF00506D8A006064B
:10417000052806E10628D8A4C0EF20F0C2EF20F001
:10418000CFEF20F0000E026E000E016E17EF21F04F
:10419000084A092A0A4A0B2A0506D8A0060608C0BA
:1041A000D9FF09C0DAFFDF50D8B4D9EF20F0DBEF38
:1041B00020F006EF21F00AC0F6FF0BC0F7FF080061
:1041C000F5500009D8B4E7EF20F0E9EF20F006EF52
:1041D00021F005500610D8B4F0EF20F0F2EF20F0F7
:1041E00006EF21F008C0D9FF09C0DAFFDF50076EE3
:1041F0000AC0F6FF0BC0F7FF0800F5500718D8B447
:1042000004EF21F006EF21F0C8EF20F008C0D9FF3D
:1042100009C0DAFFDF50076E0AC0F6FF0BC0F7FFD8
:104220000800F550075C016E026AD8A00206120071
:1042300006500710D8B41FEF21F021EF21F02AEF2C
:1042400021F006500710D8A428EF21F02AEF21F022
:104250002FEF21F004504CEC25F07CEF21F020EE04
:1042600004F00650D9260750DA22DE50DE10D8B40A
:104270003CEF21F03EEF21F059EF21F020EE04F069
:104280000650D9260750DA2210EE02F00650E12639
:104290000750E222DE50E65CE650800A0C6EDE50EB
:1042A000800A0C58D8B057EF21F059EF21F07CEF7D
:1042B00021F020EE02F00650D9260750DA22DECF98
:1042C00008F0DDCF09F006C0D9FF07C0DAFFDECF66
:1042D0000AF0DDCF0BF008500A24D96E09500B20EC
:1042E000DA6E04C0DFFF20EE02F00650D926075038
:1042F000DA22DE2A000EDD2212000001D2A183EFB5
:1043000021F085EF21F08FEF21F016C00DF017C0DE
:104310000EF014C00FF015C010F06FEC25F019BEB0
:1043200094EF21F096EF21F09CEF21F018C01DF0E2
:1043300019C01EF0A0EF21F0000E1E6E000E1D6EC3
:10434000000E1C6E000E1B6EB2EF21F0000E056E0B
:10435000200E046E14C006F015C007F018EC21F012
:104360001B4A1C2A1D501B5C1C50800A1A6E1E50D2
:10437000800A1A58D8A0BFEF21F0C1EF21F0A6EFB4
:1043800021F00001D2B1C7EF21F0C9EF21F0D3EF46
:1043900021F016C00DF017C00EF014C00FF015C0BC
:1043A00010F06FEC25F016C001F017C002F026ECFB
:1043B00026F01D500124146E1E500220156E1200AE
:1043C000000E0B6E09BEE9EF21F0E7EF21F0EFEFF1
:1043D00021F0086C091ED8B0092A010E0B6E07BE29
:1043E000F6EF21F0F4EF21F0FCEF21F0066C071E50
:1043F000D8B0072A010E0B1A000E0D6E000E0C6EBF
:1044000008500910D8B407EF22F009EF22F031EF7D
:1044100022F0010E0A6E11EF22F0D890083609360C
:104420000A2A09AE16EF22F018EF22F00DEF22F063
:10443000D8900C360D360850065C09500758D8A0A5
:1044400024EF22F026EF22F02BEF22F00850065E38
:104450000950075A0C80D890093208320A2E18EFFA
:1044600022F00B50D8B437EF22F039EF22F03DEFB5
:1044700022F00C6C0D1ED8B00D2A0CC006F00DC039
:1044800007F01200000E066E02BE4BEF22F049EF5D
:1044900022F051EF22F0016C021ED8B0022A010E68
:1044A000066E04BE58EF22F056EF22F05CEF22F0C9
:1044B000036C041ED8B0042A03500410D8B463EF70
:1044C00022F065EF22F089EF22F0010E056E6DEF0C
:1044D00022F0D89003360436052A04AE72EF22F09B
:1044E00074EF22F069EF22F00350015C045002588F
:1044F000D8A07DEF22F07FEF22F083EF22F003506F
:10450000015E0450025AD89004320332052E74EF33
:1045100022F00650D8B48FEF22F091EF22F095EF01
:1045200022F0016C021ED8B0022A01C001F002C0C4
:1045300002F01200000E0114096E000E02140A6E41
:10454000800E03140B6E7F0E04140C6E09500A10BB
:104550000B100C10D8A4AFEF22F0B1EF22F0B9EF9E
:1045600022F0000E016E000E026E000E036E000EB1
:10457000046E000E0514096E000E06140A6E800EFD
:1045800007140B6E7F0E08140C6E09500A100B10E6
:104590000C10D8A4CEEF22F0D0EF22F0D8EF22F00A
:1045A000000E056E000E066E000E076E000E086E01
:1045B000055001180FE1065002180CE107500318CE
:1045C00009E108500418D8B4E8EF22F0EAEF22F02D
:1045D000EDEF22F0D890EEEF22F0D880120091ECAF
:1045E0001DF00001F24BF32BF3BF00EF23F0F3516A
:1045F00009E13C0EF25DD8A000EF23F002EF23F0BA
:104600002EEF23F0000EF36F000EF26FF64BF72B38
:10461000F7BF14EF23F0F75109E13C0EF65DD8A087
:1046200014EF23F016EF23F02EEF23F0000EF76FB8
:10463000000EF66FF44BF52BF5BF28EF23F0F55184
:1046400009E1180EF45DD8A028EF23F02AEF23F03B
:104650002EEF23F0000EF56F000EF46FD6680B0EF0
:104660005A6E260E596E5E0EE82EFED7592EFCD7D6
:104670005A2EFAD71200820E046EDE0EE82EFED7F6
:10468000042EFCD7020E91EC25F0030E046E980E5A
:10469000E82EFED7042EFCD7280E91EC25F0030E51
:1046A000046E980EE82EFED7042EFCD72C0E91EC4B
:1046B00025F0030E046E980EE82EFED7042EFCD7CC
:1046C0000C0E91EC25F0030E046E980EE82EFED72A
:1046D000042EFCD7060E91EC25F0030E046E980E06
:1046E000E82EFED7042EFCD7800E91EC25F0030EA9
:1046F000046E980EE82EFED7042EFCD712004FC091
:1047000053F050C054F0000E0001CD6F000ECC6F7E
:104710009DEF23F04DC043F04EC044F0530E456E64
:10472000000E466E51C047F052C048F078EC0AF0D7
:1047300043500001CC274450CD2353C0F6FF54C052
:10474000F7FFF86A070EF76403D00800F55005D0AC
:10475000F6CFE1FFF7CFE2FFE7500009D8A4B3EFAF
:1047600023F0B5EF23F08AEF23F0CCC04DF0CDC09D
:104770004EF01200056EF30EC116FC0EC116830E2C
:10478000C216C250830B0809C26ECBEF23F0020E93
:10479000C26EDCEF23F00550036E046A0450000A79
:1047A000D8B4D5EF23F0DCEF23F00350000AD8B4DF
:1047B000C7EF23F0DCEF23F0210EC06EC280C2826F
:1047C000C2B2E5EF23F0E7EF23F0E0EF23F0C450AF
:1047D000046E036AC3500324016E000E0420026EAF
:1047E0001200056EF30EC116FC0EC116C250830BEB
:1047F0000809C26E00EF24F00A0EC26E11EF24F019
:104800000550036E046A0450000AD8B40AEF24F07D
:1048100011EF24F00350000AD8B4FCEF23F011EF9D
:1048200024F0210EC06EC280C282C2B21AEF24F000
:104830001CEF24F015EF24F0C450046E036AC3503B
:104840000324016E000E0420026E1200036E03B0FA
:1048500002D08C9801D08C8803C002F0D89002322C
:10486000023A02468C500218DF0B02188C6E03C00D
:1048700002F0D8900232D8900232023A0246024642
:104880008C500218BF0B02188C6E03C002F0D89037
:104890000232D8900232D8900232023202328C5068
:1048A00002187F0B02188C6EA4EC26F01200BF0ECB
:1048B000096EFF0E0A6E07C00BF008C00CF009501D
:1048C0000B260A500C220C500AE11A0E0B5CD8A0E1
:1048D0006CEF24F06FEF24F0010E70EF24F0000E67
:1048E0000D6E0E6A0D500E10D8B479EF24F07BEFE8
:1048F00024F082EF24F0200E0710076E0850086E97
:1049000086EF24F007C007F008C008F0120003C0CB
:1049100007F004C008F001C009F002C00AF0075017
:10492000056E0850066E074A082A05C0F6FF06C045
:10493000F7FFF86A09C0D9FF0AC0DAFF094A0A2A54
:10494000070EF76403D00800F55005D0F6CFE1FF5D
:10495000F7CFE2FFE750DF6EDF50D8A4B2EF24F0CC
:10496000B4EF24F08FEF24F01200010E076E200E3A
:1049700001180210D8B4BFEF24F0C1EF24F0DAEF31
:1049800024F0F70E036EFF0E046E01C005F002C0A6
:1049900006F00350052604500622065009E1050ED4
:1049A000055CD8A0D6EF24F0D8EF24F0DAEF24F09D
:1049B000000E076E07C001F0026A1200B40E576EB7
:1049C000000E586EB0C059F0B1C05AF0000E5C6EC7
:1049D000000E5B6E000E5E6E000E5D6E590E4D6E2B
:1049E000000E4E6EB2C04FF0B3C050F0570E516E75
:1049F000000E526E7FEC23F05B500001B025D96EA3
:104A00005C50B121DA6E000EDF6E120041EC26F030
:104A10008BEC26F03BEC23F0010E98EC26F00C0E0C
:104A200098EC26F0000E0001F56F0C0EF46F000EEE
:104A3000F76F3B0EF66F000EF36F320EF26FF6EC6F
:104A400014F001EC18F0BEEC1EF01FEF25F000EFA3
:104A500000F0000E2C1A000E2D1A000E2E1A800ED9
:104A60002F1A28C001F029C002F02AC003F02BC081
:104A700004F02CC005F02DC006F02EC007F02FC0AA
:104A800008F0B4EC0EF001C028F002C029F003C019
:104A90002AF004C02BF01200026E0250F00B036EDD
:104AA000035005098C6E060EE82EFED700D0035089
:104AB00001098C6E030E016E980EE82EFED7012EB2
:104AC000FCD70238F00B036E035005098C6E060EFE
:104AD000E82EFED700D0035001098C6E1200000EA4
:104AE000136E000E126E80EF25F011C004F0056AFF
:104AF0000FC006F010C007F018EC21F0124A132A7C
:104B000012500D24D96E13500E20DA6EDF50116E44
:104B10001150D8A48EEF25F090EF25F075EF25F019
:104B20001200026E0250F00B036E035004098C6EEB
:104B3000060EE82EFED700D003C08CFF030E016ED8
:104B4000980EE82EFED7012EFCD70238F00B036E2C
:104B5000035004098C6E060EE82EFED700D003C069
:104B60008CFF120014BEBFEF25F0145006E11304B1
:104B7000D8B0BDEF25F0BFEF25F0CDEF25F013C085
:104B800015F014C016F0151E161E154A162A15C06B
:104B900013F016C014F0D1EF25F013C013F014C0B9
:104BA00014F01200BF0E036EFF0E046E01C005F07C
:104BB00002C006F0035005260450062206500AE102
:104BC0001A0E055CD8A0E7EF25F0EAEF25F0010EFC
:104BD000EBEF25F0000E016E026A12000150021088
:104BE00003100410D8B4F7EF25F0F9EF25F001EF2A
:104BF00026F0000E011A000E021A000E031A800E93
:104C0000041A01C001F002C002F003C003F004C0A6
:104C100004F01200D00E036EFF0E046E01C005F00A
:104C200002C006F0035005260450062206500AE191
:104C30000A0E055CD8A01FEF26F022EF26F0010E29
:104C400023EF26F0000E016E026A120001C003F08D
:104C500002C004F02EEF26F0014A022A01C0D9FF5B
:104C600002C0DAFFDF50D8A438EF26F03AEF26F082
:104C70002CEF26F00350015C016E04500258026EC6
:104C800012009268000E956E6C0ED36E0F015B974A
:104C90005B935B9B949C5D9D8B9C000E936E000EC2
:104CA0005C6F000E8A6E1200B20E576E000E586EC8
:104CB000000E4D6E000E4E6EB0C04FF0B1C050F001
:104CC000570E516E000E526E7FEC23F01200015011
:104CD0000302F3CF05F0F4CF06F001500402F350C5
:104CE000062602500302F350062605C001F006C056
:104CF00002F0120001EE00F0700EEE6AE806FDE12F
:104D000000EEC0F03E0EEE6AE806FDE1000EF86E21
:104D1000000106EF25F0D58CD58AD598D586F80EFA
:104D2000D516D668D58EF28EF28CF28AF29A1200DF
:104D3000046E8C9004380F0B0F0B26EC24F00450FB
:104D40000F0B26EC24F012008C84030E016E980EDB
:0C4D5000E82EFED7012EFCD78C94120038
:020000040020DA
:08000000FFFFFFFFFFFFFFFF00
:020000040030CA
:0E00000000285F3CFFD381FF0FC00FE00F40D0
:00000001FF
