:020000040000FA
:04000000BBEF26F03C
:1008000000256425643A256425643A25642564201E
:10081000412E4D00256425643A256425643A2564FB
:10082000256420502E4D0054656D702E203D2025EE
:10083000332E32662025634300204D6F646F2041C4
:100840006C61726D612000494E46004E414E006958
:0B0850006E66006E616E006C660000BA
:10085C00000E00017B6F000E7A6F48C08CF049C00F
:10086C008DF04AC08EF04BC08FF08FBF42EF04F07A
:10087C0040EF04F058EF04F0000E7B6F010E7A6F1E
:10088C008CC001F08DC002F08EC003F08FC004F05C
:10089C002EEC26F001C08CF002C08DF003C08EF05F
:1008AC0004C08FF0000E0001936F000E926FD4C045
:1008BC007EF0D5C07FF07A517B11D8A468EF04F09C
:1008CC006AEF04F071EF04F0D8A56FEF04F071EF4C
:1008DC0004F08BEF04F07A517B11D8A478EF04F07C
:1008EC007AEF04F080EF04F0000E616F2B0E606F56
:1008FC0084EF04F0000E616F2D0E606F60C016F176
:10090C00924B932B7E07D8A07F078CC001F08DC033
:10091C0002F08EC003F08FC004F02BEC20F0010429
:10092C000210D8A49CEF04F09EEF04F0F5EF04F055
:10093C00BF0E4D6EFF0E4E6E4C504F6E506A4D50AA
:10094C004F264E50502250500AE11A0E4F5CD8A040
:10095C00B2EF04F0B5EF04F0010EB6EF04F0000EA8
:10096C000001626F636B62516311D8B4C0EF04F085
:10097C00C2EF04F0D0EF04F0160E9225016E010EBA
:10098C009321026E470E036E080E046EC6EC24F023
:10099C00DCEF04F0160E9225016E010E9321026E0F
:1009AC004F0E036E080E046EC6EC24F00001FD0E13
:1009BC007E27FF0E7F2346C014F047C015F0160E9D
:1009CC00166E010E176E7EC018F07FC019F0E6ECA3
:1009DC0021F014C046F015C047F059EF0AF08CC056
:1009EC0001F08DC002F08EC003F08FC004F02BEC30
:1009FC0020F001500210D8A406EF05F008EF05F026
:100A0C0048EF05F0BF0E4D6EFF0E4E6E4C504F6E04
:100A1C00506A4D504F264E50502250500AE11A0E3B
:100A2C004F5CD8A01CEF05F01FEF05F0010E20EF76
:100A3C0005F0000E0001646F656B64516511D8B44C
:100A4C002AEF05F02CEF05F03AEF05F0160E922583
:100A5C00016E010E9321026E4B0E036E080E046E96
:100A6C00C6EC24F0DCEF04F0160E9225016E010E9C
:100A7C009321026E530E036E080E046EC6EC24F026
:100A8C00DCEF04F0000E0001946F000E956F800EE9
:100A9C00966F3F0E976F000E916F000E906F8CC08B
:100AAC0001F08DC002F08EC003F08FC004F0000E78
:100ABC00056E000E066E000E076E000E086E5AECE8
:100ACC0023F0D8B06CEF05F06EEF05F0F1EF05F008
:100ADC008DEF05F094C019F095C01AF096C01BF07C
:100AEC0097C01CF0000E1D6E000E1E6E200E1F6EA9
:100AFC00410E206EF6EC10F019C094F01AC095F06F
:100B0C001BC096F01CC097F00001904B912B8CC031
:100B1C003AF08DC03BF08EC03CF08FC03DF0000E23
:100B2C001D6E000E1E6E200E1F6E410E206E94C0A8
:100B3C0019F095C01AF096C01BF097C01CF0F6EC9B
:100B4C0010F019C03EF01AC03FF01BC040F01CC0A2
:100B5C0041F0A9EC1FF0D8B0B6EF05F0B8EF05F0F6
:100B6C0070EF05F0D8EF05F094C001F095C002F0DD
:100B7C0096C003F097C004F0000E056E000E066ED2
:100B8C00200E076E410E086E0BEC13F001C094F0B2
:100B9C0002C095F003C096F004C097F000019007D6
:100BAC00D8A091078CC03AF08DC03BF08EC03CF0C1
:100BBC008FC03DF094C03EF095C03FF096C040F021
:100BCC0097C041F0A9EC1FF0D8A0EFEF05F0F1EFC2
:100BDC0005F0BAEF05F04CC007F0086A96EC24F06B
:100BEC0007500001816F81C080F0670E8119D8A475
:100BFC0002EF06F004EF06F02AEF06F0D651D711FB
:100C0C00D8A40BEF06F00DEF06F011EF06F0000E76
:100C1C00D76F010ED66FD7BF1EEF06F0D75106E186
:100C2C00D605D8B01CEF06F01EEF06F024EF06F048
:100C3C00000E7D6F060E7C6F33EF06F0D6C07CF095
:100C4C00D7C07DF033EF06F0D7BF2FEF06F031EFB2
:100C5C0006F01EEF06F024EF06F0670E8119D8A4FB
:100C6C003AEF06F03CEF06F06BEF06F091AF4AEF6F
:100C7C0006F0FC0E905DFF0E9159D8A048EF06F0DF
:100C8C004AEF06F069EF06F0FF0E4D6EFF0E4E6E4A
:100C9C007CC04FF07DC050F04D504F264E5050222E
:100CAC0090514F5C5050800A516E9151800A5158AE
:100CBC00D8A063EF06F065EF06F069EF06F0660E5C
:100CCC00806F6BEF06F0650E806F7CC072F07DC09C
:100CDC0073F0670E8119D8A476EF06F078EF06F062
:100CEC0088EF06F0660E8019D8A47FEF06F081EF2E
:100CFC0006F08AEF06F091BF88EF06F086EF06F05B
:100D0C008AEF06F0724B732B660E8019D8A491EF04
:100D1C0006F093EF06F0B3EF06F091BF9AEF06F0F2
:100D2C0098EF06F0A6EF06F0000E946F000E956F8C
:100D3C00800E966F3F0E976F000E916F000E906FA6
:100D4C00670E8119D8B4ADEF06F0AFEF06F0B3EF34
:100D5C0006F09051722791517323000E8B6F000E89
:100D6C008A6F8CC082F08DC083F08EC084F08FC0EF
:100D7C0085F094C074F095C075F096C076F097C06D
:100D8C0077F044EF07F082C001F083C002F084C01A
:100D9C0003F085C004F094C005F095C006F096C031
:100DAC0007F097C008F00BEC13F001C01AF002C06A
:100DBC001BF003C01CF004C01DF0A5EC19F01AC008
:100DCC0086F01BC087F01CC088F01DC089F086C05F
:100DDC0001F087C002F088C003F089C004F0A4ECD5
:100DEC001EF001C078F002C079F082C032F083C0EE
:100DFC0033F084C034F085C035F094C01DF095C03C
:100E0C001EF096C01FF097C020F086C019F087C066
:100E1C001AF088C01BF089C01CF0F6EC10F019C059
:100E2C0036F01AC037F01BC038F01CC039F069EC32
:100E3C0025F032C082F033C083F034C084F035C06A
:100E4C0085F094C001F095C002F096C003F097C0F5
:100E5C0004F0000E056E000E066E200E076E410E9D
:100E6C00086E0BEC13F001C094F002C095F003C0B7
:100E7C0096F004C097F000018A4B8B2B72518A5D5F
:100E8C008B51800A4D6E7351800A4D58D8A051EF8A
:100E9C0007F053EF07F0C9EF06F094C019F095C0B6
:100EAC001AF096C01BF097C01CF0000E1D6E000EC1
:100EBC001E6EA00E1F6E400E206EF6EC10F019C0C8
:100ECC0086F01AC087F01BC088F01CC089F082C065
:100EDC003AF083C03BF084C03CF085C03DF086C046
:100EEC003EF087C03FF088C040F089C041F0A9ECCB
:100EFC001FF0D8B084EF07F086EF07F091EF07F002
:100F0C00000E0001866F000E876F000E886F000EBA
:100F1C00896FBAEF07F082C001F083C002F084C081
:100F2C0003F085C004F086C005F087C006F088C0C9
:100F3C0007F089C008F05AEC23F0D8A0A8EF07F00E
:100F4C00AAEF07F0BAEF07F0000178B1B0EF07F0A5
:100F5C00B2EF07F0BAEF07F0000E866F000E876F46
:100F6C00000E886F000E896F8CC001F08DC002F0EE
:100F7C008EC003F08FC004F086C005F087C006F069
:100F8C0088C007F089C008F096EC0EF001C082F022
:100F9C0002C083F003C084F004C085F082C03AF034
:100FAC0083C03BF084C03CF085C03DF0000E1D6E4C
:100FBC00000E1E6E200E1F6E410E206E74C019F0B6
:100FCC0075C01AF076C01BF077C01CF0F6EC10F070
:100FDC0019C03EF01AC03FF01BC040F01CC041F0DD
:100FEC00A9EC1FF0D8A0FDEF07F0FFEF07F028EFFA
:100FFC0008F00001904B912B74C019F075C01AF0D9
:10100C0076C01BF077C01CF0000E1D6E000E1E6E1D
:10101C00200E1F6E410E206EF6EC10F019C074F00D
:10102C001AC075F01BC076F01CC077F0660E00017C
:10103C008019D8A424EF08F026EF08F028EF08F068
:10104C00724B732B74C094F075C095F076C096F00B
:10105C0077C097F0650E00018019D8B438EF08F00E
:10106C003AEF08F040EF08F090C070F091C071F0CA
:10107C0044EF08F0000E716F000E706F000E6F6F72
:10108C00000E6E6F000E6D6F000E6C6F000E8B6F8E
:10109C00000E8A6F3FEF09F082C001F083C002F0AE
:1010AC0084C003F085C004F094C005F095C006F030
:1010BC0096C007F097C008F00BEC13F001C01AF0C3
:1010CC0002C01BF003C01CF004C01DF0A5EC19F00D
:1010DC001AC086F01BC087F01CC088F01DC089F0B8
:1010EC0086C001F087C002F088C003F089C004F00C
:1010FC00A4EC1EF001C078F002C079F00001D8B960
:10110C008AEF08F08CEF08F0A9EF08F0785179110C
:10111C00D8A493EF08F095EF08F0A9EF08F0670E4C
:10112C008119D8A49CEF08F09EEF08F0A9EF08F005
:10113C0071BFA5EF08F0A3EF08F0A9EF08F06C4B16
:10114C006D2BF3EF08F06E516F11D8A4B0EF08F0CF
:10115C00B2EF08F0DCEF08F071BFB9EF08F0B7EFB1
:10116C0008F0DCEF08F0160E9225D96E010E9321D3
:10117C00DA6E2E0EDF6E924B932B7E07D8A07F0774
:10118C00000E6F6F010E6E6FDCEF08F0160E9225DD
:10119C00D96E010E9321DA6E300EDF6E924B932BCB
:1011AC007E07D8A07F076C07D8A06D076C516D1116
:1011BC00D8A4E3EF08F0E5EF08F0CCEF08F0160E3A
:1011CC009225D96E010E9321DA6E7851300FDF6EB5
:1011DC00924B932B7E07D8A07F0782C032F083C03E
:1011EC0033F084C034F085C035F094C01DF095C048
:1011FC001EF096C01FF097C020F086C019F087C073
:10120C001AF088C01BF089C01CF0F6EC10F019C065
:10121C0036F01AC037F01BC038F01CC039F069EC3E
:10122C0025F032C082F033C083F034C084F035C076
:10123C0085F094C001F095C002F096C003F097C001
:10124C0004F0000E056E000E066E200E076E410EA9
:10125C00086E0BEC13F001C094F002C095F003C0C3
:10126C0096F004C097F000017007D8A071078A4B64
:10127C008B2B72518A5D8B51800A4D6E7351800A93
:10128C004D58D8B04CEF09F04EEF09F05CEF09F077
:10129C0093BF5AEF09F0935109E14B0E925DD8A020
:1012AC005AEF09F05CEF09F052EF08F06E516F1134
:1012BC00D8A463EF09F065EF09F076EF09F0D8A92F
:1012CC006AEF09F06CEF09F076EF09F0160E922533
:1012DC00D96E010E9321DA6E2E0EDF6E924B932B8C
:1012EC00160E9225D96E010E9321DA6E000EDF6E6A
:1012FC00650E8019D8A485EF09F087EF09F0E1EFAE
:10130C0004F0000E8B6F4F0E8A6F160E8A25D96E65
:10131C00010E8B21DA6E000EDF6E000E7B6F000E5D
:10132C007A6F91BF9EEF09F09CEF09F0A6EF09F0E0
:10133C00000E7B6F010E7A6F906D911FD8B0912BC0
:10134C00000E7D6F020E7C6FD7EF09F08A07D8A0D4
:10135C008B07160E8A25D96E010E8B21DA6E90C082
:10136C0001F091C002F0000E046E0A0E036EABEC9D
:10137C0022F00150300FDF6E90C006F091C007F0E4
:10138C00000E096E0A0E086E49EC22F006C090F0B1
:10139C0007C091F000017C07D8A07D077E07D8A07C
:1013AC007F0790519111D8A4DEEF09F0E0EF09F01E
:1013BC00ACEF09F07DBFEDEF09F07D5106E17C0546
:1013CC00D8B0EBEF09F0EDEF09F0ACEF09F08A07BC
:1013DC00D8A08B077A517B11D8A4F7EF09F0F9EF5D
:1013EC0009F0FFEF09F0000E676F2B0E666F03EF2D
:1013FC000AF0000E676F2D0E666F160E8A25D96ED9
:10140C00010E8B21DA6E66C0DFFF7E07D8A07F0746
:10141C008A07D8A08B07BF0E4D6EFF0E4E6E4C5038
:10142C004F6E506A4D504F264E50502250500AE18C
:10143C001A0E4F5CD8A025EF0AF028EF0AF0010E27
:10144C0029EF0AF0000E6A6F6B6B6A516B11D8A40E
:10145C0032EF0AF034EF0AF03AEF0AF0000E696F3F
:10146C00650E686F3EEF0AF0000E696F450E686FEF
:10147C00160E8A25D96E010E8B21DA6E68C0DFFF3D
:10148C007E07D8A07F07160E9225016E010E9321C0
:10149C00026E160E8A25036E010E8B21046EC6ECAD
:1014AC0024F0E1EF04F0120054C0D9FF55C0DAFF6C
:1014BC00DECFF6FFDECFF7FF070EF76403D0080090
:1014CC00F55005D0F6CFE1FFF7CFE2FFE750250A44
:1014DC00D8A473EF0AF075EF0AF06FEF0EF054C05A
:1014EC00D9FF55C0DAFFDE2A000EDD22000E000106
:1014FC00D56F000ED46FD4C0D8F0D5C0D9F0D66952
:10150C00D76954C0D9FF55C0DAFFDECFF6FFDECF66
:10151C00F7FF070EF76403D00800F55005D0F6CF9F
:10152C00E1FFF7CFE2FFE7502A0AD8A4A0EF0AF0B8
:10153C00A2EF0AF0CCEF0AF054C0D9FF55C0DAFF85
:10154C00DE2A000EDD2256C0D9FF57C0DAFFDFCFEE
:10155C0058F0020EDE26DFCF59F0000EDD2258C007
:10156C00D9FF59C0DAFFDECFD4F0DDCFD5F00001C2
:10157C00D5BFC5EF0AF0C3EF0AF019EF0BF0D88115
:10158C00D46DD51FD8B0D52B19EF0BF054C0D9FFA3
:10159C0055C0DAFFDECF08F0DDCF09F0AEEC1AF063
:1015AC0008C0D4F009C0D5F0E3EF0AF054C0D9FF5D
:1015BC0055C0DAFFDE2A000EDD22D00E586EFF0E6B
:1015CC00596E54C0D9FF55C0DAFFDECFF6FFDECF1F
:1015DC00F7FF070EF76403D00800F55005D0F6CFDF
:1015EC00E1FFF7CFE2FFE7505A6E5B6A58505A267C
:1015FC0059505B225B500AE10A0E5A5CD8A009EFE5
:10160C000BF00CEF0BF0010E0DEF0BF0000E0001C8
:10161C00A26FA36BA251A311D8A417EF0BF019EF73
:10162C000BF0DCEF0AF054C0D9FF55C0DAFFDECF67
:10163C00F6FFDECFF7FF070EF76403D00800F55076
:10164C0005D0F6CFE1FFF7CFE2FFE7502E0AD8A482
:10165C0032EF0BF034EF0BF0C5EF0BF0000E000186
:10166C00D76F000ED66F54C0D9FF55C0DAFFDE2AF3
:10167C00000EDD2254C0D9FF55C0DAFFDECFF6FFD5
:10168C00DECFF7FF070EF76403D00800F55005D046
:10169C00F6CFE1FFF7CFE2FFE7502A0AD8A459EFC3
:1016AC000BF05BEF0BF078EF0BF054C0D9FF55C08B
:1016BC00DAFFDE2A000EDD2256C0D9FF57C0DAFF52
:1016CC00DFCF58F0020EDE26DFCF59F0000EDD2200
:1016DC0058C0D9FF59C0DAFFDECFD6F0DDCFD7F036
:1016EC00C5EF0BF054C0D9FF55C0DAFFDECF08F0C0
:1016FC00DDCF09F0AEEC1AF008C0D6F009C0D7F077
:10170C008FEF0BF054C0D9FF55C0DAFFDE2A000E64
:10171C00DD22D00E586EFF0E596E54C0D9FF55C045
:10172C00DAFFDECFF6FFDECFF7FF070EF76403D04C
:10173C000800F55005D0F6CFE1FFF7CFE2FFE750F8
:10174C005A6E5B6A58505A2659505B225B500AE11C
:10175C000A0E5A5CD8A0B5EF0BF0B8EF0BF0010EE7
:10176C00B9EF0BF0000E0001A46FA56BA451A511ED
:10177C00D8A4C3EF0BF0C5EF0BF088EF0BF054C0FF
:10178C00D9FF55C0DAFFDECFF6FFDECFF7FF070E2D
:10179C00F76403D00800F55005D0F6CFE1FFF7CF82
:1017AC00E2FFE750586E5850076E086A96EC24F02A
:1017BC0007500001AC6FAC51D8B4E7EF0BF0E9EF78
:1017CC000BF03BEF0CF054C0D9FF55C0DAFFDECF65
:1017DC0058F0DDCF59F0010E5826000E592258C092
:1017EC00F6FF59C0F7FFF86A070EF76403D008003C
:1017FC00F55005D0F6CFE1FFF7CFE2FFE7505A6E78
:10180C005A50076E086A96EC24F007500001AD6F31
:10181C00AD51D8B414EF0CF016EF0CF03BEF0CF00C
:10182C0054C0D9FF55C0DAFFDECF58F0DDCF59F0E8
:10183C00020E5826000E592258C0F6FF59C0F7FF69
:10184C00F86A070EF76403D00800F55005D0F6CF00
:10185C00E1FFF7CFE2FFE7505A6E5A50076E086A65
:10186C0096EC24F007500001AE6F54C0D9FF55C060
:10187C00DAFFDECFF6FFDECFF7FF070EF76403D0FB
:10188C000800F55005D0F6CFE1FFF7CFE2FFE750A7
:10189C00630AD8A454EF0CF056EF0CF07EEF0CF06A
:1018AC0054C0D9FF55C0DAFFDE2A000EDD2256C027
:1018BC00D9FF57C0DAFFDFCF58F0020EDE26DFCF9C
:1018CC0059F0000EDD2258C0D9FF59C0DAFFDF50A5
:1018DC000001AF6F52C00DF053C00EF0AFC00FF04F
:1018EC00AAEC20F00DC052F00EC053F095EF0EF0A4
:1018FC0054C0D9FF55C0DAFFDECFF6FFDECFF7FFBD
:10190C00070EF76403D00800F55005D0F6CFE1FFC1
:10191C00F7CFE2FFE750640AD8B497EF0CF099EFD9
:10192C000CF0B4EF0CF054C0D9FF55C0DAFFDECF89
:10193C00F6FFDECFF7FF070EF76403D00800F55073
:10194C0005D0F6CFE1FFF7CFE2FFE750690AD8A444
:10195C00B2EF0CF0B4EF0CF0F5EF0CF054C0D9FF73
:10196C0055C0DAFFDE2A000EDD2256C0D9FF57C063
:10197C00DAFFDFCF58F0020EDE26DFCF59F0000E73
:10198C00DD2258C0D9FF59C0DAFFDECF98F0DDCF89
:10199C0099F00001000E99BFFF0E9A6F9B6F9C6F20
:1019AC009D6F9E6F9F6F52C01FF053C020F098C068
:1019BC0021F099C022F09AC023F09BC024F09CC067
:1019CC0025F09DC026F09EC027F09FC028F0D8ECD3
:1019DC0014F01FC052F020C053F095EF0EF0660EBD
:1019EC000001AC19D8A4FDEF0CF0FFEF0CF049EF9F
:1019FC000DF054C0D9FF55C0DAFFDECFF6FFDECFB5
:101A0C00F7FF070EF76403D00800F55005D0F6CFAA
:101A1C00E1FFF7CFE2FFE7500001AF6F54C0D9FFF1
:101A2C0055C0DAFFDE2A000EDD2256C0D9FF57C0A2
:101A3C00DAFFDFCF58F0040EDE26DFCF59F0000EB0
:101A4C00DD2258C0D9FF59C0DAFFDECFA8F0DECFB7
:101A5C00A9F0DECFAAF0DECFABF052C046F053C0F7
:101A6C0047F0A8C048F0A9C049F0AAC04AF0ABC0E2
:101A7C004BF0AFC04CF02EEC04F046C052F047C017
:101A8C0053F095EF0EF0AC0E016E000E026E570E79
:101A9C00036E080E046E000E066E020E056E16EC3A
:101AAC0021F001500210D8A45EEF0DF060EF0DF0A4
:101ABC00F0EF0DF054C0D9FF55C0DAFFDECF58F06F
:101ACC00DDCF59F0010E5826000E592258C0F6FFF2
:101ADC0059C0F7FFF86A070EF76403D00800F550F9
:101AEC0005D0F6CFE1FFF7CFE2FFE7500001AF6F73
:101AFC00BF0E586EFF0E596E54C0D9FF55C0DAFF99
:101B0C00DECFF6FFDECFF7FF070EF76403D0080039
:101B1C00F55005D0F6CFE1FFF7CFE2FFE7505A6E54
:101B2C005B6A58505A2659505B225B500AE11A0ED8
:101B3C005A5CD8A0A4EF0DF0A7EF0DF0010EA8EFA2
:101B4C000DF0000E0001A66FA76BA651A711D8B41B
:101B5C00B2EF0DF0B4EF0DF0CEEF0DF056C0D9FF93
:101B6C0057C0DAFFDFCF58F0040EDE26DFCF59F076
:101B7C00000EDD2258C0D9FF59C0DAFFDECFA8F025
:101B8C00DECFA9F0DECFAAF0DECFABF0E6EF0DF0A2
:101B9C0056C0D9FF57C0DAFFDFCF58F0040EDE264F
:101BAC00DFCF59F0000EDD2258C0D9FF59C0DAFF43
:101BBC00DECFA8F0DECFA9F0DECFAAF0DECFABF0FF
:101BCC00020E54C0D9FF55C0DAFFDE26000EDD220E
:101BDC0033EF0DF054C0D9FF55C0DAFFDECFF6FF5E
:101BEC00DECFF7FF070EF76403D00800F55005D0E1
:101BFC00F6CFE1FFF7CFE2FFE7506E0AD8A409EF6A
:101C0C000EF00BEF0EF034EF0EF054C0D9FF55C0B0
:101C1C00DAFFDE2A000EDD2256C0D9FF57C0DAFFEC
:101C2C00DFCF58F0020EDE26DFCF59F0000EDD229A
:101C3C0058C0D9FF59C0DAFFDECFA0F0DDCFA1F03C
:101C4C00A0C0D9FFA1C0DAFFD2C0DEFFD3C0DDFF38
:101C5C00000E536E000E526E95EF0EF054C0D9FF6D
:101C6C0055C0DAFFDECFF6FFDECFF7FF070EF764C5
:101C7C0003D00800F55005D0F6CFE1FFF7CFE2FF17
:101C8C00E750250AD8A44DEF0EF04FEF0EF066EF9B
:101C9C000EF054C0D9FF55C0DAFFDE2A000EDD224B
:101CAC00000E056E250E046E52C006F053C007F0F0
:101CBC0081EC21F0000E536E010E526E95EF0EF07A
:101CCC0054C0D9FF55C0DAFFDE2A000EDD222EEFFC
:101CDC000EF054C0D9FF55C0DAFFDECFF6FFDECFD1
:101CEC00F7FF070EF76403D00800F55005D0F6CFC8
:101CFC00E1FFF7CFE2FFE750586E5850046E056ACB
:101D0C0052C006F053C007F081EC21F054C0D9FF4B
:101D1C0055C0DAFFDE2A000EDD2260EF0EF0120055
:101D2C000450800B0D6E045004240F6E03AEA1EF13
:101D3C000EF0A3EF0EF0A4EF0EF00F800F50D8B4FE
:101D4C00AAEF0EF0ACEF0EF0C1EF0EF00F28D8A4F6
:101D5C00B2EF0EF0B4EF0EF0BCEF0EF0000E016E11
:101D6C00000E026E000E036E000E046E038E000E4B
:101D7C00046EC9EF0EF0000E016E000E026E000E26
:101D8C00036E000E046E0850800B0E6E0D500E1874
:101D9C00D8B4D3EF0EF0D5EF0EF0D6EF0EF00D8CCD
:101DAC00085008240E6E07AEDEEF0EF0E0EF0EF0DA
:101DBC00E1EF0EF00E800E50D8B4E7EF0EF0E9EF25
:101DCC000EF0FEEF0EF00E28D8A4EFEF0EF0F1EFB0
:101DDC000EF0F9EF0EF0000E056E000E066E000E02
:101DEC00076E000E086E078E000E086E06EF0FF0E1
:101DFC00000E056E000E066E000E076E000E086ECD
:101E0C000F500E5CD8B00DEF0FF00FEF0FF036EF58
:101E1C000FF00DAC14EF0FF016EF0FF018EF0FF0F2
:101E2C00800E0D1A0FC010F00EC00FF010C00EF087
:101E3C0001C010F005C001F010C005F002C010F098
:101E4C0006C002F010C006F003C010F007C003F08B
:101E5C0010C007F004C010F008C004F010C008F067
:101E6C00000E106E0F500EC009F00A6A095E000ECB
:101E7C000A5A0ABE4BEF0FF00A5009E11A0E095C20
:101E8C00D8A04BEF0FF04DEF0FF084EF0FF0015097
:101E9C00021003100410D8A456EF0FF059EF0FF0F6
:101EAC00010E5AEF0FF0000E106E000E016E000EB8
:101EBC00026E000E036E000E046E0EC00FF08DEF5E
:101ECC000FF010A06CEF0FF06EEF0FF074EF0FF03F
:101EDC00D89010300109106E76EF0FF0D8901032B8
:101EEC0001A07BEF0FF07DEF0FF07EEF0FF0108E67
:101EFC00043404320332023201320F2A0E500F5CCA
:101F0C00D8A08BEF0FF08DEF0FF067EF0FF00DBC3B
:101F1C0092EF0FF094EF0FF0D4EF0FF00F50D8A416
:101F2C009AEF0FF09CEF0FF0A6EF0FF0000E016E82
:101F3C00000E026E000E036E000E046EF5EF10F034
:101F4C000550012606500222075003220850042295
:101F5C0004A0B3EF0FF0B5EF0FF061EF10F010A08D
:101F6C00BAEF0FF0BCEF0FF0C2EF0FF0D8901030BB
:101F7C000109106EC4EF0FF0D890103201A0C9EF18
:101F8C000FF0CBEF0FF0CCEF0FF0108E04340432C7
:101F9C000332023201320F2A61EF10F00550015C5E
:101FAC0006500258075003580450800A096E085016
:101FBC00800A0958D8B0E5EF0FF0E7EF0FF012EFF9
:101FCC0010F00150055C096E025006580A6E035061
:101FDC0007580B6E045008580C6EFF0E0924016E46
:101FEC00FF0E0A20026EFF0E0B20036EFF0E0C205C
:101FFC00046E800E0D1A106C1050D8A408EF10F05F
:10200C000AEF10F01AEF10F0010E0126000E02225A
:10201C00032204221AEF10F00550015E0650025AFA
:10202C000750035A0850045A0150021003100410B0
:10203C00D8A423EF10F025EF10F05AEF10F0105049
:10204C00D8A42BEF10F02DEF10F05AEF10F0000E7B
:10205C00016E000E026E000E036E000E046EF5EFA4
:10206C0010F0D890013602360336043610AE41EF2C
:10207C0010F043EF10F044EF10F0018010A049EF86
:10208C0010F04BEF10F04FEF10F0D880103651EFEE
:10209C0010F0D89010360F50D8B457EF10F059EF0D
:1020AC0010F05AEF10F00F0603AE5FEF10F061EF77
:1020BC0010F037EF10F0000E0E6E10AE68EF10F04F
:1020CC006AEF10F082EF10F010C009F07F0E0916C5
:1020DC00D8B473EF10F075EF10F079EF10F0010E2B
:1020EC000E6E82EF10F001A07EEF10F080EF10F07A
:1020FC0082EF10F075EF10F00E50D8B488EF10F09E
:10210C008AEF10F0B5EF10F0010E0126000E02223E
:10211C000322042204A095EF10F097EF10F0B5EF16
:10212C0010F001C009F002C00AF003C00BF004C0AB
:10213C000CF00C340C320B320A32093209C001F0AB
:10214C000AC002F00BC003F00CC004F00F28D8B486
:10215C00B2EF10F0B4EF10F0B5EF10F00F2A0F281B
:10216C00D8B4BBEF10F0BDEF10F0C5EF10F00F506E
:10217C00D8A4C3EF10F0C5EF10F0D7EF10F0000E9D
:10218C00016E000E026E000E036E000E046E0F50F8
:10219C00D8A4D3EF10F0D5EF10F0D7EF10F0000E5D
:1021AC000D6E0FA0DCEF10F0DEEF10F0E1EF10F091
:1021BC00038EE2EF10F0039ED8900F30046E0DAE3C
:1021CC00EAEF10F0ECEF10F0EDEF10F0048E01C020
:1021DC0001F002C002F003C003F004C004F01200CE
:1021EC001C50800B256E1C501C242B6E1BAE01EF5B
:1021FC0011F003EF11F004EF11F02B802B50D8B439
:10220C000AEF11F00CEF11F01FEF11F02B28D8A4EE
:10221C0012EF11F014EF11F01CEF11F0000E196E0B
:10222C00000E1A6E000E1B6E000E1C6E1B8E27EF1E
:10223C0011F0000E196E000E1A6E000E1B6E000EC1
:10224C001C6E2050800B251A205020242A6E1FAEA5
:10225C0032EF11F034EF11F035EF11F02A802A50E3
:10226C00D8B43BEF11F03DEF11F050EF11F02A28EC
:10227C00D8A443EF11F045EF11F04DEF11F0000E23
:10228C001D6E000E1E6E000E1F6E000E206E1F8E39
:10229C0058EF11F0000E1D6E000E1E6E000E1F6E1C
:1022AC00000E206E2A50D8B45EEF11F060EF11F0E2
:1022BC0068EF11F02B50D8A466EF11F068EF11F015
:1022CC0072EF11F0000E196E000E1A6E000E1B6EDE
:1022DC00000E1C6E0AEF13F01F501902F3CF30F0F2
:1022EC00F4CF31F03050266E276A286A296A3150B3
:1022FC002C6E2D6A2E6A2F6A1E501A02F3CF30F004
:10230C00F4CF31F030502626000E27222822292225
:10231C0031502C26000E2D222E222F221D501B0256
:10232C00F3CF30F0F4CF31F030502626000E2722B8
:10233C002822292231502C26000E2D222E222F222B
:10234C0028C029F027C028F026C027F0266A1D5087
:10235C001A02F3CF30F0F4CF31F030502626315042
:10236C002722000E2822000E29221E501902F3CF1C
:10237C0030F0F4CF31F03050262631502722000EA9
:10238C002822000E292228C029F027C028F026C0B8
:10239C0027F0266A1D501902F3CF30F0F4CF31F03C
:1023AC003050262631502722000E2822000E2922DA
:1023BC001F501A02F3CF30F0F4CF31F030502C26EE
:1023CC0031502D22000E2E22000E2F221E501B02E9
:1023DC00F3CF30F0F4CF31F030502C2631502D2289
:1023EC00000E2E22000E2F221F501B02F3CF30F0B6
:1023FC00F4CF31F03050216E3150226E236A246AB2
:10240C0023C024F022C023F021C022F0216A2150E5
:10241C002C2622502D2223502E2224502F2226C02F
:10242C0021F027C022F028C023F029C024F0190E77
:10243C0025EF12F0D8902432233222322132E82EAA
:10244C0020EF12F021502C2622502D2223502E2228
:10245C0024502F2228C029F027C028F026C027F0AE
:10246C00266A2A502BC021F0226A2126000E222235
:10247C00820E2124306EFF0E2220316E5BEF12F0A3
:10248C00D8902C362D362E362F3629AE50EF12F032
:10249C0052EF12F053EF12F02C80D89026362736DC
:1024AC00283629363006D8A031062EAE60EF12F051
:1024BC0062EF12F046EF12F0000E2A6E29AE69EFB1
:1024CC0012F06BEF12F08FEF12F0FF0E2614216E4C
:1024DC00FF0E2714226EFF0E2814236E7F0E291474
:1024EC00246E2150221023102410D8B480EF12F047
:1024FC0082EF12F086EF12F0010E2A6E8FEF12F0BF
:10250C002CA08BEF12F08DEF12F08FEF12F082EF08
:10251C0012F02A50D8B495EF12F097EF12F0BBEFEF
:10252C0012F0010E2C26000E2D222E222F222FA06F
:10253C00A2EF12F0A4EF12F0BBEF12F02CC021F0BE
:10254C002DC022F02EC023F02FC024F024342432CE
:10255C0023322232213221C02CF022C02DF023C094
:10256C002EF024C02FF0304A312A31BEC6EF12F0C3
:10257C00315008E13028D8A0C6EF12F0C8EF12F0A5
:10258C00D2EF12F0000E2C6E000E2D6E800E2E6E01
:10259C007F0E2F6E00EF13F031BEDFEF12F03150D3
:1025AC0006E13004D8B0DDEF12F0DFEF12F0EBEF04
:1025BC0012F0000E2C6E000E2D6E000E2E6E000E04
:1025CC002F6E000E256E00EF13F030C02BF0FF0EB7
:1025DC002C16FF0E2D167F0E2E16000E2F162BA06E
:1025EC00FAEF12F0FCEF12F0FDEF12F02E8ED890F5
:1025FC002B302F6E25502F122CC019F02DC01AF035
:10260C002EC01BF02FC01CF012000450800B116E5A
:10261C0004500424186E03AE16EF13F018EF13F0E9
:10262C0019EF13F018801850D8B41FEF13F021EFE6
:10263C0013F036EF13F01828D8A427EF13F029EF76
:10264C0013F031EF13F0000E016E000E026E000E4F
:10265C00036E000E046E038E000E046E3EEF13F03C
:10266C00000E016E000E026E000E036E000E046E64
:10267C000850800B111A08500824196E07AE49EF48
:10268C0013F04BEF13F04CEF13F019801950D8B432
:10269C0052EF13F054EF13F069EF13F01928D8A48C
:1026AC005AEF13F05CEF13F064EF13F0000E056EAD
:1026BC00000E066E000E076E000E086E078E000EE2
:1026CC00086E71EF13F0000E056E000E066E000E14
:1026DC00076E000E086E0550061007100810D8A4DF
:1026EC007AEF13F07CEF13F094EF13F0000E016E01
:1026FC00000E026E000E036E000E046E800E0312AE
:10270C007F0E04121150041201C001F002C002F03D
:10271C0003C003F004C004F0D7EF14F01850D8A491
:10272C009AEF13F09CEF13F0A6EF13F0000E016E6E
:10273C00000E026E000E036E000E046ED7EF14F046
:10274C00195018C009F00A6A095E000E0A5A7F0E69
:10275C000924126E000E0A20136E01C00DF002C087
:10276C000EF003C00FF004C010F0000E016E000E4E
:10277C00026E000E036E000E046E000E146E000E40
:10278C00156E000E166E000E176E000E196E07EF0A
:10279C0014F01950D8B4D5EF13F0D7EF13F0EEEFC7
:1027AC0013F0D8900D360E360F361036D890013601
:1027BC0002360336043617AEE6EF13F0E8EF13F0EB
:1027CC00E9EF13F00180D89014361536163617360B
:1027DC0005500D5C06500E5807500F5808501058F5
:1027EC00D8A0FBEF13F0FDEF13F006EF14F0178CED
:1027FC0005500D5E06500E5A07500F5A0850105ACD
:10280C00192A190E19640DEF14F00FEF14F0CFEF15
:10281C0013F00D500E100F101010D8B418EF14F058
:10282C001AEF14F032EF14F0148032EF14F0D89049
:10283C00013602360336043617AE27EF14F029EFB3
:10284C0014F02AEF14F00180D89014361536163691
:10285C0017361206D8A0130603AE37EF14F039EF73
:10286C0014F01DEF14F0000E196E17AE40EF14F0BB
:10287C0042EF14F066EF14F0FF0E1414096EFF0E05
:10288C0015140A6EFF0E16140B6E7F0E17140C6EB9
:10289C0009500A100B100C10D8B457EF14F059EF64
:1028AC0014F05DEF14F0010E196E66EF14F001A038
:1028BC0062EF14F064EF14F066EF14F059EF14F0BB
:1028CC001950D8B46CEF14F06EEF14F092EF14F0C2
:1028DC00010E0126000E02220322042204A079EF2D
:1028EC0014F07BEF14F092EF14F001C009F002C069
:1028FC000AF003C00BF004C00CF00C340C320B3299
:10290C000A32093209C001F00AC002F00BC003F010
:10291C000CC004F0124A132A13BE9DEF14F013508E
:10292C0008E11228D8A09DEF14F09FEF14F0AAEF45
:10293C0014F0000E136E1268000E016E000E026E83
:10294C00000E036E000E046E13BEB7EF14F013509E
:10295C0006E11204D8B0B5EF14F0B7EF14F0C5EFE0
:10296C0014F0000E136E000E126E000E016E000EAF
:10297C00026E000E036E000E046E000E116E12C07D
:10298C0018F018A0CCEF14F0CEEF14F0D1EF14F037
:10299C00038ED2EF14F0039ED8901830046E88EF9B
:1029AC0013F0120021C039F022C03AF023C03BF0E2
:1029BC0024C03CF025C03DF026C03EF027C03FF0BF
:1029CC0028C040F040BEEDEF14F0F0EF14F0010E13
:1029DC00F1EF14F0000E376E386A37503810D8B457
:1029EC00FAEF14F0FCEF14F00CEF15F0401E3F1E44
:1029FC003E1E3D1E3C1E3B1E3A1E396C000E3A22FA
:102A0C003B223C223D223E223F2240220001D7BFE6
:102A1C0012EF15F014EF15F015EF15F0D893D7BF92
:102A2C0022EF15F0D75106E1D605D8B020EF15F0FE
:102A3C0022EF15F028EF15F0000E346E010E336EF8
:102A4C002CEF15F0D6C033F0D7C034F0D4C035F02D
:102A5C00D5C036F037503810D8A437EF15F039EF11
:102A6C0015F040EF15F0D8A53EEF15F040EF15F03E
:102A7C0043EF15F03506D8A03606000E426E4F0E09
:102A8C00416E000E0101656FC8EF15F04106D8A02C
:102A9C004206160E4124D96E010E4220DA6E39C060
:102AAC0001F03AC002F03BC003F03CC004F03DC062
:102ABC0005F03EC006F03FC007F040C008F00A0E1B
:102ACC00096E000E0A6E000E0B6E000E0C6E000EE0
:102ADC000D6E000E0E6E000E0F6E000E106E48EC9A
:102AEC001DF001C029F002C02AF003C02BF004C075
:102AFC002CF005C02DF006C02EF007C02FF008C03A
:102B0C0030F029C013F02BC014F0F2EC25F0135068
:102B1C00300FDF6E3306D8A034063506D8A0360643
:102B2C0039C001F03AC002F03BC003F03CC004F0E5
:102B3C003DC005F03EC006F03FC007F040C008F0B5
:102B4C000A0E096E000E0A6E000E0B6E000E0C6E55
:102B5C00000E0D6E000E0E6E000E0F6E000E106E3F
:102B6C0084EC1CF001C039F002C03AF003C03BF019
:102B7C0004C03CF005C03DF006C03EF007C03FF07D
:102B8C0008C040F042BED3EF15F0425008E14104BA
:102B9C00D8A0D3EF15F0D5EF15F006EF16F039509D
:102BAC003A103B103C103D103E103F104010D8A482
:102BBC00E2EF15F0E4EF15F04CEF15F034BEF1EF49
:102BCC0015F0345006E13304D8B0EFEF15F0F1EF07
:102BDC0015F04CEF15F036BEFCEF15F0365008E151
:102BEC003504D8A0FCEF15F0FEEF15F006EF16F04B
:102BFC000001D8B304EF16F006EF16F04CEF15F009
:102C0C0037503810D8A40DEF16F00FEF16F017EF61
:102C1C0016F00001D8A515EF16F017EF16F035EFEA
:102C2C0016F04106D8A0420637503810D8A421EF30
:102C3C0016F023EF16F029EF16F0000E326E2B0E65
:102C4C00316E2DEF16F0000E326E2D0E316E160E0B
:102C5C004124D96E010E4220DA6E31C0DFFF1FC055
:102C6C0014F020C015F0160E4124166E010E4220F1
:102C7C00176E35C018F036C019F0E6EC21F014C010
:102C8C001FF015C020F0120080B24FEF16F051EF7C
:102C9C0016F065EF16F0829C040E0001C96F0C0E45
:102CAC00C86F330EE82EFED7C82FFCD7C92FFAD722
:102CBC0000D0F29EF29403EC23F08BEF17F0828C91
:102CCC00040E0001C96F0C0EC86F330EE82EFED730
:102CDC00C82FFCD7C92FFAD700D0C20ED1EC25F0E3
:102CEC00390E0001B66F080EB76F81EC26F00B0E93
:102CFC000001C96F260EC86F5D0EE82EFED7C82FD7
:102D0C00FCD7C92FFAD700D0F28EF28C79EF17F0DE
:102D1C0080A693EF16F095EF16F0D9EF16F0E8C0F9
:102D2C0006F0E9C007F0000E096E0A0E086E49ECB9
:102D3C0022F006C0E4F007C0E5F0E8C001F0E9C0FD
:102D4C0002F0000E046E0A0E036EABEC22F001C012
:102D5C00E2F002C0E3F0060E0001C96F130EC86F5B
:102D6C00AD0EE82EFED7C82FFCD7C92FFAD700D04E
:102D7C00010E0001E825E86F000EE921E96FE9BFBB
:102D8C00D1EF16F0E95109E1180EE85DD8A0D1EFAA
:102D9C0016F0D3EF16F08EEF16F0000EE96F000E62
:102DAC00E86F8EEF16F080AADEEF16F0E0EF16F06B
:102DBC0024EF17F0E6C006F0E7C007F0000E096E2E
:102DCC000A0E086E49EC22F006C0E0F007C0E1F0F4
:102DDC00E6C001F0E7C002F0000E046E0A0E036EAE
:102DEC00ABEC22F001C0DEF002C0DFF0060E0001F9
:102DFC00C96F130EC86FAD0EE82EFED7C82FFCD7C7
:102E0C00C92FFAD700D0010E0001E625E66F000E9F
:102E1C00E721E76FE7BF1CEF17F0E75109E13C0E24
:102E2C00E65DD8A01CEF17F01EEF17F08EEF16F032
:102E3C00000EE76F000EE66F8EEF16F00001E9BF93
:102E4C0033EF17F0E95107E10C0EE85DD8B031EF24
:102E5C0017F033EF17F057EF17F0C20ED1EC25F047
:102E6C00010E0001B66F080EB76FE4C0B8F0E5C0F4
:102E7C00B9F0E2C0BAF0E3C0BBF0E0C0BCF0E1C016
:102E8C00BDF0DEC0BEF0DFC0BFF0DCC0C0F0DDC006
:102E9C00C1F0DAC0C2F0DBC0C3F081EC26F079EFF0
:102EAC0017F0C20ED1EC25F0140E0001B66F080E0F
:102EBC00B76FE4C0B8F0E5C0B9F0E2C0BAF0E3C057
:102ECC00BBF0E0C0BCF0E1C0BDF0DEC0BEF0DFC0C6
:102EDC00BFF0DCC0C0F0DDC0C1F0DAC0C2F0DBC0B6
:102EEC00C3F081EC26F080B27EEF17F080EF17F084
:102EFC008EEF16F0000E0001DD6F000EDC6F000E81
:102F0C00DB6F000EDA6FF28EF28C1200000E2EECDC
:102F1C0024F001C006F002C007F0000E096E400E4E
:102F2C00086E49EC22F006C0FEF007C0FFF0000E60
:102F3C000101106F000E116FFA0E126F3E0E136F1F
:102F4C00FEC00BF0FFC00CF0000E0CBEFF0E0D6EA1
:102F5C000E6E010EAAEC1BF00BC019F00CC01AF08F
:102F6C000DC01BF00EC01CF010C11DF011C11EF0E5
:102F7C0012C11FF013C120F0F6EC10F019C0CEF006
:102F8C001AC0CFF01BC0D0F01CC0D1F0800ED1EC19
:102F9C0025F0CEC001F0CFC002F0D0C003F0D1C0FC
:102FAC0004F0A4EC1EF001C00BF002C00CF0000EFB
:102FBC000CBEFF0E0D6E0E6E010EAAEC1BF00BC0BC
:102FCC0036F00CC037F00DC038F00EC039F0CEC062
:102FDC0032F0CFC033F0D0C034F0D1C035F069EC52
:102FEC0025F032C03AF033C03BF034C03CF035C071
:102FFC003DF0000E3E6E000E3F6E000E406E3F0E1A
:10300C00416EA9EC1FF0D8A00EEF18F010EF18F0DD
:10301C0053EF18F0660E0001B66F010EB76F270E56
:10302C00B86F080EB96FCEC001F0CFC002F0D0C09F
:10303C0003F0D1C004F09CEC18F001C0BAF002C04F
:10304C00BBF003C0BCF004C0BDF0000E0001BF6FAC
:10305C00DF0EBE6FF4EC24F0020E5F6E040E5E6E9B
:10306C00BA0EE82EFED75E2EFCD75F2EFAD700D014
:10307C00660E0001B66F010EB76F81EC26F0020EE2
:10308C005F6E040E5E6EBA0EE82EFED75E2EFCD777
:10309C005F2EFAD700D09BEF18F0CEC01AF0CFC03D
:1030AC001BF0D0C01CF0D1C01DF0A5EC19F01AC05B
:1030BC00CAF01BC0CBF01CC0CCF01DC0CDF0660E0E
:1030CC000001B66F010EB76F270EB86F080EB96FFF
:1030DC00CAC0BAF0CBC0BBF0CCC0BCF0CDC0BDF008
:1030EC00000EBF6FDF0EBE6FF4EC24F0020E5F6EAD
:1030FC00040E5E6EBA0EE82EFED75E2EFCD75F2E47
:10310C00FAD700D0660E0001B66F010EB76F81ECD6
:10311C0026F0020E5F6E040E5E6EBA0EE82EFED71F
:10312C005E2EFCD75F2EFAD700D0120008C111F02A
:10313C0009C112F00AC113F00BC114F001C011F057
:10314C0002C012F003C013F004C014F0810E056E1F
:10315C00FF0E066E11C007F012C008F013C009F084
:10316C0014C00AF0180EC0EF18F0D8900A320932C9
:10317C0008320732E82EBBEF18F0075005240F6E0B
:10318C00000E0620106E10BED5EF18F0105009E19D
:10319C00170E0F5CD8A0D5EF18F0D7EF18F0E1EFB1
:1031AC0018F001C001F002C002F003C003F004C02B
:1031BC0004F0A4EF19F010BEE6EF18F0E8EF18F0E9
:1031CC0058EF19F00FC005F0FF0E066EFF0E076EDC
:1031DC007F0E086E000E096E0566F7EF18F0FFEF14
:1031EC0018F009340932083207320632052EF2EF94
:1031FC0018F006C00BF007C00CF008C00DF009C0A9
:10320C000EF00B501114056E0C501214066E0D506E
:10321C001314076E0E501414086E05500610071088
:10322C000810D8A41CEF19F01EEF19F020EF19F0BC
:10323C00D7EF18F011C005F012C006F013C007F05C
:10324C0014C008F0200E30EF19F0D8900832073275
:10325C0006320532E82E2BEF19F005500610071038
:10326C000810D8A43CEF19F03EEF19F046EF19F016
:10327C000B5011260C5012220D5013220E501422FA
:10328C000B1C056E0C1C066E0D1C076E0E1C086EBE
:10329C000550111606501216075013160850141626
:1032AC009CEF19F011C005F012C006F013C007F026
:1032BC0014C008F0200E68EF19F0D89008320732CD
:1032CC0006320532E82E63EF19F005500610071090
:1032DC000810D8B474EF19F076EF19F080EF19F0EC
:1032EC00000E116E000E126E000E136E800E146E18
:1032FC009CEF19F0D8901134056E1234066E13340D
:10330C00076E1434086E0550061007100810D8B458
:10331C0092EF19F094EF19F09CEF19F0000E116E6A
:10332C00000E126E800E136E3F0E146E11C001F063
:10333C0012C002F013C003F014C004F0120004C158
:10334C002AF005C12BF006C12CF007C12DF01AC0D4
:10335C002AF01BC02BF01CC02CF01DC02DF0810ED0
:10336C001E6EFF0E1F6E2AC020F02BC021F02CC049
:10337C0022F02DC023F0180EC9EF19F0D89023328B
:10338C00223221322032E82EC4EF19F020501E24B4
:10339C00286E000E1F20296E29BEDEEF19F0295071
:1033AC0009E1170E285CD8A0DEEF19F0E0EF19F058
:1033BC00EAEF19F01AC01AF01BC01BF01CC01CF06D
:1033CC001DC01DF0ADEF1AF029BEEFEF19F0F1EFB3
:1033DC0019F061EF1AF028C01EF0FF0E1F6EFF0EE1
:1033EC00206E7F0E216E000E226E1E6600EF1AF00C
:1033FC0008EF1AF022342232213220321F321E2ED4
:10340C00FBEF19F01FC024F020C025F021C026F0DE
:10341C0022C027F024502A141E6E25502B141F6E28
:10342C0026502C14206E27502D14216E1E501F1068
:10343C0020102110D8A425EF1AF027EF1AF029EF4D
:10344C001AF0E0EF19F02AC01EF02BC01FF02CC0B0
:10345C0020F02DC021F0200E39EF1AF0D890213237
:10346C0020321F321E32E82E34EF1AF01E501F107D
:10347C0020102110D8B445EF1AF047EF1AF04FEF97
:10348C001AF024502A2625502B2226502C22275065
:10349C002D22241C1E6E251C1F6E261C206E271C24
:1034AC00216E1E502A161F502B1620502C16215000
:1034BC002D16A5EF1AF02AC01EF02BC01FF02CC041
:1034CC0020F02DC021F0200E71EF1AF0D89021328F
:1034DC0020321F321E32E82E6CEF1AF01E501F10D5
:1034EC0020102110D8A47DEF1AF07FEF1AF089EF8D
:1034FC001AF0000E2A6E000E2B6E000E2C6E000EB3
:10350C002D6EA5EF1AF0D8902A341E6E2B341F6E38
:10351C002C34206E2D34216E1E501F1020102110C3
:10352C00D8B49BEF1AF09DEF1AF0A5EF1AF0000E2D
:10353C002A6E000E2B6E800E2C6EBF0E2D6E2AC0C6
:10354C001AF02BC01BF02CC01CF02DC01DF012006B
:10355C00000E166E000E156E000E0F6E000E0E6E27
:10356C00BAEF1AF0084A092A010E146E08C0F6FFC9
:10357C0009C0F7FFF86A070EF76403D00800F5508E
:10358C0005D0F6CFE1FFF7CFE2FFE750200AD8B421
:10359C00D2EF1AF0D4EF1AF0FBEF1AF0F70E0A6E16
:1035AC00FF0E0B6E08C0F6FF09C0F7FFF86A070E96
:1035BC00F76403D00800F55005D0F6CFE1FFF7CF44
:1035CC00E2FFE7500C6E0D6A0A500C260B500D22D0
:1035DC000D5009E1050E0C5CD8A0F7EF1AF0F9EFCD
:1035EC001AF0FBEF1AF0000E146E14C010F0116AF2
:1035FC0010501110D8A405EF1BF007EF1BF0B8EF1B
:10360C001AF011EF1BF0000E0F6E010E0E6E084A31
:10361C00092A5CEF1BF008C0F6FF09C0F7FFF86A37
:10362C00070EF76403D00800F55005D0F6CFE1FF84
:10363C00F7CFE2FFE7500A6E0B6A0B50000AD8B4C2
:10364C002AEF1BF05CEF1BF00A502B0AD8B40DEFDD
:10365C001BF0060AD8B409EF1BF05CEF1BF015C089
:10366C0001F016C002F0000E046E0A0E036EA8ECF8
:10367C0026F008C0F6FF09C0F7FFF86A070EF764DA
:10368C0003D00800F55005D0F6CFE1FFF7CFE2FFED
:10369C00E7500A6E0A50015E000E025A300E0124E9
:1036AC00156E000E0220166E0DEF1BF0D00E0A6E7A
:1036BC00FF0E0B6E08C0F6FF09C0F7FFF86A070E85
:1036CC00F76403D00800F55005D0F6CFE1FFF7CF33
:1036DC00E2FFE7500C6E0D6A0A500C260B500D22BF
:1036EC000D500AE10A0E0C5CD8A07FEF1BF082EFA4
:1036FC001BF0010E83EF1BF0000E126E136A1250BA
:10370C001310D8A48CEF1BF08EEF1BF035EF1BF0D1
:10371C000E500F10D8A495EF1BF097EF1BF0A5EFF0
:10372C001BF015C00AF016C00BF00A1E0B1E0A4A3D
:10373C000B2A0AC008F00BC009F0A9EF1BF015C04A
:10374C0008F016C009F01200136E1350D8B4B1EF84
:10375C001BF0B3EF1BF0D5EF1BF00EBEBAEF1BF056
:10376C00B8EF1BF0D5EF1BF00BC00FF00CC010F036
:10377C000DC011F00EC012F00F1E101E111E121EE5
:10378C000F2A000E1022112212220FC015F010C0A9
:10379C0016F011C017F012C018F0DDEF1BF00BC0C3
:1037AC0015F00CC016F00DC017F00EC018F00B5031
:1037BC000C100D100E10D8A4E6EF1BF0E8EF1BF068
:1037CC00F2EF1BF0000E0B6E000E0C6E000E0D6E69
:1037DC00000E0E6E83EF1CF0960E146EFCEF1BF0B9
:1037EC00142AD8901832173216321532000E1514CE
:1037FC000F6E000E1614106E000E1714116EFE0EC6
:10380C001814126E0F50101011101210D8A411EFC2
:10381C001CF013EF1CF0F6EF1BF021EF1CF0142A38
:10382C00010E1526000E162217221822D8901832D7
:10383C00173216321532000E15140F6E000E1614B8
:10384C00106E000E1714116EFF0E1814126E0F501E
:10385C00101011101210D8A436EF1CF038EF1CF019
:10386C0015EF1CF040EF1CF01406D89015361636E8
:10387C001736183617BE45EF1CF047EF1CF04FEF0C
:10388C001CF0020E14604DEF1CF04FEF1CF03AEFE1
:10389C001CF014B054EF1CF056EF1CF057EF1CF05A
:1038AC00179ED890143214C00FF0106A116A126A65
:1038BC000FC012F0116A106A0F6A0F5015121050D7
:1038CC00161211501712125018121350D8B471EF5F
:1038DC001CF073EF1CF07BEF1CF00EBE7AEF1CF0AB
:1038EC0078EF1CF07BEF1CF0188E15C00BF016C097
:1038FC000CF017C00DF018C00EF01200000E126E76
:10390C0010BE8DEF1CF08BEF1CF09FEF1CF0101E07
:10391C000F1E0E1E0D1E0C1E0B1E0A1E096C000E19
:10392C000A220B220C220D220E220F221022010E33
:10393C00126E08BEA6EF1CF0A4EF1CF0B8EF1CF042
:10394C00081E071E061E051E041E031E021E016C09
:10395C00000E02220322042205220622072208223C
:10396C00010E121A20EE13F0070EDE6AE806FDE2D5
:10397C0009500A100B100C100D100E100F10101017
:10398C00D8B4CBEF1CF0CDEF1CF01FEF1DF0010EE7
:10399C00116EDBEF1CF0D89009360A360B360C365C
:1039AC000D360E360F361036112A10AEE0EF1CF025
:1039BC00E2EF1CF0D1EF1CF0D8901336143615360C
:1039CC0016361736183619361A360950015C0A5055
:1039DC0002580B5003580C5004580D5005580E50FB
:1039EC0006580F50075810500858D8A000EF1DF07B
:1039FC0002EF1DF013EF1DF00950015E0A50025A40
:103A0C000B50035A0C50045A0D50055A0E50065ABE
:103A1C000F50075A1050085A1380D89010320F329A
:103A2C000E320D320C320B320A320932112EE2EF09
:103A3C001CF01250D8B425EF1DF027EF1DF037EF16
:103A4C001DF01A1E191E181E171E161E151E141EEA
:103A5C00136C000E1422152216221722182219227A
:103A6C001A2213C001F014C002F015C003F016C0E6
:103A7C0004F017C005F018C006F019C007F01AC002
:103A8C0008F01200000E126E08BE51EF1DF04FEF41
:103A9C001DF063EF1DF0081E071E061E051E041EFA
:103AAC00031E021E016C000E0222032204220522B8
:103ABC00062207220822010E126E10BE6AEF1DF0BC
:103ACC0068EF1DF07AEF1DF0101E0F1E0E1E0D1E5E
:103ADC000C1E0B1E0A1E096C000E0A220B220C2255
:103AEC000D220E220F22102209500A100B100C105E
:103AFC000D100E100F101010D8B487EF1DF089EFB9
:103B0C001DF0D1EF1DF0010E116E97EF1DF0D89046
:103B1C0009360A360B360C360D360E360F36103685
:103B2C00112A10AE9CEF1DF09EEF1DF08DEF1DF0D5
:103B3C000950015C0A5002580B5003580C500458A1
:103B4C000D5005580E5006580F5007581050085875
:103B5C00D8A0B3EF1DF0B5EF1DF0C5EF1DF0095067
:103B6C00015E0A50025A0B50035A0C50045A0D5065
:103B7C00055A0E50065A0F50075A1050085AD89032
:103B8C0010320F320E320D320C320B320A32093235
:103B9C00112E9EEF1DF01250D8B4D7EF1DF0D9EFB7
:103BAC001DF0E9EF1DF0081E071E061E051E041E63
:103BBC00031E021E016C000E0222032204220522A7
:103BCC0006220722082201C001F002C002F003C045
:103BDC0003F004C004F005C005F006C006F007C0F1
:103BEC0007F008C008F01200F8C006F0F9C007F0A2
:103BFC00000E096E0A0E086E49EC22F006C0F2F0B7
:103C0C0007C0F3F0F8C001F0F9C002F0000E046E2A
:103C1C000A0E036EABEC22F001C0F4F002C0F5F01A
:103C2C00FAC006F0FBC007F0000E096E0A0E086E13
:103C3C0049EC22F006C0EEF007C0EFF0FAC001F03C
:103C4C00FBC002F0000E046E0A0E036EABEC22F009
:103C5C0001C0F0F002C0F1F0F6C006F0F7C007F0BA
:103C6C00000E096E0A0E086E49EC22F006C0EAF04E
:103C7C0007C0EBF0F6C001F0F7C002F0000E046EC6
:103C8C000A0E036EABEC22F001C0ECF002C0EDF0BA
:103C9C000001F9BF5DEF1EF0F95107E10C0EF85D64
:103CAC00D8B05BEF1EF05DEF1EF081EF1EF0C20E80
:103CBC00D1EC25F0010E0001B66F080EB76FF2C003
:103CCC00B8F0F3C0B9F0F4C0BAF0F5C0BBF0EEC078
:103CDC00BCF0EFC0BDF0F0C0BEF0F1C0BFF0EAC068
:103CEC00C0F0EBC0C1F0ECC0C2F0EDC0C3F081EC91
:103CFC0026F0A3EF1EF0C20ED1EC25F0140E00013D
:103D0C00B66F080EB76FF2C0B8F0F3C0B9F0F4C0DC
:103D1C00BAF0F5C0BBF0EEC0BCF0EFC0BDF0F0C027
:103D2C00BEF0F1C0BFF0EAC0C0F0EBC0C1F0ECC017
:103D3C00C2F0EDC0C3F081EC26F012000334043461
:103D4C000A6E0A50D8A4ADEF1EF0AFEF1EF0B9EF1B
:103D5C001EF0000E016E000E026E000E036E000EC1
:103D6C00046E26EF1FF001C005F002C006F003C080
:103D7C0007F004C008F0200EC9EF1EF0D8900832EE
:103D8C00073206320532E82EC4EF1EF00550096EDC
:103D9C00038EFF0E0116FF0E0216FF0E0316000E09
:103DAC000416960E0A5E0ABEE0EF1EF0DEEF1EF061
:103DBC00F6EF1EF00A50800A970FD8B0E8EF1EF00D
:103DCC00EAEF1EF0ECEF1EF0AFEF1EF0D8900432CD
:103DDC000332023201320A3EECEF1EF00EEF1FF0FE
:103DEC001F0E0A64FCEF1EF0FEEF1EF006EF1FF034
:103DFC00AFEF1EF0D89001360236033604360A06B1
:103E0C000A50D8A40CEF1FF00EEF1FF000EF1FF0BC
:103E1C000950D8B414EF1FF016EF1FF01EEF1FF06F
:103E2C00041E031E021E016C000E02220322042239
:103E3C0001C001F002C002F003C003F004C004F0A2
:103E4C0012000001F251E41907E1F351E519D8A46D
:103E5C0032EF1FF034EF1FF09AEF1FF0F451E2191C
:103E6C0007E1F551E319D8A43EEF1FF040EF1FF026
:103E7C009AEF1FF0EE51E01907E1EF51E119D8A4C8
:103E8C004AEF1FF04CEF1FF09AEF1FF0F051DE19C4
:103E9C0007E1F151DF19D8A456EF1FF058EF1FF0CE
:103EAC009AEF1FF0EA51DC1907E1EB51DD19D8A4A8
:103EBC0062EF1FF064EF1FF09AEF1FF0EC51DA196C
:103ECC0007E1ED51DB19D8A46EEF1FF070EF1FF076
:103EDC009AEF1FF00A0E036E90EF1FF08168020E2E
:103EEC00026E040E016EBA0EE82EFED7012EFCD720
:103EFC00022EFAD700D0000E816E020E026E040E56
:103F0C00016EBA0EE82EFED7012EFCD7022EFAD780
:103F1C0000D003060350D8A496EF1FF098EF1FF0C3
:103F2C0074EF1FF0A8EF1FF0000E816E020E026EF0
:103F3C00040E016EBA0EE82EFED7012EFCD7022E0F
:103F4C00FAD700D01200000E3A14426E000E3B1449
:103F5C00436E800E3C14446E7F0E3D14456E4250F1
:103F6C00431044104510D8A4BEEF1FF0C0EF1FF053
:103F7C00C8EF1FF0000E3A6E000E3B6E000E3C6E4A
:103F8C00000E3D6E000E3E14426E000E3F14436E4A
:103F9C00800E4014446E7F0E4114456E4250431007
:103FAC0044104510D8A4DDEF1FF0DFEF1FF0E7EF52
:103FBC001FF0000E3E6E000E3F6E000E406E000EA7
:103FCC00416E3DAEECEF1FF0EEEF1FF0F7EF1FF080
:103FDC003A6C3B1ED8B03B2A3C1ED8B03C2A800E13
:103FEC003D5641AEFCEF1FF0FEEF1FF007EF20F047
:103FFC003E6C3F1ED8B03F2A401ED8B0402A800EDF
:10400C004156000E3A1A000E3B1A000E3C1A800E56
:10401C003D1A000E3E1A000E3F1A000E401A800E7A
:10402C00411A3E503A5C3F503B5840503C5841502E
:10403C003D58D8B024EF20F026EF20F029EF20F0E7
:10404C00D8902AEF20F0D880120000C10BF001C1EB
:10405C000CF002C10DF003C10EF001C00BF002C058
:10406C000CF003C00DF004C00EF00BC005F00CC03A
:10407C0006F00DC007F00EC008F0180E4BEF20F044
:10408C00D8900832073206320532E82E46EF20F07F
:10409C000550096E0A6A09500A10D8A458EF20F08E
:1040AC005AEF20F07AEF20F0D8900B34056E0C34D8
:1040BC00066E0D34076E0E34086E05500610071090
:1040CC000810D8A46CEF20F06EEF20F074EF20F005
:1040DC00000E026E020E016EA9EF20F0000E026EB1
:1040EC00030E016EA9EF20F009280A10D8A481EF65
:1040FC0020F083EF20F0A5EF20F00BC005F00CC0F2
:10410C0006F00DC007F00EC008F0090ED890053669
:10411C00063607360836E82E8CEF20F005500610D0
:10412C0007100810D8B49DEF20F0A0EF20F0010E7E
:10413C00A1EF20F0000E016E026AA9EF20F0000E34
:10414C00026E040E016E12000001D451D511D8A4D8
:10415C00B2EF20F0B4EF20F0BAEF20F0D4C013F09F
:10416C00D5C014F0C0EF20F0FF0ED425136EFF0E57
:10417C00D521146ED8A1C5EF20F0C7EF20F0D0EFF9
:10418C0020F00FC004F0056A0DC006F00EC007F059
:10419C0081EC21F014BED5EF20F0D7EF20F0D9EF51
:1041AC0020F0DDEF20F0000E146E000E136E000EEA
:1041BC00126E000E116EEFEF20F0000E056E200E49
:1041CC00046E0DC006F00EC007F081EC21F0114A10
:1041DC00122A1350115C1250800A106E1450800A6F
:1041EC001058D8A0FCEF20F0FEEF20F0E3EF20F009
:1041FC000001D8B104EF21F006EF21F00FEF21F010
:10420C000FC004F0056A0DC006F00EC007F081EC7B
:10421C0021F0010E11240D6E000E12200E6E1200F4
:10422C0001C008F002C009F003C00AF004C00BF092
:10423C000506D8A00606052806E10628D8A429EF0D
:10424C0021F02BEF21F038EF21F0000E026E000E62
:10425C00016E80EF21F0084A092A0A4A0B2A05064A
:10426C00D8A0060608C0D9FF09C0DAFFDF50D8B4C1
:10427C0042EF21F044EF21F06FEF21F00AC0F6FF7E
:10428C000BC0F7FF0800F5500009D8B450EF21F02F
:10429C0052EF21F06FEF21F005500610D8B459EF12
:1042AC0021F05BEF21F06FEF21F008C0D9FF09C0BE
:1042BC00DAFFDF50076E0AC0F6FF0BC0F7FF0800ED
:1042CC00F5500718D8B46DEF21F06FEF21F031EFF6
:1042DC0021F008C0D9FF09C0DAFFDF50076E0AC011
:1042EC00F6FF0BC0F7FF0800F550075C016E026A81
:1042FC00D8A00206120006500710D8B488EF21F09F
:10430C008AEF21F093EF21F006500710D8A491EF1B
:10431C0021F093EF21F098EF21F004508CEC25F074
:10432C00E5EF21F020EE04F00650D9260750DA22F2
:10433C00DE50DE10D8B4A5EF21F0A7EF21F0C2EFCC
:10434C0021F020EE04F00650D9260750DA2210EEA8
:10435C0002F00650E1260750E222DE50E65CE65001
:10436C00800A0C6EDE50800A0C58D8B0C0EF21F0D9
:10437C00C2EF21F0E5EF21F020EE02F00650D92635
:10438C000750DA22DECF08F0DDCF09F006C0D9FFE6
:10439C0007C0DAFFDECF0AF0DDCF0BF008500A249D
:1043AC00D96E09500B20DA6E04C0DFFF20EE02F04C
:1043BC000650D9260750DA22DE2A000EDD22120022
:1043CC000001D8A1ECEF21F0EEEF21F0F8EF21F095
:1043DC0016C00DF017C00EF014C00FF015C010F081
:1043EC00AFEC25F019BEFDEF21F0FFEF21F005EF4A
:1043FC0022F018C01DF019C01EF009EF22F0000EBB
:10440C001E6E000E1D6E000E1C6E000E1B6E1BEF42
:10441C0022F0000E056E200E046E14C006F015C0BE
:10442C0007F081EC21F01B4A1C2A1D501B5C1C5010
:10443C00800A1A6E1E50800A1A58D8A028EF22F053
:10444C002AEF22F00FEF22F00001D8B130EF22F06A
:10445C0032EF22F03CEF22F016C00DF017C00EF038
:10446C0014C00FF015C010F0AFEC25F016C001F021
:10447C0017C002F066EC26F01D500124146E1E507D
:10448C000220156E1200000E0B6E09BE52EF22F0C8
:10449C0050EF22F058EF22F0086C091ED8B0092A10
:1044AC00010E0B6E07BE5FEF22F05DEF22F065EFA1
:1044BC0022F0066C071ED8B0072A010E0B1A000E4C
:1044CC000D6E000E0C6E08500910D8B470EF22F06F
:1044DC0072EF22F09AEF22F0010E0A6E7AEF22F0C0
:1044EC00D890083609360A2A09AE7FEF22F081EF00
:1044FC0022F076EF22F0D8900C360D360850065C80
:10450C0009500758D8A08DEF22F08FEF22F094EFCE
:10451C0022F00850065E0950075A0C80D8900932D8
:10452C0008320A2E81EF22F00B50D8B4A0EF22F003
:10453C00A2EF22F0A6EF22F00C6C0D1ED8B00D2AC3
:10454C000CC006F00DC007F01200000E066E02BE85
:10455C00B4EF22F0B2EF22F0BAEF22F0016C021E9F
:10456C00D8B0022A010E066E04BEC1EF22F0BFEFD6
:10457C0022F0C5EF22F0036C041ED8B0042A0350BD
:10458C000410D8B4CCEF22F0CEEF22F0F2EF22F0F0
:10459C00010E056ED6EF22F0D89003360436052AAC
:1045AC0004AEDBEF22F0DDEF22F0D2EF22F003506D
:1045BC00015C04500258D8A0E6EF22F0E8EF22F09C
:1045CC00ECEF22F00350015E0450025AD8900432F2
:1045DC000332052EDDEF22F00650D8B4F8EF22F0AE
:1045EC00FAEF22F0FEEF22F0016C021ED8B0022A84
:1045FC0001C001F002C002F01200FAEC1DF0010E35
:10460C000001F625F66F000EF721F76FF7BF18EFD4
:10461C0023F0F75109E13C0EF65DD8A018EF23F01A
:10462C001AEF23F04EEF23F0000EF76F000EF66F2B
:10463C00010EFA25FA6F000EFB21FB6FFBBF30EF6A
:10464C0023F0FB5109E13C0EFA5DD8A030EF23F0CA
:10465C0032EF23F04EEF23F0000EFB6F000EFA6FDB
:10466C00010EF825F86F000EF921F96FF9BF48EF2C
:10467C0023F0F95109E1180EF85DD8A048EF23F0AA
:10468C004AEF23F04EEF23F0000EF96F000EF86F97
:10469C000B0E5F6E260E5E6E5E0EE82EFED75E2E45
:1046AC00FCD75F2EFAD71200000E0114096E000E13
:1046BC0002140A6E800E03140B6E7F0E04140C6E23
:1046CC0009500A100B100C10D8A46FEF23F071EFE7
:1046DC0023F079EF23F0000E016E000E026E000E37
:1046EC00036E000E046E000E0514096E000E061407
:1046FC000A6E800E07140B6E7F0E08140C6E095098
:10470C000A100B100C10D8A48EEF23F090EF23F0AE
:10471C0098EF23F0000E056E000E066E000E076E6D
:10472C00000E086E055001180FE1065002180CE13E
:10473C000750031809E108500418D8B4A8EF23F067
:10474C00AAEF23F0ADEF23F0D890AEEF23F0D88092
:10475C001200820E046EDE0EE82EFED7042EFCD75D
:10476C00020ED1EC25F0030E046E980EE82EFED747
:10477C00042EFCD7280ED1EC25F0030E046E980EF7
:10478C00E82EFED7042EFCD72C0ED1EC25F0030E10
:10479C00046E980EE82EFED7042EFCD70C0ED1EC2E
:1047AC0025F0030E046E980EE82EFED7042EFCD7CF
:1047BC00060ED1EC25F0030E046E980EE82EFED7F3
:1047CC00042EFCD7800ED1EC25F0030E046E980E4F
:1047DC00E82EFED7042EFCD71200B2C05CF0B3C09A
:1047EC005DF0000E0001D36F000ED26F11EF24F0BC
:1047FC00B0C052F0B1C053F05C0E546E000E556E4A
:10480C00B4C056F0B5C057F05AEC0AF05250000143
:10481C00D2275350D3235CC0F6FF5DC0F7FFF86A74
:10482C00070EF76403D00800F55005D0F6CFE1FF72
:10483C00F7CFE2FFE7500009D8A427EF24F029EFC7
:10484C0024F0FEEF23F0D2C0B0F0D3C0B1F01200D0
:10485C00056EF30EC116FC0EC116830EC216C250A5
:10486C00830B0809C26E3FEF24F0020EC26E50EFAC
:10487C0024F00550036E046A0450000AD8B449EFC2
:10488C0024F050EF24F00350000AD8B43BEF24F08E
:10489C0050EF24F0210EC06EC280C282C2B259EF1A
:1048AC0024F05BEF24F054EF24F0C450046E036A40
:1048BC00C3500324016E000E0420026E1200036E1E
:1048CC0003B002D08C9801D08C8803C002F0D89031
:1048DC000232023A02468C500218DF0B02188C6E20
:1048EC0003C002F0D8900232D8900232023A02464B
:1048FC0002468C500218BF0B02188C6E03C002F0DB
:10490C00D8900232D8900232D8900232023202325F
:10491C008C5002187F0B02188C6EE5EC26F01200FE
:10492C00BF0E096EFF0E0A6E07C00BF008C00CF02C
:10493C0009500B260A500C220C500AE11A0E0B5C83
:10494C00D8A0ABEF24F0AEEF24F0010EAFEF24F0C3
:10495C00000E0D6E0E6A0D500E10D8B4B8EF24F088
:10496C00BAEF24F0C1EF24F0200E0710076E0850A8
:10497C00086EC5EF24F007C007F008C008F012005D
:10498C0003C007F004C008F001C009F002C00AF02F
:10499C000750056E0850066E074A082A05C0F6FF38
:1049AC0006C0F7FFF86A09C0D9FF0AC0DAFF094A46
:1049BC000A2A070EF76403D00800F55005D0F6CF8D
:1049CC00E1FFF7CFE2FFE750DF6EDF50D8A4F1EF45
:1049DC0024F0F3EF24F0CEEF24F01200BA0E000115
:1049EC00C26F000EC36FB6C0C4F0B7C0C5F0000EE6
:1049FC00C76F000EC66F000EC96F000EC86FC40ED5
:104A0C00B06F000EB16FB8C0B2F0B9C0B3F0C20E47
:104A1C00B46F000EB56FF3EC23F00001C651B62550
:104A2C00D96EC751B721DA6E000EDF6E1200010E7F
:104A3C00076E200E01180210D8B427EF25F029EFCD
:104A4C0025F042EF25F0F70E036EFF0E046E01C049
:104A5C0005F002C006F0035005260450062206504D
:104A6C0009E1050E055CD8A03EEF25F040EF25F0DE
:104A7C0042EF25F0000E076E07C001F0026A12002B
:104A8C0095EC26F0CCEC26F0AFEC23F0010ED9EC33
:104A9C0026F00C0ED9EC26F0000E0001F96F0C0E6E
:104AAC00F86F000EFB6F3B0EFA6F000EF76F320EB5
:104ABC00F66F8CEC17F04AEC16F027EC1FF05FEF5A
:104ACC0025F000EF00F0000E361A000E371A000E1B
:104ADC00381A800E391A32C001F033C002F034C0DB
:104AEC0003F035C004F036C005F037C006F038C00E
:104AFC0007F039C008F096EC0EF001C032F002C09D
:104B0C0033F003C034F004C035F01200026E0250D2
:104B1C00F00B036E035005098C6E060EE82EFED7C3
:104B2C0000D0035001098C6E030E016E980EE82E16
:104B3C00FED7012EFCD70238F00B036E035005098B
:104B4C008C6E060EE82EFED700D0035001098C6E39
:104B5C001200000E136E000E126EC0EF25F011C085
:104B6C0004F0056A0FC006F010C007F081EC21F0CC
:104B7C00124A132A12500D24D96E13500E20DA6EDD
:104B8C00DF50116E1150D8A4CEEF25F0D0EF25F0E8
:104B9C00B5EF25F01200026E0250F00B036E0350BD
:104BAC0004098C6E060EE82EFED700D003C08CFFD5
:104BBC00030E016E980EE82EFED7012EFCD702389C
:104BCC00F00B036E035004098C6E060EE82EFED714
:104BDC0000D003C08CFF120014BEFFEF25F0145060
:104BEC0006E11304D8B0FDEF25F0FFEF25F00DEF33
:104BFC0026F013C015F014C016F0151E161E154A1B
:104C0C00162A15C013F016C014F011EF26F013C0BD
:104C1C0013F014C014F01200BF0E036EFF0E046EDE
:104C2C0001C005F002C006F0035005260450062210
:104C3C0006500AE11A0E055CD8A027EF26F02AEFE1
:104C4C0026F0010E2BEF26F0000E016E026A120008
:104C5C000150021003100410D8B437EF26F039EFCE
:104C6C0026F041EF26F0000E011A000E021A000E7B
:104C7C00031A800E041A01C001F002C002F003C036
:104C8C0003F004C004F01200D00E036EFF0E046E8D
:104C9C0001C005F002C006F00350052604500622A0
:104CAC0006500AE10A0E055CD8A05FEF26F062EF11
:104CBC0026F0010E63EF26F0000E016E026A120060
:104CCC0001C003F002C004F06EEF26F0014A022A84
:104CDC0001C0D9FF02C0DAFFDF50D8A478EF26F06C
:104CEC007AEF26F06CEF26F00350015C016E045055
:104CFC000258026E1200B80E0001C66F000EC76F8C
:104D0C00000EB06F000EB16FB6C0B2F0B7C0B3F00A
:104D1C00C60EB46F000EB56FF3EC23F01200926860
:104D2C00000E956E6C0ED36E0F015B975B935B9BC5
:104D3C00949C5D9D8B9C000E936E000E5C6F000E20
:104D4C008A6E120001500302F3CF05F0F4CF06F087
:104D5C0001500402F350062602500302F3500626BB
:104D6C0005C001F006C002F0120001EE00F0760E54
:104D7C00EE6AE806FDE100EECEF0320EEE6AE806D1
:104D8C00FDE1000EF86E000146EF25F0D58CD58ABA
:104D9C00D598D586F80ED516D668D58EF28EF28CAF
:104DAC00F28AF2941200046E8C9004380F0B0F0BE5
:104DBC0065EC24F004500F0B65EC24F012008C848D
:104DCC00030E016E980EE82EFED7012EFCD78C94A4
:024DDC001200C3
:020000040020DA
:08000000FFFFFFFFFFFFFFFF00
:020000040030CA
:0E00000000285F3CFFD381FF0FC00FE00F40D0
:00000001FF
