:020000040000FA
:04000000B5EF3FF029
:107F6A000001D8EF3FF0C282C2B2BEEF3FF0C0EFCD
:107F7A003FF0B9EF3FF0C4CF01F0026A1200000EE1
:107F8A00946E000E0F015D6F230ED36E010EC26E4A
:107F9A00000EC16E080EC06E070EBA6E9B0EBB6E47
:107FAA000F0EBD6E1200000E046EC4EC3FF0B8EC6A
:107FBA003FF00150056E0538E8461F0B1F0F056E8E
:107FCA000550030B046E0438F00B046EBD50041008
:107FDA00BD6E0540E8423F0B056E05C0BEFF210E8F
:107FEA00036E760EE82EFED7032EFCD700D0DCEF08
:067FFA003FF000EF00F073
:020000040020DA
:08000000FFFFFFFFFFFFFFFF00
:020000040030CA
:0E00000000285F3CFFD381FF0FC00FE00F40D0
:00000001FF
