:020000040000FA
:040000004CEF00F0D1
:1000080004820A0E026EF2A20CEF00F00EEF00F06E
:1000180041EF00F02CEF00F0330E836E820E016E7C
:10002800DE0EE82EFED7012EFCD7CC0E836E820E94
:10003800016EDE0EE82EFED7012EFCD7000E836E71
:10004800820E016EDE0EE82EFED7012EFCD70206C8
:100058000250D8A432EF00F034EF00F010EF00F0B7
:100068004AEF00F002C083FF210E016E760EE82EE3
:10007800FED7012EFCD700D002060250D8A447EFC5
:1000880000F049EF00F036EF00F0F0900492110014
:1000980074EF00F0000E926E9368000E956E000EDD
:1000A8000F015B6F000E5C6F000E5E6F000E896EB5
:1000B800000E8C6E080EF26ED00EF06ED09E1200FE
:1000C8004EEC00F0010E801AA30E036E550EE82EBA
:1000D800FED7032EFCD700F066EF00F04CEF00F0DF
:0A00E80004900492000164EF00F0A0
:020000040020DA
:08000000FFFFFFFFFFFFFFFF00
:020000040030CA
:0E00000000285F3CFFD381FF0FC00FE00F40D0
:00000001FF
